{"abi":[{"type":"constructor","inputs":[],"stateMutability":"nonpayable"},{"type":"function","name":"attest","inputs":[{"name":"_proofAsBytes","type":"bytes","internalType":"bytes"}],"outputs":[{"name":"","type":"string","internalType":"string"}],"stateMutability":"nonpayable"},{"type":"function","name":"defaultAllocator","inputs":[],"outputs":[{"name":"","type":"address","internalType":"address"}],"stateMutability":"view"},{"type":"function","name":"getAttestation","inputs":[{"name":"uid","type":"bytes32","internalType":"bytes32"}],"outputs":[{"name":"","type":"tuple","internalType":"struct Attestation","components":[{"name":"uid","type":"bytes32","internalType":"bytes32"},{"name":"schema","type":"bytes32","internalType":"bytes32"},{"name":"uHash","type":"bytes32","internalType":"bytes32"},{"name":"recipient","type":"address","internalType":"address"},{"name":"publicFieldsHash","type":"bytes32","internalType":"bytes32"}]}],"stateMutability":"view"},{"type":"function","name":"getAttestationFromAddress","inputs":[{"name":"_recipient","type":"address","internalType":"address"}],"outputs":[{"name":"","type":"tuple","internalType":"struct Attestation","components":[{"name":"uid","type":"bytes32","internalType":"bytes32"},{"name":"schema","type":"bytes32","internalType":"bytes32"},{"name":"uHash","type":"bytes32","internalType":"bytes32"},{"name":"recipient","type":"address","internalType":"address"},{"name":"publicFieldsHash","type":"bytes32","internalType":"bytes32"}]}],"stateMutability":"view"},{"type":"function","name":"verify","inputs":[{"name":"_proof","type":"tuple","internalType":"struct Proof","components":[{"name":"taskId","type":"bytes32","internalType":"bytes32"},{"name":"schemaId","type":"bytes32","internalType":"bytes32"},{"name":"uHash","type":"bytes32","internalType":"bytes32"},{"name":"recipient","type":"address","internalType":"address"},{"name":"publicFieldsHash","type":"bytes32","internalType":"bytes32"},{"name":"validator","type":"address","internalType":"address"},{"name":"allocatorSignature","type":"bytes","internalType":"bytes"},{"name":"validatorSignature","type":"bytes","internalType":"bytes"}]}],"outputs":[{"name":"","type":"bool","internalType":"bool"}],"stateMutability":"view"},{"type":"function","name":"verifyAllocatorSignature","inputs":[{"name":"_taskId","type":"bytes32","internalType":"bytes32"},{"name":"_schemaId","type":"bytes32","internalType":"bytes32"},{"name":"_validator","type":"address","internalType":"address"},{"name":"_allocatorSignature","type":"bytes","internalType":"bytes"}],"outputs":[{"name":"","type":"bool","internalType":"bool"}],"stateMutability":"view"},{"type":"function","name":"verifyValidatorSignature","inputs":[{"name":"_taskId","type":"bytes32","internalType":"bytes32"},{"name":"_schemaId","type":"bytes32","internalType":"bytes32"},{"name":"_uHash","type":"bytes32","internalType":"bytes32"},{"name":"_recipient","type":"address","internalType":"address"},{"name":"_publicFieldsHash","type":"bytes32","internalType":"bytes32"},{"name":"_validator","type":"address","internalType":"address"},{"name":"_validatorSignature","type":"bytes","internalType":"bytes"}],"outputs":[{"name":"","type":"bool","internalType":"bool"}],"stateMutability":"pure"}],"bytecode":{"object":"0x600080546001600160a01b0319167319a567b3b212a5b35ba0e3b600fbed5c2ee9083d17905560c0604052600a6080908152691898590814d958dc995d60b21b60a0526003906200005190826200010b565b503480156200005f57600080fd5b50620001d7565b634e487b7160e01b600052604160045260246000fd5b600181811c908216806200009157607f821691505b602082108103620000b257634e487b7160e01b600052602260045260246000fd5b50919050565b601f8211156200010657600081815260208120601f850160051c81016020861015620000e15750805b601f850160051c820191505b818110156200010257828155600101620000ed565b5050505b505050565b81516001600160401b0381111562000127576200012762000066565b6200013f816200013884546200007c565b84620000b8565b602080601f8311600181146200017757600084156200015e5750858301515b600019600386901b1c1916600185901b17855562000102565b600085815260208120601f198616915b82811015620001a85788860151825594840194600190910190840162000187565b5085821015620001c75787850151600019600388901b60f8161c191681555b5050505050600190811b01905550565b610e1d80620001e76000396000f3fe608060405234801561001057600080fd5b506004361061007d5760003560e01c8063430768ab1161005b578063430768ab146101be578063756c6eed146101de578063a3112a64146101f1578063b41454461461027a57600080fd5b806303975ea91461008257806308fb8396146101705780631f97770c1461019b575b600080fd5b610121610090366004610908565b6040805160a081018252600080825260208201819052918101829052606081018290526080810191909152506001600160a01b039081166000908152600260208181526040808420548452600180835293819020815160a081018352815481529481015492850192909252918101549183019190915260038101549092166060820152600490910154608082015290565b60405161016791908151815260208083015190820152604080830151908201526060808301516001600160a01b0316908201526080918201519181019190915260a00190565b60405180910390f35b600054610183906001600160a01b031681565b6040516001600160a01b039091168152602001610167565b6101ae6101a9366004610a1b565b61028d565b6040519015158152602001610167565b6101d16101cc366004610a7e565b6102fd565b6040516101679190610adf565b6101ae6101ec366004610b12565b6104d9565b6101216101ff366004610bee565b6040805160a0808201835260008083526020808401829052838501829052606080850183905260809485018390529582526001808252918590208551938401865280548452918201549083015260028101549382019390935260038301546001600160a01b0316938101939093526004909101549082015290565b6101ae610288366004610c07565b61052f565b60408051602081018690529081018490526001600160a01b0383166060820152600090819060800160405160208183030381529060405280519060200120905060006102e16102db836105a9565b856105fc565b6000546001600160a01b03908116911614979650505050505050565b60606000828060200190518101906103159190610ce0565b9050610320816104d9565b6103655760405162461bcd60e51b81526020600482015260116024820152701d995c9a599e481c1c9bdbd98819985a5b607a1b60448201526064015b60405180910390fd5b6040805160a08101825260008082526020848101519083015283830151928201929092526060808401516001600160a01b0316908201526080808401519082015290805b6103b3838261085a565b600081815260016020526040902054909250156103d2576001016103a9565b818352600082815260016020818152604080842087518155828801519381019390935580870151600280850191909155606080890151600380870180546001600160a01b0319166001600160a01b0393841617905560808b0151600490970196909655908a0151168552909152909120839055805461045090610dad565b80601f016020809104026020016040519081016040528092919081815260200182805461047c90610dad565b80156104c95780601f1061049e576101008083540402835291602001916104c9565b820191906000526020600020905b8154815290600101906020018083116104ac57829003601f168201915b5050505050945050505050919050565b60006104f7826000015183602001518460a001518560c0015161028d565b80156105295750610529826000015183602001518460400151856060015186608001518760a001518860e0015161052f565b92915050565b604080516020810189905290810187905260608101869052608081018490526001600160a01b03851660a0820152600090819060c001604051602081830303815290604052805190602001209050600061058b6102db836105a9565b6001600160a01b039081169086161492505050979650505050505050565b6040517f19457468657265756d205369676e6564204d6573736167653a0a3332000000006020820152603c8101829052600090605c01604051602081830303815290604052805190602001209050919050565b6000815160411461064f5760405162461bcd60e51b815260206004820152601860248201527f496e76616c6964207369676e6174757265206c656e6774680000000000000000604482015260640161035c565b60208201516040830151606084015160001a7f7fffffffffffffffffffffffffffffff5d576e7357a4501ddfe92f46681b20a08211156106f75760405162461bcd60e51b815260206004820152603d60248201527f5369676e617475726556616c696461746f72237265636f7665725369676e657260448201527f3a20696e76616c6964207369676e6174757265202773272076616c7565000000606482015260840161035c565b8060ff16601b1415801561070f57508060ff16601c14155b156107825760405162461bcd60e51b815260206004820152603d60248201527f5369676e617475726556616c696461746f72237265636f7665725369676e657260448201527f3a20696e76616c6964207369676e6174757265202776272076616c7565000000606482015260840161035c565b60408051600081526020810180835288905260ff831691810191909152606081018490526080810183905260019060a0016020604051602081039080840390855afa1580156107d5573d6000803e3d6000fd5b5050604051601f1901519450506001600160a01b0384166108515760405162461bcd60e51b815260206004820152603060248201527f5369676e617475726556616c696461746f72237265636f7665725369676e657260448201526f1d1024a72b20a624a22fa9a4a3a722a960811b606482015260840161035c565b50505092915050565b60008260200151836040015184606001518560800151856040516020016108c2959493929190948552602085019390935260609190911b6bffffffffffffffffffffffff19166040840152605483015260e01b6001600160e01b031916607482015260780190565b60405160208183030381529060405280519060200120905092915050565b6001600160a01b03811681146108f557600080fd5b50565b8035610903816108e0565b919050565b60006020828403121561091a57600080fd5b8135610925816108e0565b9392505050565b634e487b7160e01b600052604160045260246000fd5b604051610100810167ffffffffffffffff811182821017156109665761096661092c565b60405290565b604051601f8201601f1916810167ffffffffffffffff811182821017156109955761099561092c565b604052919050565b600067ffffffffffffffff8211156109b7576109b761092c565b50601f01601f191660200190565b600082601f8301126109d657600080fd5b81356109e96109e48261099d565b61096c565b8181528460208386010111156109fe57600080fd5b816020850160208301376000918101602001919091529392505050565b60008060008060808587031215610a3157600080fd5b84359350602085013592506040850135610a4a816108e0565b9150606085013567ffffffffffffffff811115610a6657600080fd5b610a72878288016109c5565b91505092959194509250565b600060208284031215610a9057600080fd5b813567ffffffffffffffff811115610aa757600080fd5b610ab3848285016109c5565b949350505050565b60005b83811015610ad6578181015183820152602001610abe565b50506000910152565b6020815260008251806020840152610afe816040850160208701610abb565b601f01601f19169190910160400192915050565b600060208284031215610b2457600080fd5b813567ffffffffffffffff80821115610b3c57600080fd5b908301906101008286031215610b5157600080fd5b610b59610942565b823581526020830135602082015260408301356040820152610b7d606084016108f8565b606082015260808301356080820152610b9860a084016108f8565b60a082015260c083013582811115610baf57600080fd5b610bbb878286016109c5565b60c08301525060e083013582811115610bd357600080fd5b610bdf878286016109c5565b60e08301525095945050505050565b600060208284031215610c0057600080fd5b5035919050565b600080600080600080600060e0888a031215610c2257600080fd5b8735965060208801359550604088013594506060880135610c42816108e0565b93506080880135925060a0880135610c59816108e0565b915060c088013567ffffffffffffffff811115610c7557600080fd5b610c818a828b016109c5565b91505092959891949750929550565b8051610903816108e0565b600082601f830112610cac57600080fd5b8151610cba6109e48261099d565b818152846020838601011115610ccf57600080fd5b610ab3826020830160208701610abb565b600060208284031215610cf257600080fd5b815167ffffffffffffffff80821115610d0a57600080fd5b908301906101008286031215610d1f57600080fd5b610d27610942565b825181526020830151602082015260408301516040820152610d4b60608401610c90565b606082015260808301516080820152610d6660a08401610c90565b60a082015260c083015182811115610d7d57600080fd5b610d8987828601610c9b565b60c08301525060e083015182811115610da157600080fd5b610bdf87828601610c9b565b600181811c90821680610dc157607f821691505b602082108103610de157634e487b7160e01b600052602260045260246000fd5b5091905056fea2646970667358221220767ed6b0ac9064b8923d47b9b582f097011eec02b92a8570301906b8aea0a68d64736f6c63430008140033","linkReferences":{}},"methodIdentifiers":{"attest(bytes)":"430768ab","defaultAllocator()":"08fb8396","getAttestation(bytes32)":"a3112a64","getAttestationFromAddress(address)":"03975ea9","verify((bytes32,bytes32,bytes32,address,bytes32,address,bytes,bytes))":"756c6eed","verifyAllocatorSignature(bytes32,bytes32,address,bytes)":"1f97770c","verifyValidatorSignature(bytes32,bytes32,bytes32,address,bytes32,address,bytes)":"b4145446"},"id":23}