{
	"contracts/ERC1155Receiver.sol": {
		"CanReceiveERC1155": {
			"abi": [
				{
					"inputs": [
						{
							"internalType": "address",
							"name": "",
							"type": "address"
						},
						{
							"internalType": "address",
							"name": "",
							"type": "address"
						},
						{
							"internalType": "uint256[]",
							"name": "",
							"type": "uint256[]"
						},
						{
							"internalType": "uint256[]",
							"name": "",
							"type": "uint256[]"
						},
						{
							"internalType": "bytes",
							"name": "",
							"type": "bytes"
						}
					],
					"name": "onERC1155BatchReceived",
					"outputs": [
						{
							"internalType": "bytes4",
							"name": "",
							"type": "bytes4"
						}
					],
					"stateMutability": "pure",
					"type": "function"
				},
				{
					"inputs": [
						{
							"internalType": "address",
							"name": "",
							"type": "address"
						},
						{
							"internalType": "address",
							"name": "",
							"type": "address"
						},
						{
							"internalType": "uint256",
							"name": "",
							"type": "uint256"
						},
						{
							"internalType": "uint256",
							"name": "",
							"type": "uint256"
						},
						{
							"internalType": "bytes",
							"name": "",
							"type": "bytes"
						}
					],
					"name": "onERC1155Received",
					"outputs": [
						{
							"internalType": "bytes4",
							"name": "",
							"type": "bytes4"
						}
					],
					"stateMutability": "pure",
					"type": "function"
				}
			],
			"devdoc": {
				"kind": "dev",
				"methods": {},
				"version": 1
			},
			"evm": {
				"assembly": "    /* \"contracts/ERC1155Receiver.sol\":401:1012  contract CanReceiveERC1155 is IERC1155Receiver {... */\n  mstore(0x40, 0x80)\n  callvalue\n  dup1\n  iszero\n  tag_1\n  jumpi\n  0x00\n  dup1\n  revert\ntag_1:\n  pop\n  dataSize(sub_0)\n  dup1\n  dataOffset(sub_0)\n  0x00\n  codecopy\n  0x00\n  return\nstop\n\nsub_0: assembly {\n        /* \"contracts/ERC1155Receiver.sol\":401:1012  contract CanReceiveERC1155 is IERC1155Receiver {... */\n      mstore(0x40, 0x80)\n      callvalue\n      dup1\n      iszero\n      tag_1\n      jumpi\n      0x00\n      dup1\n      revert\n    tag_1:\n      pop\n      jumpi(tag_2, lt(calldatasize, 0x04))\n      shr(0xe0, calldataload(0x00))\n      dup1\n      0xbc197c81\n      eq\n      tag_3\n      jumpi\n      dup1\n      0xf23a6e61\n      eq\n      tag_4\n      jumpi\n    tag_2:\n      0x00\n      dup1\n      revert\n        /* \"contracts/ERC1155Receiver.sol\":722:1009  function onERC1155BatchReceived(address, address, uint256[] calldata, uint256[] calldata, bytes calldata) external pure override returns(bytes4) {... */\n    tag_3:\n      tag_5\n      0x04\n      dup1\n      calldatasize\n      sub\n      dup2\n      add\n      swap1\n      tag_6\n      swap2\n      swap1\n      tag_7\n      jump\t// in\n    tag_6:\n      tag_8\n      jump\t// in\n    tag_5:\n      mload(0x40)\n      tag_9\n      swap2\n      swap1\n      tag_10\n      jump\t// in\n    tag_9:\n      mload(0x40)\n      dup1\n      swap2\n      sub\n      swap1\n      return\n        /* \"contracts/ERC1155Receiver.sol\":455:710  function onERC1155Received(address, address, uint256, uint256, bytes calldata) external pure override returns(bytes4) {... */\n    tag_4:\n      tag_11\n      0x04\n      dup1\n      calldatasize\n      sub\n      dup2\n      add\n      swap1\n      tag_12\n      swap2\n      swap1\n      tag_13\n      jump\t// in\n    tag_12:\n      tag_14\n      jump\t// in\n    tag_11:\n      mload(0x40)\n      tag_15\n      swap2\n      swap1\n      tag_10\n      jump\t// in\n    tag_15:\n      mload(0x40)\n      dup1\n      swap2\n      sub\n      swap1\n      return\n        /* \"contracts/ERC1155Receiver.sol\":722:1009  function onERC1155BatchReceived(address, address, uint256[] calldata, uint256[] calldata, bytes calldata) external pure override returns(bytes4) {... */\n    tag_8:\n        /* \"contracts/ERC1155Receiver.sol\":859:865  bytes4 */\n      0x00\n        /* \"contracts/ERC1155Receiver.sol\":965:1001  this.onERC1155BatchReceived.selector */\n      shl(0xe0, 0xbc197c81)\n        /* \"contracts/ERC1155Receiver.sol\":958:1001  return this.onERC1155BatchReceived.selector */\n      swap1\n      pop\n        /* \"contracts/ERC1155Receiver.sol\":722:1009  function onERC1155BatchReceived(address, address, uint256[] calldata, uint256[] calldata, bytes calldata) external pure override returns(bytes4) {... */\n      swap9\n      swap8\n      pop\n      pop\n      pop\n      pop\n      pop\n      pop\n      pop\n      pop\n      jump\t// out\n        /* \"contracts/ERC1155Receiver.sol\":455:710  function onERC1155Received(address, address, uint256, uint256, bytes calldata) external pure override returns(bytes4) {... */\n    tag_14:\n        /* \"contracts/ERC1155Receiver.sol\":565:571  bytes4 */\n      0x00\n        /* \"contracts/ERC1155Receiver.sol\":671:702  this.onERC1155Received.selector */\n      shl(0xe0, 0xf23a6e61)\n        /* \"contracts/ERC1155Receiver.sol\":664:702  return this.onERC1155Received.selector */\n      swap1\n      pop\n        /* \"contracts/ERC1155Receiver.sol\":455:710  function onERC1155Received(address, address, uint256, uint256, bytes calldata) external pure override returns(bytes4) {... */\n      swap7\n      swap6\n      pop\n      pop\n      pop\n      pop\n      pop\n      pop\n      jump\t// out\n        /* \"#utility.yul\":88:205   */\n    tag_19:\n        /* \"#utility.yul\":197:198   */\n      0x00\n        /* \"#utility.yul\":194:195   */\n      dup1\n        /* \"#utility.yul\":187:199   */\n      revert\n        /* \"#utility.yul\":211:328   */\n    tag_20:\n        /* \"#utility.yul\":320:321   */\n      0x00\n        /* \"#utility.yul\":317:318   */\n      dup1\n        /* \"#utility.yul\":310:322   */\n      revert\n        /* \"#utility.yul\":334:460   */\n    tag_21:\n        /* \"#utility.yul\":371:378   */\n      0x00\n        /* \"#utility.yul\":411:453   */\n      0xffffffffffffffffffffffffffffffffffffffff\n        /* \"#utility.yul\":404:409   */\n      dup3\n        /* \"#utility.yul\":400:454   */\n      and\n        /* \"#utility.yul\":389:454   */\n      swap1\n      pop\n        /* \"#utility.yul\":334:460   */\n      swap2\n      swap1\n      pop\n      jump\t// out\n        /* \"#utility.yul\":466:562   */\n    tag_22:\n        /* \"#utility.yul\":503:510   */\n      0x00\n        /* \"#utility.yul\":532:556   */\n      tag_41\n        /* \"#utility.yul\":550:555   */\n      dup3\n        /* \"#utility.yul\":532:556   */\n      tag_21\n      jump\t// in\n    tag_41:\n        /* \"#utility.yul\":521:556   */\n      swap1\n      pop\n        /* \"#utility.yul\":466:562   */\n      swap2\n      swap1\n      pop\n      jump\t// out\n        /* \"#utility.yul\":568:690   */\n    tag_23:\n        /* \"#utility.yul\":641:665   */\n      tag_43\n        /* \"#utility.yul\":659:664   */\n      dup2\n        /* \"#utility.yul\":641:665   */\n      tag_22\n      jump\t// in\n    tag_43:\n        /* \"#utility.yul\":634:639   */\n      dup2\n        /* \"#utility.yul\":631:666   */\n      eq\n        /* \"#utility.yul\":621:684   */\n      tag_44\n      jumpi\n        /* \"#utility.yul\":680:681   */\n      0x00\n        /* \"#utility.yul\":677:678   */\n      dup1\n        /* \"#utility.yul\":670:682   */\n      revert\n        /* \"#utility.yul\":621:684   */\n    tag_44:\n        /* \"#utility.yul\":568:690   */\n      pop\n      jump\t// out\n        /* \"#utility.yul\":696:835   */\n    tag_24:\n        /* \"#utility.yul\":742:747   */\n      0x00\n        /* \"#utility.yul\":780:786   */\n      dup2\n        /* \"#utility.yul\":767:787   */\n      calldataload\n        /* \"#utility.yul\":758:787   */\n      swap1\n      pop\n        /* \"#utility.yul\":796:829   */\n      tag_46\n        /* \"#utility.yul\":823:828   */\n      dup2\n        /* \"#utility.yul\":796:829   */\n      tag_23\n      jump\t// in\n    tag_46:\n        /* \"#utility.yul\":696:835   */\n      swap3\n      swap2\n      pop\n      pop\n      jump\t// out\n        /* \"#utility.yul\":841:958   */\n    tag_25:\n        /* \"#utility.yul\":950:951   */\n      0x00\n        /* \"#utility.yul\":947:948   */\n      dup1\n        /* \"#utility.yul\":940:952   */\n      revert\n        /* \"#utility.yul\":964:1081   */\n    tag_26:\n        /* \"#utility.yul\":1073:1074   */\n      0x00\n        /* \"#utility.yul\":1070:1071   */\n      dup1\n        /* \"#utility.yul\":1063:1075   */\n      revert\n        /* \"#utility.yul\":1087:1204   */\n    tag_27:\n        /* \"#utility.yul\":1196:1197   */\n      0x00\n        /* \"#utility.yul\":1193:1194   */\n      dup1\n        /* \"#utility.yul\":1186:1198   */\n      revert\n        /* \"#utility.yul\":1227:1795   */\n    tag_28:\n        /* \"#utility.yul\":1300:1308   */\n      0x00\n        /* \"#utility.yul\":1310:1316   */\n      dup1\n        /* \"#utility.yul\":1360:1363   */\n      dup4\n        /* \"#utility.yul\":1353:1357   */\n      0x1f\n        /* \"#utility.yul\":1345:1351   */\n      dup5\n        /* \"#utility.yul\":1341:1358   */\n      add\n        /* \"#utility.yul\":1337:1364   */\n      slt\n        /* \"#utility.yul\":1327:1449   */\n      tag_51\n      jumpi\n        /* \"#utility.yul\":1368:1447   */\n      tag_52\n      tag_25\n      jump\t// in\n    tag_52:\n        /* \"#utility.yul\":1327:1449   */\n    tag_51:\n        /* \"#utility.yul\":1481:1487   */\n      dup3\n        /* \"#utility.yul\":1468:1488   */\n      calldataload\n        /* \"#utility.yul\":1458:1488   */\n      swap1\n      pop\n        /* \"#utility.yul\":1511:1529   */\n      0xffffffffffffffff\n        /* \"#utility.yul\":1503:1509   */\n      dup2\n        /* \"#utility.yul\":1500:1530   */\n      gt\n        /* \"#utility.yul\":1497:1614   */\n      iszero\n      tag_53\n      jumpi\n        /* \"#utility.yul\":1533:1612   */\n      tag_54\n      tag_26\n      jump\t// in\n    tag_54:\n        /* \"#utility.yul\":1497:1614   */\n    tag_53:\n        /* \"#utility.yul\":1647:1651   */\n      0x20\n        /* \"#utility.yul\":1639:1645   */\n      dup4\n        /* \"#utility.yul\":1635:1652   */\n      add\n        /* \"#utility.yul\":1623:1652   */\n      swap2\n      pop\n        /* \"#utility.yul\":1701:1704   */\n      dup4\n        /* \"#utility.yul\":1693:1697   */\n      0x20\n        /* \"#utility.yul\":1685:1691   */\n      dup3\n        /* \"#utility.yul\":1681:1698   */\n      mul\n        /* \"#utility.yul\":1671:1679   */\n      dup4\n        /* \"#utility.yul\":1667:1699   */\n      add\n        /* \"#utility.yul\":1664:1705   */\n      gt\n        /* \"#utility.yul\":1661:1789   */\n      iszero\n      tag_55\n      jumpi\n        /* \"#utility.yul\":1708:1787   */\n      tag_56\n      tag_27\n      jump\t// in\n    tag_56:\n        /* \"#utility.yul\":1661:1789   */\n    tag_55:\n        /* \"#utility.yul\":1227:1795   */\n      swap3\n      pop\n      swap3\n      swap1\n      pop\n      jump\t// out\n        /* \"#utility.yul\":1814:2366   */\n    tag_29:\n        /* \"#utility.yul\":1871:1879   */\n      0x00\n        /* \"#utility.yul\":1881:1887   */\n      dup1\n        /* \"#utility.yul\":1931:1934   */\n      dup4\n        /* \"#utility.yul\":1924:1928   */\n      0x1f\n        /* \"#utility.yul\":1916:1922   */\n      dup5\n        /* \"#utility.yul\":1912:1929   */\n      add\n        /* \"#utility.yul\":1908:1935   */\n      slt\n        /* \"#utility.yul\":1898:2020   */\n      tag_58\n      jumpi\n        /* \"#utility.yul\":1939:2018   */\n      tag_59\n      tag_25\n      jump\t// in\n    tag_59:\n        /* \"#utility.yul\":1898:2020   */\n    tag_58:\n        /* \"#utility.yul\":2052:2058   */\n      dup3\n        /* \"#utility.yul\":2039:2059   */\n      calldataload\n        /* \"#utility.yul\":2029:2059   */\n      swap1\n      pop\n        /* \"#utility.yul\":2082:2100   */\n      0xffffffffffffffff\n        /* \"#utility.yul\":2074:2080   */\n      dup2\n        /* \"#utility.yul\":2071:2101   */\n      gt\n        /* \"#utility.yul\":2068:2185   */\n      iszero\n      tag_60\n      jumpi\n        /* \"#utility.yul\":2104:2183   */\n      tag_61\n      tag_26\n      jump\t// in\n    tag_61:\n        /* \"#utility.yul\":2068:2185   */\n    tag_60:\n        /* \"#utility.yul\":2218:2222   */\n      0x20\n        /* \"#utility.yul\":2210:2216   */\n      dup4\n        /* \"#utility.yul\":2206:2223   */\n      add\n        /* \"#utility.yul\":2194:2223   */\n      swap2\n      pop\n        /* \"#utility.yul\":2272:2275   */\n      dup4\n        /* \"#utility.yul\":2264:2268   */\n      0x01\n        /* \"#utility.yul\":2256:2262   */\n      dup3\n        /* \"#utility.yul\":2252:2269   */\n      mul\n        /* \"#utility.yul\":2242:2250   */\n      dup4\n        /* \"#utility.yul\":2238:2270   */\n      add\n        /* \"#utility.yul\":2235:2276   */\n      gt\n        /* \"#utility.yul\":2232:2360   */\n      iszero\n      tag_62\n      jumpi\n        /* \"#utility.yul\":2279:2358   */\n      tag_63\n      tag_27\n      jump\t// in\n    tag_63:\n        /* \"#utility.yul\":2232:2360   */\n    tag_62:\n        /* \"#utility.yul\":1814:2366   */\n      swap3\n      pop\n      swap3\n      swap1\n      pop\n      jump\t// out\n        /* \"#utility.yul\":2372:3941   */\n    tag_7:\n        /* \"#utility.yul\":2532:2538   */\n      0x00\n        /* \"#utility.yul\":2540:2546   */\n      dup1\n        /* \"#utility.yul\":2548:2554   */\n      0x00\n        /* \"#utility.yul\":2556:2562   */\n      dup1\n        /* \"#utility.yul\":2564:2570   */\n      0x00\n        /* \"#utility.yul\":2572:2578   */\n      dup1\n        /* \"#utility.yul\":2580:2586   */\n      0x00\n        /* \"#utility.yul\":2588:2594   */\n      dup1\n        /* \"#utility.yul\":2637:2640   */\n      0xa0\n        /* \"#utility.yul\":2625:2634   */\n      dup10\n        /* \"#utility.yul\":2616:2623   */\n      dup12\n        /* \"#utility.yul\":2612:2635   */\n      sub\n        /* \"#utility.yul\":2608:2641   */\n      slt\n        /* \"#utility.yul\":2605:2725   */\n      iszero\n      tag_65\n      jumpi\n        /* \"#utility.yul\":2644:2723   */\n      tag_66\n      tag_19\n      jump\t// in\n    tag_66:\n        /* \"#utility.yul\":2605:2725   */\n    tag_65:\n        /* \"#utility.yul\":2764:2765   */\n      0x00\n        /* \"#utility.yul\":2789:2842   */\n      tag_67\n        /* \"#utility.yul\":2834:2841   */\n      dup12\n        /* \"#utility.yul\":2825:2831   */\n      dup3\n        /* \"#utility.yul\":2814:2823   */\n      dup13\n        /* \"#utility.yul\":2810:2832   */\n      add\n        /* \"#utility.yul\":2789:2842   */\n      tag_24\n      jump\t// in\n    tag_67:\n        /* \"#utility.yul\":2779:2842   */\n      swap9\n      pop\n        /* \"#utility.yul\":2735:2852   */\n      pop\n        /* \"#utility.yul\":2891:2893   */\n      0x20\n        /* \"#utility.yul\":2917:2970   */\n      tag_68\n        /* \"#utility.yul\":2962:2969   */\n      dup12\n        /* \"#utility.yul\":2953:2959   */\n      dup3\n        /* \"#utility.yul\":2942:2951   */\n      dup13\n        /* \"#utility.yul\":2938:2960   */\n      add\n        /* \"#utility.yul\":2917:2970   */\n      tag_24\n      jump\t// in\n    tag_68:\n        /* \"#utility.yul\":2907:2970   */\n      swap8\n      pop\n        /* \"#utility.yul\":2862:2980   */\n      pop\n        /* \"#utility.yul\":3047:3049   */\n      0x40\n        /* \"#utility.yul\":3036:3045   */\n      dup10\n        /* \"#utility.yul\":3032:3050   */\n      add\n        /* \"#utility.yul\":3019:3051   */\n      calldataload\n        /* \"#utility.yul\":3078:3096   */\n      0xffffffffffffffff\n        /* \"#utility.yul\":3070:3076   */\n      dup2\n        /* \"#utility.yul\":3067:3097   */\n      gt\n        /* \"#utility.yul\":3064:3181   */\n      iszero\n      tag_69\n      jumpi\n        /* \"#utility.yul\":3100:3179   */\n      tag_70\n      tag_20\n      jump\t// in\n    tag_70:\n        /* \"#utility.yul\":3064:3181   */\n    tag_69:\n        /* \"#utility.yul\":3213:3293   */\n      tag_71\n        /* \"#utility.yul\":3285:3292   */\n      dup12\n        /* \"#utility.yul\":3276:3282   */\n      dup3\n        /* \"#utility.yul\":3265:3274   */\n      dup13\n        /* \"#utility.yul\":3261:3283   */\n      add\n        /* \"#utility.yul\":3213:3293   */\n      tag_28\n      jump\t// in\n    tag_71:\n        /* \"#utility.yul\":3195:3293   */\n      swap7\n      pop\n      swap7\n      pop\n        /* \"#utility.yul\":2990:3303   */\n      pop\n        /* \"#utility.yul\":3370:3372   */\n      0x60\n        /* \"#utility.yul\":3359:3368   */\n      dup10\n        /* \"#utility.yul\":3355:3373   */\n      add\n        /* \"#utility.yul\":3342:3374   */\n      calldataload\n        /* \"#utility.yul\":3401:3419   */\n      0xffffffffffffffff\n        /* \"#utility.yul\":3393:3399   */\n      dup2\n        /* \"#utility.yul\":3390:3420   */\n      gt\n        /* \"#utility.yul\":3387:3504   */\n      iszero\n      tag_72\n      jumpi\n        /* \"#utility.yul\":3423:3502   */\n      tag_73\n      tag_20\n      jump\t// in\n    tag_73:\n        /* \"#utility.yul\":3387:3504   */\n    tag_72:\n        /* \"#utility.yul\":3536:3616   */\n      tag_74\n        /* \"#utility.yul\":3608:3615   */\n      dup12\n        /* \"#utility.yul\":3599:3605   */\n      dup3\n        /* \"#utility.yul\":3588:3597   */\n      dup13\n        /* \"#utility.yul\":3584:3606   */\n      add\n        /* \"#utility.yul\":3536:3616   */\n      tag_28\n      jump\t// in\n    tag_74:\n        /* \"#utility.yul\":3518:3616   */\n      swap5\n      pop\n      swap5\n      pop\n        /* \"#utility.yul\":3313:3626   */\n      pop\n        /* \"#utility.yul\":3693:3696   */\n      0x80\n        /* \"#utility.yul\":3682:3691   */\n      dup10\n        /* \"#utility.yul\":3678:3697   */\n      add\n        /* \"#utility.yul\":3665:3698   */\n      calldataload\n        /* \"#utility.yul\":3725:3743   */\n      0xffffffffffffffff\n        /* \"#utility.yul\":3717:3723   */\n      dup2\n        /* \"#utility.yul\":3714:3744   */\n      gt\n        /* \"#utility.yul\":3711:3828   */\n      iszero\n      tag_75\n      jumpi\n        /* \"#utility.yul\":3747:3826   */\n      tag_76\n      tag_20\n      jump\t// in\n    tag_76:\n        /* \"#utility.yul\":3711:3828   */\n    tag_75:\n        /* \"#utility.yul\":3860:3924   */\n      tag_77\n        /* \"#utility.yul\":3916:3923   */\n      dup12\n        /* \"#utility.yul\":3907:3913   */\n      dup3\n        /* \"#utility.yul\":3896:3905   */\n      dup13\n        /* \"#utility.yul\":3892:3914   */\n      add\n        /* \"#utility.yul\":3860:3924   */\n      tag_29\n      jump\t// in\n    tag_77:\n        /* \"#utility.yul\":3842:3924   */\n      swap3\n      pop\n      swap3\n      pop\n        /* \"#utility.yul\":3636:3934   */\n      pop\n        /* \"#utility.yul\":2372:3941   */\n      swap3\n      swap6\n      swap9\n      pop\n      swap3\n      swap6\n      swap9\n      swap1\n      swap4\n      swap7\n      pop\n      jump\t// out\n        /* \"#utility.yul\":3947:4096   */\n    tag_30:\n        /* \"#utility.yul\":3983:3990   */\n      0x00\n        /* \"#utility.yul\":4023:4089   */\n      0xffffffff00000000000000000000000000000000000000000000000000000000\n        /* \"#utility.yul\":4016:4021   */\n      dup3\n        /* \"#utility.yul\":4012:4090   */\n      and\n        /* \"#utility.yul\":4001:4090   */\n      swap1\n      pop\n        /* \"#utility.yul\":3947:4096   */\n      swap2\n      swap1\n      pop\n      jump\t// out\n        /* \"#utility.yul\":4102:4217   */\n    tag_31:\n        /* \"#utility.yul\":4187:4210   */\n      tag_80\n        /* \"#utility.yul\":4204:4209   */\n      dup2\n        /* \"#utility.yul\":4187:4210   */\n      tag_30\n      jump\t// in\n    tag_80:\n        /* \"#utility.yul\":4182:4185   */\n      dup3\n        /* \"#utility.yul\":4175:4211   */\n      mstore\n        /* \"#utility.yul\":4102:4217   */\n      pop\n      pop\n      jump\t// out\n        /* \"#utility.yul\":4223:4441   */\n    tag_10:\n        /* \"#utility.yul\":4314:4318   */\n      0x00\n        /* \"#utility.yul\":4352:4354   */\n      0x20\n        /* \"#utility.yul\":4341:4350   */\n      dup3\n        /* \"#utility.yul\":4337:4355   */\n      add\n        /* \"#utility.yul\":4329:4355   */\n      swap1\n      pop\n        /* \"#utility.yul\":4365:4434   */\n      tag_82\n        /* \"#utility.yul\":4431:4432   */\n      0x00\n        /* \"#utility.yul\":4420:4429   */\n      dup4\n        /* \"#utility.yul\":4416:4433   */\n      add\n        /* \"#utility.yul\":4407:4413   */\n      dup5\n        /* \"#utility.yul\":4365:4434   */\n      tag_31\n      jump\t// in\n    tag_82:\n        /* \"#utility.yul\":4223:4441   */\n      swap3\n      swap2\n      pop\n      pop\n      jump\t// out\n        /* \"#utility.yul\":4447:4524   */\n    tag_32:\n        /* \"#utility.yul\":4484:4491   */\n      0x00\n        /* \"#utility.yul\":4513:4518   */\n      dup2\n        /* \"#utility.yul\":4502:4518   */\n      swap1\n      pop\n        /* \"#utility.yul\":4447:4524   */\n      swap2\n      swap1\n      pop\n      jump\t// out\n        /* \"#utility.yul\":4530:4652   */\n    tag_33:\n        /* \"#utility.yul\":4603:4627   */\n      tag_85\n        /* \"#utility.yul\":4621:4626   */\n      dup2\n        /* \"#utility.yul\":4603:4627   */\n      tag_32\n      jump\t// in\n    tag_85:\n        /* \"#utility.yul\":4596:4601   */\n      dup2\n        /* \"#utility.yul\":4593:4628   */\n      eq\n        /* \"#utility.yul\":4583:4646   */\n      tag_86\n      jumpi\n        /* \"#utility.yul\":4642:4643   */\n      0x00\n        /* \"#utility.yul\":4639:4640   */\n      dup1\n        /* \"#utility.yul\":4632:4644   */\n      revert\n        /* \"#utility.yul\":4583:4646   */\n    tag_86:\n        /* \"#utility.yul\":4530:4652   */\n      pop\n      jump\t// out\n        /* \"#utility.yul\":4658:4797   */\n    tag_34:\n        /* \"#utility.yul\":4704:4709   */\n      0x00\n        /* \"#utility.yul\":4742:4748   */\n      dup2\n        /* \"#utility.yul\":4729:4749   */\n      calldataload\n        /* \"#utility.yul\":4720:4749   */\n      swap1\n      pop\n        /* \"#utility.yul\":4758:4791   */\n      tag_88\n        /* \"#utility.yul\":4785:4790   */\n      dup2\n        /* \"#utility.yul\":4758:4791   */\n      tag_33\n      jump\t// in\n    tag_88:\n        /* \"#utility.yul\":4658:4797   */\n      swap3\n      swap2\n      pop\n      pop\n      jump\t// out\n        /* \"#utility.yul\":4803:5912   */\n    tag_13:\n        /* \"#utility.yul\":4909:4915   */\n      0x00\n        /* \"#utility.yul\":4917:4923   */\n      dup1\n        /* \"#utility.yul\":4925:4931   */\n      0x00\n        /* \"#utility.yul\":4933:4939   */\n      dup1\n        /* \"#utility.yul\":4941:4947   */\n      0x00\n        /* \"#utility.yul\":4949:4955   */\n      dup1\n        /* \"#utility.yul\":4998:5001   */\n      0xa0\n        /* \"#utility.yul\":4986:4995   */\n      dup8\n        /* \"#utility.yul\":4977:4984   */\n      dup10\n        /* \"#utility.yul\":4973:4996   */\n      sub\n        /* \"#utility.yul\":4969:5002   */\n      slt\n        /* \"#utility.yul\":4966:5086   */\n      iszero\n      tag_90\n      jumpi\n        /* \"#utility.yul\":5005:5084   */\n      tag_91\n      tag_19\n      jump\t// in\n    tag_91:\n        /* \"#utility.yul\":4966:5086   */\n    tag_90:\n        /* \"#utility.yul\":5125:5126   */\n      0x00\n        /* \"#utility.yul\":5150:5203   */\n      tag_92\n        /* \"#utility.yul\":5195:5202   */\n      dup10\n        /* \"#utility.yul\":5186:5192   */\n      dup3\n        /* \"#utility.yul\":5175:5184   */\n      dup11\n        /* \"#utility.yul\":5171:5193   */\n      add\n        /* \"#utility.yul\":5150:5203   */\n      tag_24\n      jump\t// in\n    tag_92:\n        /* \"#utility.yul\":5140:5203   */\n      swap7\n      pop\n        /* \"#utility.yul\":5096:5213   */\n      pop\n        /* \"#utility.yul\":5252:5254   */\n      0x20\n        /* \"#utility.yul\":5278:5331   */\n      tag_93\n        /* \"#utility.yul\":5323:5330   */\n      dup10\n        /* \"#utility.yul\":5314:5320   */\n      dup3\n        /* \"#utility.yul\":5303:5312   */\n      dup11\n        /* \"#utility.yul\":5299:5321   */\n      add\n        /* \"#utility.yul\":5278:5331   */\n      tag_24\n      jump\t// in\n    tag_93:\n        /* \"#utility.yul\":5268:5331   */\n      swap6\n      pop\n        /* \"#utility.yul\":5223:5341   */\n      pop\n        /* \"#utility.yul\":5380:5382   */\n      0x40\n        /* \"#utility.yul\":5406:5459   */\n      tag_94\n        /* \"#utility.yul\":5451:5458   */\n      dup10\n        /* \"#utility.yul\":5442:5448   */\n      dup3\n        /* \"#utility.yul\":5431:5440   */\n      dup11\n        /* \"#utility.yul\":5427:5449   */\n      add\n        /* \"#utility.yul\":5406:5459   */\n      tag_34\n      jump\t// in\n    tag_94:\n        /* \"#utility.yul\":5396:5459   */\n      swap5\n      pop\n        /* \"#utility.yul\":5351:5469   */\n      pop\n        /* \"#utility.yul\":5508:5510   */\n      0x60\n        /* \"#utility.yul\":5534:5587   */\n      tag_95\n        /* \"#utility.yul\":5579:5586   */\n      dup10\n        /* \"#utility.yul\":5570:5576   */\n      dup3\n        /* \"#utility.yul\":5559:5568   */\n      dup11\n        /* \"#utility.yul\":5555:5577   */\n      add\n        /* \"#utility.yul\":5534:5587   */\n      tag_34\n      jump\t// in\n    tag_95:\n        /* \"#utility.yul\":5524:5587   */\n      swap4\n      pop\n        /* \"#utility.yul\":5479:5597   */\n      pop\n        /* \"#utility.yul\":5664:5667   */\n      0x80\n        /* \"#utility.yul\":5653:5662   */\n      dup8\n        /* \"#utility.yul\":5649:5668   */\n      add\n        /* \"#utility.yul\":5636:5669   */\n      calldataload\n        /* \"#utility.yul\":5696:5714   */\n      0xffffffffffffffff\n        /* \"#utility.yul\":5688:5694   */\n      dup2\n        /* \"#utility.yul\":5685:5715   */\n      gt\n        /* \"#utility.yul\":5682:5799   */\n      iszero\n      tag_96\n      jumpi\n        /* \"#utility.yul\":5718:5797   */\n      tag_97\n      tag_20\n      jump\t// in\n    tag_97:\n        /* \"#utility.yul\":5682:5799   */\n    tag_96:\n        /* \"#utility.yul\":5831:5895   */\n      tag_98\n        /* \"#utility.yul\":5887:5894   */\n      dup10\n        /* \"#utility.yul\":5878:5884   */\n      dup3\n        /* \"#utility.yul\":5867:5876   */\n      dup11\n        /* \"#utility.yul\":5863:5885   */\n      add\n        /* \"#utility.yul\":5831:5895   */\n      tag_29\n      jump\t// in\n    tag_98:\n        /* \"#utility.yul\":5813:5895   */\n      swap3\n      pop\n      swap3\n      pop\n        /* \"#utility.yul\":5607:5905   */\n      pop\n        /* \"#utility.yul\":4803:5912   */\n      swap3\n      swap6\n      pop\n      swap3\n      swap6\n      pop\n      swap3\n      swap6\n      jump\t// out\n\n    auxdata: 0xa2646970667358221220e248a63c7ff574e88b34c882220776bccc395e765b09b456ed0edad9a991ccdf64736f6c63430008160033\n}\n",
				"bytecode": {
					"linkReferences": {},
					"object": "608060405234801561000f575f80fd5b506104058061001d5f395ff3fe608060405234801561000f575f80fd5b5060043610610034575f3560e01c8063bc197c8114610038578063f23a6e6114610068575b5f80fd5b610052600480360381019061004d91906101dc565b610098565b60405161005f91906102ed565b60405180910390f35b610082600480360381019061007d9190610339565b6100af565b60405161008f91906102ed565b60405180910390f35b5f63bc197c8160e01b905098975050505050505050565b5f63f23a6e6160e01b90509695505050505050565b5f80fd5b5f80fd5b5f73ffffffffffffffffffffffffffffffffffffffff82169050919050565b5f6100f5826100cc565b9050919050565b610105816100eb565b811461010f575f80fd5b50565b5f81359050610120816100fc565b92915050565b5f80fd5b5f80fd5b5f80fd5b5f8083601f84011261014757610146610126565b5b8235905067ffffffffffffffff8111156101645761016361012a565b5b6020830191508360208202830111156101805761017f61012e565b5b9250929050565b5f8083601f84011261019c5761019b610126565b5b8235905067ffffffffffffffff8111156101b9576101b861012a565b5b6020830191508360018202830111156101d5576101d461012e565b5b9250929050565b5f805f805f805f8060a0898b0312156101f8576101f76100c4565b5b5f6102058b828c01610112565b98505060206102168b828c01610112565b975050604089013567ffffffffffffffff811115610237576102366100c8565b5b6102438b828c01610132565b9650965050606089013567ffffffffffffffff811115610266576102656100c8565b5b6102728b828c01610132565b9450945050608089013567ffffffffffffffff811115610295576102946100c8565b5b6102a18b828c01610187565b92509250509295985092959890939650565b5f7fffffffff0000000000000000000000000000000000000000000000000000000082169050919050565b6102e7816102b3565b82525050565b5f6020820190506103005f8301846102de565b92915050565b5f819050919050565b61031881610306565b8114610322575f80fd5b50565b5f813590506103338161030f565b92915050565b5f805f805f8060a08789031215610353576103526100c4565b5b5f61036089828a01610112565b965050602061037189828a01610112565b955050604061038289828a01610325565b945050606061039389828a01610325565b935050608087013567ffffffffffffffff8111156103b4576103b36100c8565b5b6103c089828a01610187565b9250925050929550929550929556fea2646970667358221220e248a63c7ff574e88b34c882220776bccc395e765b09b456ed0edad9a991ccdf64736f6c63430008160033",
					"opcodes": "PUSH1 0x80 PUSH1 0x40 MSTORE CALLVALUE DUP1 ISZERO PUSH2 0xF JUMPI PUSH0 DUP1 REVERT JUMPDEST POP PUSH2 0x405 DUP1 PUSH2 0x1D PUSH0 CODECOPY PUSH0 RETURN INVALID PUSH1 0x80 PUSH1 0x40 MSTORE CALLVALUE DUP1 ISZERO PUSH2 0xF JUMPI PUSH0 DUP1 REVERT JUMPDEST POP PUSH1 0x4 CALLDATASIZE LT PUSH2 0x34 JUMPI PUSH0 CALLDATALOAD PUSH1 0xE0 SHR DUP1 PUSH4 0xBC197C81 EQ PUSH2 0x38 JUMPI DUP1 PUSH4 0xF23A6E61 EQ PUSH2 0x68 JUMPI JUMPDEST PUSH0 DUP1 REVERT JUMPDEST PUSH2 0x52 PUSH1 0x4 DUP1 CALLDATASIZE SUB DUP2 ADD SWAP1 PUSH2 0x4D SWAP2 SWAP1 PUSH2 0x1DC JUMP JUMPDEST PUSH2 0x98 JUMP JUMPDEST PUSH1 0x40 MLOAD PUSH2 0x5F SWAP2 SWAP1 PUSH2 0x2ED JUMP JUMPDEST PUSH1 0x40 MLOAD DUP1 SWAP2 SUB SWAP1 RETURN JUMPDEST PUSH2 0x82 PUSH1 0x4 DUP1 CALLDATASIZE SUB DUP2 ADD SWAP1 PUSH2 0x7D SWAP2 SWAP1 PUSH2 0x339 JUMP JUMPDEST PUSH2 0xAF JUMP JUMPDEST PUSH1 0x40 MLOAD PUSH2 0x8F SWAP2 SWAP1 PUSH2 0x2ED JUMP JUMPDEST PUSH1 0x40 MLOAD DUP1 SWAP2 SUB SWAP1 RETURN JUMPDEST PUSH0 PUSH4 0xBC197C81 PUSH1 0xE0 SHL SWAP1 POP SWAP9 SWAP8 POP POP POP POP POP POP POP POP JUMP JUMPDEST PUSH0 PUSH4 0xF23A6E61 PUSH1 0xE0 SHL SWAP1 POP SWAP7 SWAP6 POP POP POP POP POP POP JUMP JUMPDEST PUSH0 DUP1 REVERT JUMPDEST PUSH0 DUP1 REVERT JUMPDEST PUSH0 PUSH20 0xFFFFFFFFFFFFFFFFFFFFFFFFFFFFFFFFFFFFFFFF DUP3 AND SWAP1 POP SWAP2 SWAP1 POP JUMP JUMPDEST PUSH0 PUSH2 0xF5 DUP3 PUSH2 0xCC JUMP JUMPDEST SWAP1 POP SWAP2 SWAP1 POP JUMP JUMPDEST PUSH2 0x105 DUP2 PUSH2 0xEB JUMP JUMPDEST DUP2 EQ PUSH2 0x10F JUMPI PUSH0 DUP1 REVERT JUMPDEST POP JUMP JUMPDEST PUSH0 DUP2 CALLDATALOAD SWAP1 POP PUSH2 0x120 DUP2 PUSH2 0xFC JUMP JUMPDEST SWAP3 SWAP2 POP POP JUMP JUMPDEST PUSH0 DUP1 REVERT JUMPDEST PUSH0 DUP1 REVERT JUMPDEST PUSH0 DUP1 REVERT JUMPDEST PUSH0 DUP1 DUP4 PUSH1 0x1F DUP5 ADD SLT PUSH2 0x147 JUMPI PUSH2 0x146 PUSH2 0x126 JUMP JUMPDEST JUMPDEST DUP3 CALLDATALOAD SWAP1 POP PUSH8 0xFFFFFFFFFFFFFFFF DUP2 GT ISZERO PUSH2 0x164 JUMPI PUSH2 0x163 PUSH2 0x12A JUMP JUMPDEST JUMPDEST PUSH1 0x20 DUP4 ADD SWAP2 POP DUP4 PUSH1 0x20 DUP3 MUL DUP4 ADD GT ISZERO PUSH2 0x180 JUMPI PUSH2 0x17F PUSH2 0x12E JUMP JUMPDEST JUMPDEST SWAP3 POP SWAP3 SWAP1 POP JUMP JUMPDEST PUSH0 DUP1 DUP4 PUSH1 0x1F DUP5 ADD SLT PUSH2 0x19C JUMPI PUSH2 0x19B PUSH2 0x126 JUMP JUMPDEST JUMPDEST DUP3 CALLDATALOAD SWAP1 POP PUSH8 0xFFFFFFFFFFFFFFFF DUP2 GT ISZERO PUSH2 0x1B9 JUMPI PUSH2 0x1B8 PUSH2 0x12A JUMP JUMPDEST JUMPDEST PUSH1 0x20 DUP4 ADD SWAP2 POP DUP4 PUSH1 0x1 DUP3 MUL DUP4 ADD GT ISZERO PUSH2 0x1D5 JUMPI PUSH2 0x1D4 PUSH2 0x12E JUMP JUMPDEST JUMPDEST SWAP3 POP SWAP3 SWAP1 POP JUMP JUMPDEST PUSH0 DUP1 PUSH0 DUP1 PUSH0 DUP1 PUSH0 DUP1 PUSH1 0xA0 DUP10 DUP12 SUB SLT ISZERO PUSH2 0x1F8 JUMPI PUSH2 0x1F7 PUSH2 0xC4 JUMP JUMPDEST JUMPDEST PUSH0 PUSH2 0x205 DUP12 DUP3 DUP13 ADD PUSH2 0x112 JUMP JUMPDEST SWAP9 POP POP PUSH1 0x20 PUSH2 0x216 DUP12 DUP3 DUP13 ADD PUSH2 0x112 JUMP JUMPDEST SWAP8 POP POP PUSH1 0x40 DUP10 ADD CALLDATALOAD PUSH8 0xFFFFFFFFFFFFFFFF DUP2 GT ISZERO PUSH2 0x237 JUMPI PUSH2 0x236 PUSH2 0xC8 JUMP JUMPDEST JUMPDEST PUSH2 0x243 DUP12 DUP3 DUP13 ADD PUSH2 0x132 JUMP JUMPDEST SWAP7 POP SWAP7 POP POP PUSH1 0x60 DUP10 ADD CALLDATALOAD PUSH8 0xFFFFFFFFFFFFFFFF DUP2 GT ISZERO PUSH2 0x266 JUMPI PUSH2 0x265 PUSH2 0xC8 JUMP JUMPDEST JUMPDEST PUSH2 0x272 DUP12 DUP3 DUP13 ADD PUSH2 0x132 JUMP JUMPDEST SWAP5 POP SWAP5 POP POP PUSH1 0x80 DUP10 ADD CALLDATALOAD PUSH8 0xFFFFFFFFFFFFFFFF DUP2 GT ISZERO PUSH2 0x295 JUMPI PUSH2 0x294 PUSH2 0xC8 JUMP JUMPDEST JUMPDEST PUSH2 0x2A1 DUP12 DUP3 DUP13 ADD PUSH2 0x187 JUMP JUMPDEST SWAP3 POP SWAP3 POP POP SWAP3 SWAP6 SWAP9 POP SWAP3 SWAP6 SWAP9 SWAP1 SWAP4 SWAP7 POP JUMP JUMPDEST PUSH0 PUSH32 0xFFFFFFFF00000000000000000000000000000000000000000000000000000000 DUP3 AND SWAP1 POP SWAP2 SWAP1 POP JUMP JUMPDEST PUSH2 0x2E7 DUP2 PUSH2 0x2B3 JUMP JUMPDEST DUP3 MSTORE POP POP JUMP JUMPDEST PUSH0 PUSH1 0x20 DUP3 ADD SWAP1 POP PUSH2 0x300 PUSH0 DUP4 ADD DUP5 PUSH2 0x2DE JUMP JUMPDEST SWAP3 SWAP2 POP POP JUMP JUMPDEST PUSH0 DUP2 SWAP1 POP SWAP2 SWAP1 POP JUMP JUMPDEST PUSH2 0x318 DUP2 PUSH2 0x306 JUMP JUMPDEST DUP2 EQ PUSH2 0x322 JUMPI PUSH0 DUP1 REVERT JUMPDEST POP JUMP JUMPDEST PUSH0 DUP2 CALLDATALOAD SWAP1 POP PUSH2 0x333 DUP2 PUSH2 0x30F JUMP JUMPDEST SWAP3 SWAP2 POP POP JUMP JUMPDEST PUSH0 DUP1 PUSH0 DUP1 PUSH0 DUP1 PUSH1 0xA0 DUP8 DUP10 SUB SLT ISZERO PUSH2 0x353 JUMPI PUSH2 0x352 PUSH2 0xC4 JUMP JUMPDEST JUMPDEST PUSH0 PUSH2 0x360 DUP10 DUP3 DUP11 ADD PUSH2 0x112 JUMP JUMPDEST SWAP7 POP POP PUSH1 0x20 PUSH2 0x371 DUP10 DUP3 DUP11 ADD PUSH2 0x112 JUMP JUMPDEST SWAP6 POP POP PUSH1 0x40 PUSH2 0x382 DUP10 DUP3 DUP11 ADD PUSH2 0x325 JUMP JUMPDEST SWAP5 POP POP PUSH1 0x60 PUSH2 0x393 DUP10 DUP3 DUP11 ADD PUSH2 0x325 JUMP JUMPDEST SWAP4 POP POP PUSH1 0x80 DUP8 ADD CALLDATALOAD PUSH8 0xFFFFFFFFFFFFFFFF DUP2 GT ISZERO PUSH2 0x3B4 JUMPI PUSH2 0x3B3 PUSH2 0xC8 JUMP JUMPDEST JUMPDEST PUSH2 0x3C0 DUP10 DUP3 DUP11 ADD PUSH2 0x187 JUMP JUMPDEST SWAP3 POP SWAP3 POP POP SWAP3 SWAP6 POP SWAP3 SWAP6 POP SWAP3 SWAP6 JUMP INVALID LOG2 PUSH5 0x6970667358 0x22 SLT KECCAK256 0xE2 BASEFEE 0xA6 EXTCODECOPY PUSH32 0xF574E88B34C882220776BCCC395E765B09B456ED0EDAD9A991CCDF64736F6C63 NUMBER STOP ADDMOD AND STOP CALLER "
				},
				"gasEstimates": {
					"creation": {
						"codeDepositCost": "205800",
						"executionCost": "249",
						"totalCost": "206049"
					},
					"external": {
						"onERC1155BatchReceived(address,address,uint256[],uint256[],bytes)": "infinite",
						"onERC1155Received(address,address,uint256,uint256,bytes)": "infinite"
					}
				},
				"methodIdentifiers": {
					"onERC1155BatchReceived(address,address,uint256[],uint256[],bytes)": "bc197c81",
					"onERC1155Received(address,address,uint256,uint256,bytes)": "f23a6e61"
				}
			},
			"storageLayout": {
				"storage": [],
				"types": null
			},
			"userdoc": {
				"kind": "user",
				"methods": {},
				"version": 1
			}
		}
	}
}