{
	"data": {
		"bytecode": {
			"linkReferences": {},
			"object": "608060405234801562000010575f80fd5b5060405180606001604052806025815260200162002f1a602591396200003c816200005760201b60201c565b50620000515f801b336200006c60201b60201c565b6200067a565b80600290816200006891906200050e565b5050565b6200007d82620000a660201b60201c565b6200008e81620000c360201b60201c565b620000a08383620000e760201b60201c565b50505050565b5f60035f8381526020019081526020015f20600101549050919050565b620000e481620000d8620001e360201b60201c565b620001ea60201b60201c565b50565b5f620000fa83836200024660201b60201c565b620001d957600160035f8581526020019081526020015f205f015f8473ffffffffffffffffffffffffffffffffffffffff1673ffffffffffffffffffffffffffffffffffffffff1681526020019081526020015f205f6101000a81548160ff02191690831515021790555062000175620001e360201b60201c565b73ffffffffffffffffffffffffffffffffffffffff168273ffffffffffffffffffffffffffffffffffffffff16847f2f8788117e7eff1d82e926ec794901d17c78024a50270940304540a733656f0d60405160405180910390a460019050620001dd565b5f90505b92915050565b5f33905090565b620001fc82826200024660201b60201c565b620002425780826040517fe2517d3f000000000000000000000000000000000000000000000000000000008152600401620002399291906200064f565b60405180910390fd5b5050565b5f60035f8481526020019081526020015f205f015f8373ffffffffffffffffffffffffffffffffffffffff1673ffffffffffffffffffffffffffffffffffffffff1681526020019081526020015f205f9054906101000a900460ff16905092915050565b5f81519050919050565b7f4e487b71000000000000000000000000000000000000000000000000000000005f52604160045260245ffd5b7f4e487b71000000000000000000000000000000000000000000000000000000005f52602260045260245ffd5b5f60028204905060018216806200032657607f821691505b6020821081036200033c576200033b620002e1565b5b50919050565b5f819050815f5260205f209050919050565b5f6020601f8301049050919050565b5f82821b905092915050565b5f60088302620003a07fffffffffffffffffffffffffffffffffffffffffffffffffffffffffffffffff8262000363565b620003ac868362000363565b95508019841693508086168417925050509392505050565b5f819050919050565b5f819050919050565b5f620003f6620003f0620003ea84620003c4565b620003cd565b620003c4565b9050919050565b5f819050919050565b6200041183620003d6565b620004296200042082620003fd565b8484546200036f565b825550505050565b5f90565b6200043f62000431565b6200044c81848462000406565b505050565b5b818110156200047357620004675f8262000435565b60018101905062000452565b5050565b601f821115620004c2576200048c8162000342565b620004978462000354565b81016020851015620004a7578190505b620004bf620004b68562000354565b83018262000451565b50505b505050565b5f82821c905092915050565b5f620004e45f1984600802620004c7565b1980831691505092915050565b5f620004fe8383620004d3565b9150826002028217905092915050565b6200051982620002aa565b67ffffffffffffffff811115620005355762000534620002b4565b5b6200054182546200030e565b6200054e82828562000477565b5f60209050601f83116001811462000584575f84156200056f578287015190505b6200057b8582620004f1565b865550620005ea565b601f198416620005948662000342565b5f5b82811015620005bd5784890151825560018201915060208501945060208101905062000596565b86831015620005dd5784890151620005d9601f891682620004d3565b8355505b6001600288020188555050505b505050505050565b5f73ffffffffffffffffffffffffffffffffffffffff82169050919050565b5f6200061d82620005f2565b9050919050565b6200062f8162000611565b82525050565b5f819050919050565b620006498162000635565b82525050565b5f604082019050620006645f83018562000624565b6200067360208301846200063e565b9392505050565b61289280620006885f395ff3fe608060405234801561000f575f80fd5b5060043610610113575f3560e01c806386e5c15a116100a0578063ae169a501161006f578063ae169a50146102ff578063d547741f1461031b578063e985e9c514610337578063f242432a14610367578063f7be43fb1461038357610113565b806386e5c15a1461027757806391d1485414610295578063a217fddf146102c5578063a22cb465146102e357610113565b80632eb2c2d6116100e75780632eb2c2d6146101d75780632f2ff15d146101f357806336568abe1461020f5780633ff3226d1461022b5780634e1273f41461024757610113565b8062fdd58e1461011757806301ffc9a7146101475780630e89341c14610177578063248a9ca3146101a7575b5f80fd5b610131600480360381019061012c9190611b8b565b6103a1565b60405161013e9190611bd8565b60405180910390f35b610161600480360381019061015c9190611c46565b6103f6565b60405161016e9190611c8b565b60405180910390f35b610191600480360381019061018c9190611ca4565b610417565b60405161019e9190611d59565b60405180910390f35b6101c160048036038101906101bc9190611dac565b6104a9565b6040516101ce9190611de6565b60405180910390f35b6101f160048036038101906101ec9190611fef565b6104c6565b005b61020d600480360381019061020891906120ba565b61056d565b005b610229600480360381019061022491906120ba565b61058f565b005b61024560048036038101906102409190611b8b565b61060a565b005b610261600480360381019061025c91906121b8565b610691565b60405161026e91906122e5565b60405180910390f35b61027f610798565b60405161028c9190611de6565b60405180910390f35b6102af60048036038101906102aa91906120ba565b6107bc565b6040516102bc9190611c8b565b60405180910390f35b6102cd610820565b6040516102da9190611de6565b60405180910390f35b6102fd60048036038101906102f8919061232f565b610826565b005b61031960048036038101906103149190611ca4565b61083c565b005b610335600480360381019061033091906120ba565b6108db565b005b610351600480360381019061034c919061236d565b6108fd565b60405161035e9190611c8b565b60405180910390f35b610381600480360381019061037c91906123ab565b61098b565b005b61038b610a32565b6040516103989190611de6565b60405180910390f35b5f805f8381526020019081526020015f205f8473ffffffffffffffffffffffffffffffffffffffff1673ffffffffffffffffffffffffffffffffffffffff1681526020019081526020015f2054905092915050565b5f61040082610a56565b80610410575061040f82610b37565b5b9050919050565b6060600280546104269061246b565b80601f01602080910402602001604051908101604052809291908181526020018280546104529061246b565b801561049d5780601f106104745761010080835404028352916020019161049d565b820191905f5260205f20905b81548152906001019060200180831161048057829003601f168201915b50505050509050919050565b5f60035f8381526020019081526020015f20600101549050919050565b5f6104cf610bb0565b90508073ffffffffffffffffffffffffffffffffffffffff168673ffffffffffffffffffffffffffffffffffffffff1614158015610514575061051286826108fd565b155b156105585780866040517fe237d92200000000000000000000000000000000000000000000000000000000815260040161054f9291906124aa565b60405180910390fd5b6105658686868686610bb7565b505050505050565b610576826104a9565b61057f81610cab565b6105898383610cbf565b50505050565b610597610bb0565b73ffffffffffffffffffffffffffffffffffffffff168173ffffffffffffffffffffffffffffffffffffffff16146105fb576040517f6697b23200000000000000000000000000000000000000000000000000000000815260040160405180910390fd5b6106058282610da9565b505050565b6106347fd16e204b8a42a15ab0ea6bb8ec1ecdfbe69f38074fc865323af19efe7d9573d9336107bc565b610673576040517f08c379a000000000000000000000000000000000000000000000000000000000815260040161066a9061251b565b60405180910390fd5b61068d825f8360405180602001604052805f815250610e93565b5050565b606081518351146106dd57815183516040517f5b0599910000000000000000000000000000000000000000000000000000000081526004016106d4929190612539565b60405180910390fd5b5f835167ffffffffffffffff8111156106f9576106f8611e03565b5b6040519080825280602002602001820160405280156107275781602001602082028036833780820191505090505b5090505f5b845181101561078d5761076361074b8287610f2890919063ffffffff16565b61075e8387610f3b90919063ffffffff16565b6103a1565b82828151811061077657610775612560565b5b60200260200101818152505080600101905061072c565b508091505092915050565b7fd16e204b8a42a15ab0ea6bb8ec1ecdfbe69f38074fc865323af19efe7d9573d981565b5f60035f8481526020019081526020015f205f015f8373ffffffffffffffffffffffffffffffffffffffff1673ffffffffffffffffffffffffffffffffffffffff1681526020019081526020015f205f9054906101000a900460ff16905092915050565b5f801b81565b610838610831610bb0565b8383610f4e565b5050565b6108667f36a5c4aaacb6b388bbd448bf11096b7dafc5652bcc9046084fd0e95b1fb0b2cc336107bc565b6108a5576040517f08c379a000000000000000000000000000000000000000000000000000000000815260040161089c906125d7565b60405180910390fd5b5f6108af826110b7565b90506108bc335f836110c1565b6108d73383600160405180602001604052805f815250610e93565b5050565b6108e4826104a9565b6108ed81610cab565b6108f78383610da9565b50505050565b5f60015f8473ffffffffffffffffffffffffffffffffffffffff1673ffffffffffffffffffffffffffffffffffffffff1681526020019081526020015f205f8373ffffffffffffffffffffffffffffffffffffffff1673ffffffffffffffffffffffffffffffffffffffff1681526020019081526020015f205f9054906101000a900460ff16905092915050565b5f610994610bb0565b90508073ffffffffffffffffffffffffffffffffffffffff168673ffffffffffffffffffffffffffffffffffffffff16141580156109d957506109d786826108fd565b155b15610a1d5780866040517fe237d922000000000000000000000000000000000000000000000000000000008152600401610a149291906124aa565b60405180910390fd5b610a2a8686868686611163565b505050505050565b7f36a5c4aaacb6b388bbd448bf11096b7dafc5652bcc9046084fd0e95b1fb0b2cc81565b5f7fd9b67a26000000000000000000000000000000000000000000000000000000007bffffffffffffffffffffffffffffffffffffffffffffffffffffffff1916827bffffffffffffffffffffffffffffffffffffffffffffffffffffffff19161480610b2057507f0e89341c000000000000000000000000000000000000000000000000000000007bffffffffffffffffffffffffffffffffffffffffffffffffffffffff1916827bffffffffffffffffffffffffffffffffffffffffffffffffffffffff1916145b80610b305750610b2f82611269565b5b9050919050565b5f7f7965db0b000000000000000000000000000000000000000000000000000000007bffffffffffffffffffffffffffffffffffffffffffffffffffffffff1916827bffffffffffffffffffffffffffffffffffffffffffffffffffffffff19161480610ba95750610ba882610a56565b5b9050919050565b5f33905090565b5f73ffffffffffffffffffffffffffffffffffffffff168473ffffffffffffffffffffffffffffffffffffffff1603610c27575f6040517f57f447ce000000000000000000000000000000000000000000000000000000008152600401610c1e91906125f5565b60405180910390fd5b5f73ffffffffffffffffffffffffffffffffffffffff168573ffffffffffffffffffffffffffffffffffffffff1603610c97575f6040517f01a83514000000000000000000000000000000000000000000000000000000008152600401610c8e91906125f5565b60405180910390fd5b610ca485858585856112d2565b5050505050565b610cbc81610cb7610bb0565b61137e565b50565b5f610cca83836107bc565b610d9f57600160035f8581526020019081526020015f205f015f8473ffffffffffffffffffffffffffffffffffffffff1673ffffffffffffffffffffffffffffffffffffffff1681526020019081526020015f205f6101000a81548160ff021916908315150217905550610d3c610bb0565b73ffffffffffffffffffffffffffffffffffffffff168273ffffffffffffffffffffffffffffffffffffffff16847f2f8788117e7eff1d82e926ec794901d17c78024a50270940304540a733656f0d60405160405180910390a460019050610da3565b5f90505b92915050565b5f610db483836107bc565b15610e89575f60035f8581526020019081526020015f205f015f8473ffffffffffffffffffffffffffffffffffffffff1673ffffffffffffffffffffffffffffffffffffffff1681526020019081526020015f205f6101000a81548160ff021916908315150217905550610e26610bb0565b73ffffffffffffffffffffffffffffffffffffffff168273ffffffffffffffffffffffffffffffffffffffff16847ff6391f5c32d9c69d2a47ea670b442974b53935d1edc7fd64eb21e047a839171b60405160405180910390a460019050610e8d565b5f90505b92915050565b5f73ffffffffffffffffffffffffffffffffffffffff168473ffffffffffffffffffffffffffffffffffffffff1603610f03575f6040517f57f447ce000000000000000000000000000000000000000000000000000000008152600401610efa91906125f5565b60405180910390fd5b5f80610f0f85856113cf565b91509150610f205f878484876112d2565b505050505050565b5f60208202602084010151905092915050565b5f60208202602084010151905092915050565b5f73ffffffffffffffffffffffffffffffffffffffff168273ffffffffffffffffffffffffffffffffffffffff1603610fbe575f6040517fced3e100000000000000000000000000000000000000000000000000000000008152600401610fb591906125f5565b60405180910390fd5b8060015f8573ffffffffffffffffffffffffffffffffffffffff1673ffffffffffffffffffffffffffffffffffffffff1681526020019081526020015f205f8473ffffffffffffffffffffffffffffffffffffffff1673ffffffffffffffffffffffffffffffffffffffff1681526020019081526020015f205f6101000a81548160ff0219169083151502179055508173ffffffffffffffffffffffffffffffffffffffff168373ffffffffffffffffffffffffffffffffffffffff167f17307eab39ab6107e8899845ad3d59bd9653f200f220920489ca2b5937696c31836040516110aa9190611c8b565b60405180910390a3505050565b5f600a9050919050565b5f73ffffffffffffffffffffffffffffffffffffffff168373ffffffffffffffffffffffffffffffffffffffff1603611131575f6040517f01a8351400000000000000000000000000000000000000000000000000000000815260040161112891906125f5565b60405180910390fd5b5f8061113d84846113cf565b9150915061115c855f848460405180602001604052805f8152506112d2565b5050505050565b5f73ffffffffffffffffffffffffffffffffffffffff168473ffffffffffffffffffffffffffffffffffffffff16036111d3575f6040517f57f447ce0000000000000000000000000000000000000000000000000000000081526004016111ca91906125f5565b60405180910390fd5b5f73ffffffffffffffffffffffffffffffffffffffff168573ffffffffffffffffffffffffffffffffffffffff1603611243575f6040517f01a8351400000000000000000000000000000000000000000000000000000000815260040161123a91906125f5565b60405180910390fd5b5f8061124f85856113cf565b9150915061126087878484876112d2565b50505050505050565b5f7f01ffc9a7000000000000000000000000000000000000000000000000000000007bffffffffffffffffffffffffffffffffffffffffffffffffffffffff1916827bffffffffffffffffffffffffffffffffffffffffffffffffffffffff1916149050919050565b6112de858585856113ff565b5f73ffffffffffffffffffffffffffffffffffffffff168473ffffffffffffffffffffffffffffffffffffffff1614611377575f61131a610bb0565b90506001845103611366575f6113395f86610f3b90919063ffffffff16565b90505f61134f5f86610f3b90919063ffffffff16565b905061135f83898985858961178f565b5050611375565b61137481878787878761193e565b5b505b5050505050565b61138882826107bc565b6113cb5780826040517fe2517d3f0000000000000000000000000000000000000000000000000000000081526004016113c292919061260e565b60405180910390fd5b5050565b60608060405191506001825283602083015260408201905060018152826020820152604081016040529250929050565b805182511461144957815181516040517f5b059991000000000000000000000000000000000000000000000000000000008152600401611440929190612539565b60405180910390fd5b5f611452610bb0565b90505f5b835181101561164e575f6114738286610f3b90919063ffffffff16565b90505f6114898386610f3b90919063ffffffff16565b90505f73ffffffffffffffffffffffffffffffffffffffff168873ffffffffffffffffffffffffffffffffffffffff16146115ac575f805f8481526020019081526020015f205f8a73ffffffffffffffffffffffffffffffffffffffff1673ffffffffffffffffffffffffffffffffffffffff1681526020019081526020015f205490508181101561155857888183856040517f03dee4c500000000000000000000000000000000000000000000000000000000815260040161154f9493929190612635565b60405180910390fd5b8181035f808581526020019081526020015f205f8b73ffffffffffffffffffffffffffffffffffffffff1673ffffffffffffffffffffffffffffffffffffffff1681526020019081526020015f2081905550505b5f73ffffffffffffffffffffffffffffffffffffffff168773ffffffffffffffffffffffffffffffffffffffff161461164157805f808481526020019081526020015f205f8973ffffffffffffffffffffffffffffffffffffffff1673ffffffffffffffffffffffffffffffffffffffff1681526020019081526020015f205f82825461163991906126a5565b925050819055505b5050806001019050611456565b506001835103611709575f61166c5f85610f3b90919063ffffffff16565b90505f6116825f85610f3b90919063ffffffff16565b90508573ffffffffffffffffffffffffffffffffffffffff168773ffffffffffffffffffffffffffffffffffffffff168473ffffffffffffffffffffffffffffffffffffffff167fc3d58168c5ae7397731d063d5bbf3d657854427343f4c083240f7aacaa2d0f6285856040516116fa929190612539565b60405180910390a45050611788565b8373ffffffffffffffffffffffffffffffffffffffff168573ffffffffffffffffffffffffffffffffffffffff168273ffffffffffffffffffffffffffffffffffffffff167f4a39dc06d4c0dbc64b70af90fd698a233a518aa5d07e595d983b8c0526c8f7fb868660405161177f9291906126d8565b60405180910390a45b5050505050565b5f8473ffffffffffffffffffffffffffffffffffffffff163b1115611936578373ffffffffffffffffffffffffffffffffffffffff1663f23a6e6187878686866040518663ffffffff1660e01b81526004016117ef95949392919061275f565b6020604051808303815f875af192505050801561182a57506040513d601f19601f8201168201806040525081019061182791906127cb565b60015b6118ab573d805f8114611858576040519150601f19603f3d011682016040523d82523d5f602084013e61185d565b606091505b505f8151036118a357846040517f57f447ce00000000000000000000000000000000000000000000000000000000815260040161189a91906125f5565b60405180910390fd5b805181602001fd5b63f23a6e6160e01b7bffffffffffffffffffffffffffffffffffffffffffffffffffffffff1916817bffffffffffffffffffffffffffffffffffffffffffffffffffffffff19161461193457846040517f57f447ce00000000000000000000000000000000000000000000000000000000815260040161192b91906125f5565b60405180910390fd5b505b505050505050565b5f8473ffffffffffffffffffffffffffffffffffffffff163b1115611ae5578373ffffffffffffffffffffffffffffffffffffffff1663bc197c8187878686866040518663ffffffff1660e01b815260040161199e9594939291906127f6565b6020604051808303815f875af19250505080156119d957506040513d601f19601f820116820180604052508101906119d691906127cb565b60015b611a5a573d805f8114611a07576040519150601f19603f3d011682016040523d82523d5f602084013e611a0c565b606091505b505f815103611a5257846040517f57f447ce000000000000000000000000000000000000000000000000000000008152600401611a4991906125f5565b60405180910390fd5b805181602001fd5b63bc197c8160e01b7bffffffffffffffffffffffffffffffffffffffffffffffffffffffff1916817bffffffffffffffffffffffffffffffffffffffffffffffffffffffff191614611ae357846040517f57f447ce000000000000000000000000000000000000000000000000000000008152600401611ada91906125f5565b60405180910390fd5b505b505050505050565b5f604051905090565b5f80fd5b5f80fd5b5f73ffffffffffffffffffffffffffffffffffffffff82169050919050565b5f611b2782611afe565b9050919050565b611b3781611b1d565b8114611b41575f80fd5b50565b5f81359050611b5281611b2e565b92915050565b5f819050919050565b611b6a81611b58565b8114611b74575f80fd5b50565b5f81359050611b8581611b61565b92915050565b5f8060408385031215611ba157611ba0611af6565b5b5f611bae85828601611b44565b9250506020611bbf85828601611b77565b9150509250929050565b611bd281611b58565b82525050565b5f602082019050611beb5f830184611bc9565b92915050565b5f7fffffffff0000000000000000000000000000000000000000000000000000000082169050919050565b611c2581611bf1565b8114611c2f575f80fd5b50565b5f81359050611c4081611c1c565b92915050565b5f60208284031215611c5b57611c5a611af6565b5b5f611c6884828501611c32565b91505092915050565b5f8115159050919050565b611c8581611c71565b82525050565b5f602082019050611c9e5f830184611c7c565b92915050565b5f60208284031215611cb957611cb8611af6565b5b5f611cc684828501611b77565b91505092915050565b5f81519050919050565b5f82825260208201905092915050565b5f5b83811015611d06578082015181840152602081019050611ceb565b5f8484015250505050565b5f601f19601f8301169050919050565b5f611d2b82611ccf565b611d358185611cd9565b9350611d45818560208601611ce9565b611d4e81611d11565b840191505092915050565b5f6020820190508181035f830152611d718184611d21565b905092915050565b5f819050919050565b611d8b81611d79565b8114611d95575f80fd5b50565b5f81359050611da681611d82565b92915050565b5f60208284031215611dc157611dc0611af6565b5b5f611dce84828501611d98565b91505092915050565b611de081611d79565b82525050565b5f602082019050611df95f830184611dd7565b92915050565b5f80fd5b7f4e487b71000000000000000000000000000000000000000000000000000000005f52604160045260245ffd5b611e3982611d11565b810181811067ffffffffffffffff82111715611e5857611e57611e03565b5b80604052505050565b5f611e6a611aed565b9050611e768282611e30565b919050565b5f67ffffffffffffffff821115611e9557611e94611e03565b5b602082029050602081019050919050565b5f80fd5b5f611ebc611eb784611e7b565b611e61565b90508083825260208201905060208402830185811115611edf57611ede611ea6565b5b835b81811015611f085780611ef48882611b77565b845260208401935050602081019050611ee1565b5050509392505050565b5f82601f830112611f2657611f25611dff565b5b8135611f36848260208601611eaa565b91505092915050565b5f80fd5b5f67ffffffffffffffff821115611f5d57611f5c611e03565b5b611f6682611d11565b9050602081019050919050565b828183375f83830152505050565b5f611f93611f8e84611f43565b611e61565b905082815260208101848484011115611faf57611fae611f3f565b5b611fba848285611f73565b509392505050565b5f82601f830112611fd657611fd5611dff565b5b8135611fe6848260208601611f81565b91505092915050565b5f805f805f60a0868803121561200857612007611af6565b5b5f61201588828901611b44565b955050602061202688828901611b44565b945050604086013567ffffffffffffffff81111561204757612046611afa565b5b61205388828901611f12565b935050606086013567ffffffffffffffff81111561207457612073611afa565b5b61208088828901611f12565b925050608086013567ffffffffffffffff8111156120a1576120a0611afa565b5b6120ad88828901611fc2565b9150509295509295909350565b5f80604083850312156120d0576120cf611af6565b5b5f6120dd85828601611d98565b92505060206120ee85828601611b44565b9150509250929050565b5f67ffffffffffffffff82111561211257612111611e03565b5b602082029050602081019050919050565b5f612135612130846120f8565b611e61565b9050808382526020820190506020840283018581111561215857612157611ea6565b5b835b81811015612181578061216d8882611b44565b84526020840193505060208101905061215a565b5050509392505050565b5f82601f83011261219f5761219e611dff565b5b81356121af848260208601612123565b91505092915050565b5f80604083850312156121ce576121cd611af6565b5b5f83013567ffffffffffffffff8111156121eb576121ea611afa565b5b6121f78582860161218b565b925050602083013567ffffffffffffffff81111561221857612217611afa565b5b61222485828601611f12565b9150509250929050565b5f81519050919050565b5f82825260208201905092915050565b5f819050602082019050919050565b61226081611b58565b82525050565b5f6122718383612257565b60208301905092915050565b5f602082019050919050565b5f6122938261222e565b61229d8185612238565b93506122a883612248565b805f5b838110156122d85781516122bf8882612266565b97506122ca8361227d565b9250506001810190506122ab565b5085935050505092915050565b5f6020820190508181035f8301526122fd8184612289565b905092915050565b61230e81611c71565b8114612318575f80fd5b50565b5f8135905061232981612305565b92915050565b5f806040838503121561234557612344611af6565b5b5f61235285828601611b44565b92505060206123638582860161231b565b9150509250929050565b5f806040838503121561238357612382611af6565b5b5f61239085828601611b44565b92505060206123a185828601611b44565b9150509250929050565b5f805f805f60a086880312156123c4576123c3611af6565b5b5f6123d188828901611b44565b95505060206123e288828901611b44565b94505060406123f388828901611b77565b935050606061240488828901611b77565b925050608086013567ffffffffffffffff81111561242557612424611afa565b5b61243188828901611fc2565b9150509295509295909350565b7f4e487b71000000000000000000000000000000000000000000000000000000005f52602260045260245ffd5b5f600282049050600182168061248257607f821691505b6020821081036124955761249461243e565b5b50919050565b6124a481611b1d565b82525050565b5f6040820190506124bd5f83018561249b565b6124ca602083018461249b565b9392505050565b7f4f6e6c792074656163686572732063616e2061776172642063726564697473005f82015250565b5f612505601f83611cd9565b9150612510826124d1565b602082019050919050565b5f6020820190508181035f830152612532816124f9565b9050919050565b5f60408201905061254c5f830185611bc9565b6125596020830184611bc9565b9392505050565b7f4e487b71000000000000000000000000000000000000000000000000000000005f52603260045260245ffd5b7f4f6e6c792073747564656e74732063616e20636c61696d2072657761726473005f82015250565b5f6125c1601f83611cd9565b91506125cc8261258d565b602082019050919050565b5f6020820190508181035f8301526125ee816125b5565b9050919050565b5f6020820190506126085f83018461249b565b92915050565b5f6040820190506126215f83018561249b565b61262e6020830184611dd7565b9392505050565b5f6080820190506126485f83018761249b565b6126556020830186611bc9565b6126626040830185611bc9565b61266f6060830184611bc9565b95945050505050565b7f4e487b71000000000000000000000000000000000000000000000000000000005f52601160045260245ffd5b5f6126af82611b58565b91506126ba83611b58565b92508282019050808211156126d2576126d1612678565b5b92915050565b5f6040820190508181035f8301526126f08185612289565b905081810360208301526127048184612289565b90509392505050565b5f81519050919050565b5f82825260208201905092915050565b5f6127318261270d565b61273b8185612717565b935061274b818560208601611ce9565b61275481611d11565b840191505092915050565b5f60a0820190506127725f83018861249b565b61277f602083018761249b565b61278c6040830186611bc9565b6127996060830185611bc9565b81810360808301526127ab8184612727565b90509695505050505050565b5f815190506127c581611c1c565b92915050565b5f602082840312156127e0576127df611af6565b5b5f6127ed848285016127b7565b91505092915050565b5f60a0820190506128095f83018861249b565b612816602083018761249b565b81810360408301526128288186612289565b9050818103606083015261283c8185612289565b905081810360808301526128508184612727565b9050969550505050505056fea2646970667358221220cd5fc6662917bd6cbf3a4aa67a5a72f1c2bb62328e81e139f7eb3be2f1bec3ae64736f6c6343000816003368747470733a2f2f6d796170692e636f6d2f6170692f746f6b656e2f7b69647d2e6a736f6e",
			"opcodes": "PUSH1 0x80 PUSH1 0x40 MSTORE CALLVALUE DUP1 ISZERO PUSH3 0x10 JUMPI PUSH0 DUP1 REVERT JUMPDEST POP PUSH1 0x40 MLOAD DUP1 PUSH1 0x60 ADD PUSH1 0x40 MSTORE DUP1 PUSH1 0x25 DUP2 MSTORE PUSH1 0x20 ADD PUSH3 0x2F1A PUSH1 0x25 SWAP2 CODECOPY PUSH3 0x3C DUP2 PUSH3 0x57 PUSH1 0x20 SHL PUSH1 0x20 SHR JUMP JUMPDEST POP PUSH3 0x51 PUSH0 DUP1 SHL CALLER PUSH3 0x6C PUSH1 0x20 SHL PUSH1 0x20 SHR JUMP JUMPDEST PUSH3 0x67A JUMP JUMPDEST DUP1 PUSH1 0x2 SWAP1 DUP2 PUSH3 0x68 SWAP2 SWAP1 PUSH3 0x50E JUMP JUMPDEST POP POP JUMP JUMPDEST PUSH3 0x7D DUP3 PUSH3 0xA6 PUSH1 0x20 SHL PUSH1 0x20 SHR JUMP JUMPDEST PUSH3 0x8E DUP2 PUSH3 0xC3 PUSH1 0x20 SHL PUSH1 0x20 SHR JUMP JUMPDEST PUSH3 0xA0 DUP4 DUP4 PUSH3 0xE7 PUSH1 0x20 SHL PUSH1 0x20 SHR JUMP JUMPDEST POP POP POP POP JUMP JUMPDEST PUSH0 PUSH1 0x3 PUSH0 DUP4 DUP2 MSTORE PUSH1 0x20 ADD SWAP1 DUP2 MSTORE PUSH1 0x20 ADD PUSH0 KECCAK256 PUSH1 0x1 ADD SLOAD SWAP1 POP SWAP2 SWAP1 POP JUMP JUMPDEST PUSH3 0xE4 DUP2 PUSH3 0xD8 PUSH3 0x1E3 PUSH1 0x20 SHL PUSH1 0x20 SHR JUMP JUMPDEST PUSH3 0x1EA PUSH1 0x20 SHL PUSH1 0x20 SHR JUMP JUMPDEST POP JUMP JUMPDEST PUSH0 PUSH3 0xFA DUP4 DUP4 PUSH3 0x246 PUSH1 0x20 SHL PUSH1 0x20 SHR JUMP JUMPDEST PUSH3 0x1D9 JUMPI PUSH1 0x1 PUSH1 0x3 PUSH0 DUP6 DUP2 MSTORE PUSH1 0x20 ADD SWAP1 DUP2 MSTORE PUSH1 0x20 ADD PUSH0 KECCAK256 PUSH0 ADD PUSH0 DUP5 PUSH20 0xFFFFFFFFFFFFFFFFFFFFFFFFFFFFFFFFFFFFFFFF AND PUSH20 0xFFFFFFFFFFFFFFFFFFFFFFFFFFFFFFFFFFFFFFFF AND DUP2 MSTORE PUSH1 0x20 ADD SWAP1 DUP2 MSTORE PUSH1 0x20 ADD PUSH0 KECCAK256 PUSH0 PUSH2 0x100 EXP DUP2 SLOAD DUP2 PUSH1 0xFF MUL NOT AND SWAP1 DUP4 ISZERO ISZERO MUL OR SWAP1 SSTORE POP PUSH3 0x175 PUSH3 0x1E3 PUSH1 0x20 SHL PUSH1 0x20 SHR JUMP JUMPDEST PUSH20 0xFFFFFFFFFFFFFFFFFFFFFFFFFFFFFFFFFFFFFFFF AND DUP3 PUSH20 0xFFFFFFFFFFFFFFFFFFFFFFFFFFFFFFFFFFFFFFFF AND DUP5 PUSH32 0x2F8788117E7EFF1D82E926EC794901D17C78024A50270940304540A733656F0D PUSH1 0x40 MLOAD PUSH1 0x40 MLOAD DUP1 SWAP2 SUB SWAP1 LOG4 PUSH1 0x1 SWAP1 POP PUSH3 0x1DD JUMP JUMPDEST PUSH0 SWAP1 POP JUMPDEST SWAP3 SWAP2 POP POP JUMP JUMPDEST PUSH0 CALLER SWAP1 POP SWAP1 JUMP JUMPDEST PUSH3 0x1FC DUP3 DUP3 PUSH3 0x246 PUSH1 0x20 SHL PUSH1 0x20 SHR JUMP JUMPDEST PUSH3 0x242 JUMPI DUP1 DUP3 PUSH1 0x40 MLOAD PUSH32 0xE2517D3F00000000000000000000000000000000000000000000000000000000 DUP2 MSTORE PUSH1 0x4 ADD PUSH3 0x239 SWAP3 SWAP2 SWAP1 PUSH3 0x64F JUMP JUMPDEST PUSH1 0x40 MLOAD DUP1 SWAP2 SUB SWAP1 REVERT JUMPDEST POP POP JUMP JUMPDEST PUSH0 PUSH1 0x3 PUSH0 DUP5 DUP2 MSTORE PUSH1 0x20 ADD SWAP1 DUP2 MSTORE PUSH1 0x20 ADD PUSH0 KECCAK256 PUSH0 ADD PUSH0 DUP4 PUSH20 0xFFFFFFFFFFFFFFFFFFFFFFFFFFFFFFFFFFFFFFFF AND PUSH20 0xFFFFFFFFFFFFFFFFFFFFFFFFFFFFFFFFFFFFFFFF AND DUP2 MSTORE PUSH1 0x20 ADD SWAP1 DUP2 MSTORE PUSH1 0x20 ADD PUSH0 KECCAK256 PUSH0 SWAP1 SLOAD SWAP1 PUSH2 0x100 EXP SWAP1 DIV PUSH1 0xFF AND SWAP1 POP SWAP3 SWAP2 POP POP JUMP JUMPDEST PUSH0 DUP2 MLOAD SWAP1 POP SWAP2 SWAP1 POP JUMP JUMPDEST PUSH32 0x4E487B7100000000000000000000000000000000000000000000000000000000 PUSH0 MSTORE PUSH1 0x41 PUSH1 0x4 MSTORE PUSH1 0x24 PUSH0 REVERT JUMPDEST PUSH32 0x4E487B7100000000000000000000000000000000000000000000000000000000 PUSH0 MSTORE PUSH1 0x22 PUSH1 0x4 MSTORE PUSH1 0x24 PUSH0 REVERT JUMPDEST PUSH0 PUSH1 0x2 DUP3 DIV SWAP1 POP PUSH1 0x1 DUP3 AND DUP1 PUSH3 0x326 JUMPI PUSH1 0x7F DUP3 AND SWAP2 POP JUMPDEST PUSH1 0x20 DUP3 LT DUP2 SUB PUSH3 0x33C JUMPI PUSH3 0x33B PUSH3 0x2E1 JUMP JUMPDEST JUMPDEST POP SWAP2 SWAP1 POP JUMP JUMPDEST PUSH0 DUP2 SWAP1 POP DUP2 PUSH0 MSTORE PUSH1 0x20 PUSH0 KECCAK256 SWAP1 POP SWAP2 SWAP1 POP JUMP JUMPDEST PUSH0 PUSH1 0x20 PUSH1 0x1F DUP4 ADD DIV SWAP1 POP SWAP2 SWAP1 POP JUMP JUMPDEST PUSH0 DUP3 DUP3 SHL SWAP1 POP SWAP3 SWAP2 POP POP JUMP JUMPDEST PUSH0 PUSH1 0x8 DUP4 MUL PUSH3 0x3A0 PUSH32 0xFFFFFFFFFFFFFFFFFFFFFFFFFFFFFFFFFFFFFFFFFFFFFFFFFFFFFFFFFFFFFFFF DUP3 PUSH3 0x363 JUMP JUMPDEST PUSH3 0x3AC DUP7 DUP4 PUSH3 0x363 JUMP JUMPDEST SWAP6 POP DUP1 NOT DUP5 AND SWAP4 POP DUP1 DUP7 AND DUP5 OR SWAP3 POP POP POP SWAP4 SWAP3 POP POP POP JUMP JUMPDEST PUSH0 DUP2 SWAP1 POP SWAP2 SWAP1 POP JUMP JUMPDEST PUSH0 DUP2 SWAP1 POP SWAP2 SWAP1 POP JUMP JUMPDEST PUSH0 PUSH3 0x3F6 PUSH3 0x3F0 PUSH3 0x3EA DUP5 PUSH3 0x3C4 JUMP JUMPDEST PUSH3 0x3CD JUMP JUMPDEST PUSH3 0x3C4 JUMP JUMPDEST SWAP1 POP SWAP2 SWAP1 POP JUMP JUMPDEST PUSH0 DUP2 SWAP1 POP SWAP2 SWAP1 POP JUMP JUMPDEST PUSH3 0x411 DUP4 PUSH3 0x3D6 JUMP JUMPDEST PUSH3 0x429 PUSH3 0x420 DUP3 PUSH3 0x3FD JUMP JUMPDEST DUP5 DUP5 SLOAD PUSH3 0x36F JUMP JUMPDEST DUP3 SSTORE POP POP POP POP JUMP JUMPDEST PUSH0 SWAP1 JUMP JUMPDEST PUSH3 0x43F PUSH3 0x431 JUMP JUMPDEST PUSH3 0x44C DUP2 DUP5 DUP5 PUSH3 0x406 JUMP JUMPDEST POP POP POP JUMP JUMPDEST JUMPDEST DUP2 DUP2 LT ISZERO PUSH3 0x473 JUMPI PUSH3 0x467 PUSH0 DUP3 PUSH3 0x435 JUMP JUMPDEST PUSH1 0x1 DUP2 ADD SWAP1 POP PUSH3 0x452 JUMP JUMPDEST POP POP JUMP JUMPDEST PUSH1 0x1F DUP3 GT ISZERO PUSH3 0x4C2 JUMPI PUSH3 0x48C DUP2 PUSH3 0x342 JUMP JUMPDEST PUSH3 0x497 DUP5 PUSH3 0x354 JUMP JUMPDEST DUP2 ADD PUSH1 0x20 DUP6 LT ISZERO PUSH3 0x4A7 JUMPI DUP2 SWAP1 POP JUMPDEST PUSH3 0x4BF PUSH3 0x4B6 DUP6 PUSH3 0x354 JUMP JUMPDEST DUP4 ADD DUP3 PUSH3 0x451 JUMP JUMPDEST POP POP JUMPDEST POP POP POP JUMP JUMPDEST PUSH0 DUP3 DUP3 SHR SWAP1 POP SWAP3 SWAP2 POP POP JUMP JUMPDEST PUSH0 PUSH3 0x4E4 PUSH0 NOT DUP5 PUSH1 0x8 MUL PUSH3 0x4C7 JUMP JUMPDEST NOT DUP1 DUP4 AND SWAP2 POP POP SWAP3 SWAP2 POP POP JUMP JUMPDEST PUSH0 PUSH3 0x4FE DUP4 DUP4 PUSH3 0x4D3 JUMP JUMPDEST SWAP2 POP DUP3 PUSH1 0x2 MUL DUP3 OR SWAP1 POP SWAP3 SWAP2 POP POP JUMP JUMPDEST PUSH3 0x519 DUP3 PUSH3 0x2AA JUMP JUMPDEST PUSH8 0xFFFFFFFFFFFFFFFF DUP2 GT ISZERO PUSH3 0x535 JUMPI PUSH3 0x534 PUSH3 0x2B4 JUMP JUMPDEST JUMPDEST PUSH3 0x541 DUP3 SLOAD PUSH3 0x30E JUMP JUMPDEST PUSH3 0x54E DUP3 DUP3 DUP6 PUSH3 0x477 JUMP JUMPDEST PUSH0 PUSH1 0x20 SWAP1 POP PUSH1 0x1F DUP4 GT PUSH1 0x1 DUP2 EQ PUSH3 0x584 JUMPI PUSH0 DUP5 ISZERO PUSH3 0x56F JUMPI DUP3 DUP8 ADD MLOAD SWAP1 POP JUMPDEST PUSH3 0x57B DUP6 DUP3 PUSH3 0x4F1 JUMP JUMPDEST DUP7 SSTORE POP PUSH3 0x5EA JUMP JUMPDEST PUSH1 0x1F NOT DUP5 AND PUSH3 0x594 DUP7 PUSH3 0x342 JUMP JUMPDEST PUSH0 JUMPDEST DUP3 DUP2 LT ISZERO PUSH3 0x5BD JUMPI DUP5 DUP10 ADD MLOAD DUP3 SSTORE PUSH1 0x1 DUP3 ADD SWAP2 POP PUSH1 0x20 DUP6 ADD SWAP5 POP PUSH1 0x20 DUP2 ADD SWAP1 POP PUSH3 0x596 JUMP JUMPDEST DUP7 DUP4 LT ISZERO PUSH3 0x5DD JUMPI DUP5 DUP10 ADD MLOAD PUSH3 0x5D9 PUSH1 0x1F DUP10 AND DUP3 PUSH3 0x4D3 JUMP JUMPDEST DUP4 SSTORE POP JUMPDEST PUSH1 0x1 PUSH1 0x2 DUP9 MUL ADD DUP9 SSTORE POP POP POP JUMPDEST POP POP POP POP POP POP JUMP JUMPDEST PUSH0 PUSH20 0xFFFFFFFFFFFFFFFFFFFFFFFFFFFFFFFFFFFFFFFF DUP3 AND SWAP1 POP SWAP2 SWAP1 POP JUMP JUMPDEST PUSH0 PUSH3 0x61D DUP3 PUSH3 0x5F2 JUMP JUMPDEST SWAP1 POP SWAP2 SWAP1 POP JUMP JUMPDEST PUSH3 0x62F DUP2 PUSH3 0x611 JUMP JUMPDEST DUP3 MSTORE POP POP JUMP JUMPDEST PUSH0 DUP2 SWAP1 POP SWAP2 SWAP1 POP JUMP JUMPDEST PUSH3 0x649 DUP2 PUSH3 0x635 JUMP JUMPDEST DUP3 MSTORE POP POP JUMP JUMPDEST PUSH0 PUSH1 0x40 DUP3 ADD SWAP1 POP PUSH3 0x664 PUSH0 DUP4 ADD DUP6 PUSH3 0x624 JUMP JUMPDEST PUSH3 0x673 PUSH1 0x20 DUP4 ADD DUP5 PUSH3 0x63E JUMP JUMPDEST SWAP4 SWAP3 POP POP POP JUMP JUMPDEST PUSH2 0x2892 DUP1 PUSH3 0x688 PUSH0 CODECOPY PUSH0 RETURN INVALID PUSH1 0x80 PUSH1 0x40 MSTORE CALLVALUE DUP1 ISZERO PUSH2 0xF JUMPI PUSH0 DUP1 REVERT JUMPDEST POP PUSH1 0x4 CALLDATASIZE LT PUSH2 0x113 JUMPI PUSH0 CALLDATALOAD PUSH1 0xE0 SHR DUP1 PUSH4 0x86E5C15A GT PUSH2 0xA0 JUMPI DUP1 PUSH4 0xAE169A50 GT PUSH2 0x6F JUMPI DUP1 PUSH4 0xAE169A50 EQ PUSH2 0x2FF JUMPI DUP1 PUSH4 0xD547741F EQ PUSH2 0x31B JUMPI DUP1 PUSH4 0xE985E9C5 EQ PUSH2 0x337 JUMPI DUP1 PUSH4 0xF242432A EQ PUSH2 0x367 JUMPI DUP1 PUSH4 0xF7BE43FB EQ PUSH2 0x383 JUMPI PUSH2 0x113 JUMP JUMPDEST DUP1 PUSH4 0x86E5C15A EQ PUSH2 0x277 JUMPI DUP1 PUSH4 0x91D14854 EQ PUSH2 0x295 JUMPI DUP1 PUSH4 0xA217FDDF EQ PUSH2 0x2C5 JUMPI DUP1 PUSH4 0xA22CB465 EQ PUSH2 0x2E3 JUMPI PUSH2 0x113 JUMP JUMPDEST DUP1 PUSH4 0x2EB2C2D6 GT PUSH2 0xE7 JUMPI DUP1 PUSH4 0x2EB2C2D6 EQ PUSH2 0x1D7 JUMPI DUP1 PUSH4 0x2F2FF15D EQ PUSH2 0x1F3 JUMPI DUP1 PUSH4 0x36568ABE EQ PUSH2 0x20F JUMPI DUP1 PUSH4 0x3FF3226D EQ PUSH2 0x22B JUMPI DUP1 PUSH4 0x4E1273F4 EQ PUSH2 0x247 JUMPI PUSH2 0x113 JUMP JUMPDEST DUP1 PUSH3 0xFDD58E EQ PUSH2 0x117 JUMPI DUP1 PUSH4 0x1FFC9A7 EQ PUSH2 0x147 JUMPI DUP1 PUSH4 0xE89341C EQ PUSH2 0x177 JUMPI DUP1 PUSH4 0x248A9CA3 EQ PUSH2 0x1A7 JUMPI JUMPDEST PUSH0 DUP1 REVERT JUMPDEST PUSH2 0x131 PUSH1 0x4 DUP1 CALLDATASIZE SUB DUP2 ADD SWAP1 PUSH2 0x12C SWAP2 SWAP1 PUSH2 0x1B8B JUMP JUMPDEST PUSH2 0x3A1 JUMP JUMPDEST PUSH1 0x40 MLOAD PUSH2 0x13E SWAP2 SWAP1 PUSH2 0x1BD8 JUMP JUMPDEST PUSH1 0x40 MLOAD DUP1 SWAP2 SUB SWAP1 RETURN JUMPDEST PUSH2 0x161 PUSH1 0x4 DUP1 CALLDATASIZE SUB DUP2 ADD SWAP1 PUSH2 0x15C SWAP2 SWAP1 PUSH2 0x1C46 JUMP JUMPDEST PUSH2 0x3F6 JUMP JUMPDEST PUSH1 0x40 MLOAD PUSH2 0x16E SWAP2 SWAP1 PUSH2 0x1C8B JUMP JUMPDEST PUSH1 0x40 MLOAD DUP1 SWAP2 SUB SWAP1 RETURN JUMPDEST PUSH2 0x191 PUSH1 0x4 DUP1 CALLDATASIZE SUB DUP2 ADD SWAP1 PUSH2 0x18C SWAP2 SWAP1 PUSH2 0x1CA4 JUMP JUMPDEST PUSH2 0x417 JUMP JUMPDEST PUSH1 0x40 MLOAD PUSH2 0x19E SWAP2 SWAP1 PUSH2 0x1D59 JUMP JUMPDEST PUSH1 0x40 MLOAD DUP1 SWAP2 SUB SWAP1 RETURN JUMPDEST PUSH2 0x1C1 PUSH1 0x4 DUP1 CALLDATASIZE SUB DUP2 ADD SWAP1 PUSH2 0x1BC SWAP2 SWAP1 PUSH2 0x1DAC JUMP JUMPDEST PUSH2 0x4A9 JUMP JUMPDEST PUSH1 0x40 MLOAD PUSH2 0x1CE SWAP2 SWAP1 PUSH2 0x1DE6 JUMP JUMPDEST PUSH1 0x40 MLOAD DUP1 SWAP2 SUB SWAP1 RETURN JUMPDEST PUSH2 0x1F1 PUSH1 0x4 DUP1 CALLDATASIZE SUB DUP2 ADD SWAP1 PUSH2 0x1EC SWAP2 SWAP1 PUSH2 0x1FEF JUMP JUMPDEST PUSH2 0x4C6 JUMP JUMPDEST STOP JUMPDEST PUSH2 0x20D PUSH1 0x4 DUP1 CALLDATASIZE SUB DUP2 ADD SWAP1 PUSH2 0x208 SWAP2 SWAP1 PUSH2 0x20BA JUMP JUMPDEST PUSH2 0x56D JUMP JUMPDEST STOP JUMPDEST PUSH2 0x229 PUSH1 0x4 DUP1 CALLDATASIZE SUB DUP2 ADD SWAP1 PUSH2 0x224 SWAP2 SWAP1 PUSH2 0x20BA JUMP JUMPDEST PUSH2 0x58F JUMP JUMPDEST STOP JUMPDEST PUSH2 0x245 PUSH1 0x4 DUP1 CALLDATASIZE SUB DUP2 ADD SWAP1 PUSH2 0x240 SWAP2 SWAP1 PUSH2 0x1B8B JUMP JUMPDEST PUSH2 0x60A JUMP JUMPDEST STOP JUMPDEST PUSH2 0x261 PUSH1 0x4 DUP1 CALLDATASIZE SUB DUP2 ADD SWAP1 PUSH2 0x25C SWAP2 SWAP1 PUSH2 0x21B8 JUMP JUMPDEST PUSH2 0x691 JUMP JUMPDEST PUSH1 0x40 MLOAD PUSH2 0x26E SWAP2 SWAP1 PUSH2 0x22E5 JUMP JUMPDEST PUSH1 0x40 MLOAD DUP1 SWAP2 SUB SWAP1 RETURN JUMPDEST PUSH2 0x27F PUSH2 0x798 JUMP JUMPDEST PUSH1 0x40 MLOAD PUSH2 0x28C SWAP2 SWAP1 PUSH2 0x1DE6 JUMP JUMPDEST PUSH1 0x40 MLOAD DUP1 SWAP2 SUB SWAP1 RETURN JUMPDEST PUSH2 0x2AF PUSH1 0x4 DUP1 CALLDATASIZE SUB DUP2 ADD SWAP1 PUSH2 0x2AA SWAP2 SWAP1 PUSH2 0x20BA JUMP JUMPDEST PUSH2 0x7BC JUMP JUMPDEST PUSH1 0x40 MLOAD PUSH2 0x2BC SWAP2 SWAP1 PUSH2 0x1C8B JUMP JUMPDEST PUSH1 0x40 MLOAD DUP1 SWAP2 SUB SWAP1 RETURN JUMPDEST PUSH2 0x2CD PUSH2 0x820 JUMP JUMPDEST PUSH1 0x40 MLOAD PUSH2 0x2DA SWAP2 SWAP1 PUSH2 0x1DE6 JUMP JUMPDEST PUSH1 0x40 MLOAD DUP1 SWAP2 SUB SWAP1 RETURN JUMPDEST PUSH2 0x2FD PUSH1 0x4 DUP1 CALLDATASIZE SUB DUP2 ADD SWAP1 PUSH2 0x2F8 SWAP2 SWAP1 PUSH2 0x232F JUMP JUMPDEST PUSH2 0x826 JUMP JUMPDEST STOP JUMPDEST PUSH2 0x319 PUSH1 0x4 DUP1 CALLDATASIZE SUB DUP2 ADD SWAP1 PUSH2 0x314 SWAP2 SWAP1 PUSH2 0x1CA4 JUMP JUMPDEST PUSH2 0x83C JUMP JUMPDEST STOP JUMPDEST PUSH2 0x335 PUSH1 0x4 DUP1 CALLDATASIZE SUB DUP2 ADD SWAP1 PUSH2 0x330 SWAP2 SWAP1 PUSH2 0x20BA JUMP JUMPDEST PUSH2 0x8DB JUMP JUMPDEST STOP JUMPDEST PUSH2 0x351 PUSH1 0x4 DUP1 CALLDATASIZE SUB DUP2 ADD SWAP1 PUSH2 0x34C SWAP2 SWAP1 PUSH2 0x236D JUMP JUMPDEST PUSH2 0x8FD JUMP JUMPDEST PUSH1 0x40 MLOAD PUSH2 0x35E SWAP2 SWAP1 PUSH2 0x1C8B JUMP JUMPDEST PUSH1 0x40 MLOAD DUP1 SWAP2 SUB SWAP1 RETURN JUMPDEST PUSH2 0x381 PUSH1 0x4 DUP1 CALLDATASIZE SUB DUP2 ADD SWAP1 PUSH2 0x37C SWAP2 SWAP1 PUSH2 0x23AB JUMP JUMPDEST PUSH2 0x98B JUMP JUMPDEST STOP JUMPDEST PUSH2 0x38B PUSH2 0xA32 JUMP JUMPDEST PUSH1 0x40 MLOAD PUSH2 0x398 SWAP2 SWAP1 PUSH2 0x1DE6 JUMP JUMPDEST PUSH1 0x40 MLOAD DUP1 SWAP2 SUB SWAP1 RETURN JUMPDEST PUSH0 DUP1 PUSH0 DUP4 DUP2 MSTORE PUSH1 0x20 ADD SWAP1 DUP2 MSTORE PUSH1 0x20 ADD PUSH0 KECCAK256 PUSH0 DUP5 PUSH20 0xFFFFFFFFFFFFFFFFFFFFFFFFFFFFFFFFFFFFFFFF AND PUSH20 0xFFFFFFFFFFFFFFFFFFFFFFFFFFFFFFFFFFFFFFFF AND DUP2 MSTORE PUSH1 0x20 ADD SWAP1 DUP2 MSTORE PUSH1 0x20 ADD PUSH0 KECCAK256 SLOAD SWAP1 POP SWAP3 SWAP2 POP POP JUMP JUMPDEST PUSH0 PUSH2 0x400 DUP3 PUSH2 0xA56 JUMP JUMPDEST DUP1 PUSH2 0x410 JUMPI POP PUSH2 0x40F DUP3 PUSH2 0xB37 JUMP JUMPDEST JUMPDEST SWAP1 POP SWAP2 SWAP1 POP JUMP JUMPDEST PUSH1 0x60 PUSH1 0x2 DUP1 SLOAD PUSH2 0x426 SWAP1 PUSH2 0x246B JUMP JUMPDEST DUP1 PUSH1 0x1F ADD PUSH1 0x20 DUP1 SWAP2 DIV MUL PUSH1 0x20 ADD PUSH1 0x40 MLOAD SWAP1 DUP2 ADD PUSH1 0x40 MSTORE DUP1 SWAP3 SWAP2 SWAP1 DUP2 DUP2 MSTORE PUSH1 0x20 ADD DUP3 DUP1 SLOAD PUSH2 0x452 SWAP1 PUSH2 0x246B JUMP JUMPDEST DUP1 ISZERO PUSH2 0x49D JUMPI DUP1 PUSH1 0x1F LT PUSH2 0x474 JUMPI PUSH2 0x100 DUP1 DUP4 SLOAD DIV MUL DUP4 MSTORE SWAP2 PUSH1 0x20 ADD SWAP2 PUSH2 0x49D JUMP JUMPDEST DUP3 ADD SWAP2 SWAP1 PUSH0 MSTORE PUSH1 0x20 PUSH0 KECCAK256 SWAP1 JUMPDEST DUP2 SLOAD DUP2 MSTORE SWAP1 PUSH1 0x1 ADD SWAP1 PUSH1 0x20 ADD DUP1 DUP4 GT PUSH2 0x480 JUMPI DUP3 SWAP1 SUB PUSH1 0x1F AND DUP3 ADD SWAP2 JUMPDEST POP POP POP POP POP SWAP1 POP SWAP2 SWAP1 POP JUMP JUMPDEST PUSH0 PUSH1 0x3 PUSH0 DUP4 DUP2 MSTORE PUSH1 0x20 ADD SWAP1 DUP2 MSTORE PUSH1 0x20 ADD PUSH0 KECCAK256 PUSH1 0x1 ADD SLOAD SWAP1 POP SWAP2 SWAP1 POP JUMP JUMPDEST PUSH0 PUSH2 0x4CF PUSH2 0xBB0 JUMP JUMPDEST SWAP1 POP DUP1 PUSH20 0xFFFFFFFFFFFFFFFFFFFFFFFFFFFFFFFFFFFFFFFF AND DUP7 PUSH20 0xFFFFFFFFFFFFFFFFFFFFFFFFFFFFFFFFFFFFFFFF AND EQ ISZERO DUP1 ISZERO PUSH2 0x514 JUMPI POP PUSH2 0x512 DUP7 DUP3 PUSH2 0x8FD JUMP JUMPDEST ISZERO JUMPDEST ISZERO PUSH2 0x558 JUMPI DUP1 DUP7 PUSH1 0x40 MLOAD PUSH32 0xE237D92200000000000000000000000000000000000000000000000000000000 DUP2 MSTORE PUSH1 0x4 ADD PUSH2 0x54F SWAP3 SWAP2 SWAP1 PUSH2 0x24AA JUMP JUMPDEST PUSH1 0x40 MLOAD DUP1 SWAP2 SUB SWAP1 REVERT JUMPDEST PUSH2 0x565 DUP7 DUP7 DUP7 DUP7 DUP7 PUSH2 0xBB7 JUMP JUMPDEST POP POP POP POP POP POP JUMP JUMPDEST PUSH2 0x576 DUP3 PUSH2 0x4A9 JUMP JUMPDEST PUSH2 0x57F DUP2 PUSH2 0xCAB JUMP JUMPDEST PUSH2 0x589 DUP4 DUP4 PUSH2 0xCBF JUMP JUMPDEST POP POP POP POP JUMP JUMPDEST PUSH2 0x597 PUSH2 0xBB0 JUMP JUMPDEST PUSH20 0xFFFFFFFFFFFFFFFFFFFFFFFFFFFFFFFFFFFFFFFF AND DUP2 PUSH20 0xFFFFFFFFFFFFFFFFFFFFFFFFFFFFFFFFFFFFFFFF AND EQ PUSH2 0x5FB JUMPI PUSH1 0x40 MLOAD PUSH32 0x6697B23200000000000000000000000000000000000000000000000000000000 DUP2 MSTORE PUSH1 0x4 ADD PUSH1 0x40 MLOAD DUP1 SWAP2 SUB SWAP1 REVERT JUMPDEST PUSH2 0x605 DUP3 DUP3 PUSH2 0xDA9 JUMP JUMPDEST POP POP POP JUMP JUMPDEST PUSH2 0x634 PUSH32 0xD16E204B8A42A15AB0EA6BB8EC1ECDFBE69F38074FC865323AF19EFE7D9573D9 CALLER PUSH2 0x7BC JUMP JUMPDEST PUSH2 0x673 JUMPI PUSH1 0x40 MLOAD PUSH32 0x8C379A000000000000000000000000000000000000000000000000000000000 DUP2 MSTORE PUSH1 0x4 ADD PUSH2 0x66A SWAP1 PUSH2 0x251B JUMP JUMPDEST PUSH1 0x40 MLOAD DUP1 SWAP2 SUB SWAP1 REVERT JUMPDEST PUSH2 0x68D DUP3 PUSH0 DUP4 PUSH1 0x40 MLOAD DUP1 PUSH1 0x20 ADD PUSH1 0x40 MSTORE DUP1 PUSH0 DUP2 MSTORE POP PUSH2 0xE93 JUMP JUMPDEST POP POP JUMP JUMPDEST PUSH1 0x60 DUP2 MLOAD DUP4 MLOAD EQ PUSH2 0x6DD JUMPI DUP2 MLOAD DUP4 MLOAD PUSH1 0x40 MLOAD PUSH32 0x5B05999100000000000000000000000000000000000000000000000000000000 DUP2 MSTORE PUSH1 0x4 ADD PUSH2 0x6D4 SWAP3 SWAP2 SWAP1 PUSH2 0x2539 JUMP JUMPDEST PUSH1 0x40 MLOAD DUP1 SWAP2 SUB SWAP1 REVERT JUMPDEST PUSH0 DUP4 MLOAD PUSH8 0xFFFFFFFFFFFFFFFF DUP2 GT ISZERO PUSH2 0x6F9 JUMPI PUSH2 0x6F8 PUSH2 0x1E03 JUMP JUMPDEST JUMPDEST PUSH1 0x40 MLOAD SWAP1 DUP1 DUP3 MSTORE DUP1 PUSH1 0x20 MUL PUSH1 0x20 ADD DUP3 ADD PUSH1 0x40 MSTORE DUP1 ISZERO PUSH2 0x727 JUMPI DUP2 PUSH1 0x20 ADD PUSH1 0x20 DUP3 MUL DUP1 CALLDATASIZE DUP4 CALLDATACOPY DUP1 DUP3 ADD SWAP2 POP POP SWAP1 POP JUMPDEST POP SWAP1 POP PUSH0 JUMPDEST DUP5 MLOAD DUP2 LT ISZERO PUSH2 0x78D JUMPI PUSH2 0x763 PUSH2 0x74B DUP3 DUP8 PUSH2 0xF28 SWAP1 SWAP2 SWAP1 PUSH4 0xFFFFFFFF AND JUMP JUMPDEST PUSH2 0x75E DUP4 DUP8 PUSH2 0xF3B SWAP1 SWAP2 SWAP1 PUSH4 0xFFFFFFFF AND JUMP JUMPDEST PUSH2 0x3A1 JUMP JUMPDEST DUP3 DUP3 DUP2 MLOAD DUP2 LT PUSH2 0x776 JUMPI PUSH2 0x775 PUSH2 0x2560 JUMP JUMPDEST JUMPDEST PUSH1 0x20 MUL PUSH1 0x20 ADD ADD DUP2 DUP2 MSTORE POP POP DUP1 PUSH1 0x1 ADD SWAP1 POP PUSH2 0x72C JUMP JUMPDEST POP DUP1 SWAP2 POP POP SWAP3 SWAP2 POP POP JUMP JUMPDEST PUSH32 0xD16E204B8A42A15AB0EA6BB8EC1ECDFBE69F38074FC865323AF19EFE7D9573D9 DUP2 JUMP JUMPDEST PUSH0 PUSH1 0x3 PUSH0 DUP5 DUP2 MSTORE PUSH1 0x20 ADD SWAP1 DUP2 MSTORE PUSH1 0x20 ADD PUSH0 KECCAK256 PUSH0 ADD PUSH0 DUP4 PUSH20 0xFFFFFFFFFFFFFFFFFFFFFFFFFFFFFFFFFFFFFFFF AND PUSH20 0xFFFFFFFFFFFFFFFFFFFFFFFFFFFFFFFFFFFFFFFF AND DUP2 MSTORE PUSH1 0x20 ADD SWAP1 DUP2 MSTORE PUSH1 0x20 ADD PUSH0 KECCAK256 PUSH0 SWAP1 SLOAD SWAP1 PUSH2 0x100 EXP SWAP1 DIV PUSH1 0xFF AND SWAP1 POP SWAP3 SWAP2 POP POP JUMP JUMPDEST PUSH0 DUP1 SHL DUP2 JUMP JUMPDEST PUSH2 0x838 PUSH2 0x831 PUSH2 0xBB0 JUMP JUMPDEST DUP4 DUP4 PUSH2 0xF4E JUMP JUMPDEST POP POP JUMP JUMPDEST PUSH2 0x866 PUSH32 0x36A5C4AAACB6B388BBD448BF11096B7DAFC5652BCC9046084FD0E95B1FB0B2CC CALLER PUSH2 0x7BC JUMP JUMPDEST PUSH2 0x8A5 JUMPI PUSH1 0x40 MLOAD PUSH32 0x8C379A000000000000000000000000000000000000000000000000000000000 DUP2 MSTORE PUSH1 0x4 ADD PUSH2 0x89C SWAP1 PUSH2 0x25D7 JUMP JUMPDEST PUSH1 0x40 MLOAD DUP1 SWAP2 SUB SWAP1 REVERT JUMPDEST PUSH0 PUSH2 0x8AF DUP3 PUSH2 0x10B7 JUMP JUMPDEST SWAP1 POP PUSH2 0x8BC CALLER PUSH0 DUP4 PUSH2 0x10C1 JUMP JUMPDEST PUSH2 0x8D7 CALLER DUP4 PUSH1 0x1 PUSH1 0x40 MLOAD DUP1 PUSH1 0x20 ADD PUSH1 0x40 MSTORE DUP1 PUSH0 DUP2 MSTORE POP PUSH2 0xE93 JUMP JUMPDEST POP POP JUMP JUMPDEST PUSH2 0x8E4 DUP3 PUSH2 0x4A9 JUMP JUMPDEST PUSH2 0x8ED DUP2 PUSH2 0xCAB JUMP JUMPDEST PUSH2 0x8F7 DUP4 DUP4 PUSH2 0xDA9 JUMP JUMPDEST POP POP POP POP JUMP JUMPDEST PUSH0 PUSH1 0x1 PUSH0 DUP5 PUSH20 0xFFFFFFFFFFFFFFFFFFFFFFFFFFFFFFFFFFFFFFFF AND PUSH20 0xFFFFFFFFFFFFFFFFFFFFFFFFFFFFFFFFFFFFFFFF AND DUP2 MSTORE PUSH1 0x20 ADD SWAP1 DUP2 MSTORE PUSH1 0x20 ADD PUSH0 KECCAK256 PUSH0 DUP4 PUSH20 0xFFFFFFFFFFFFFFFFFFFFFFFFFFFFFFFFFFFFFFFF AND PUSH20 0xFFFFFFFFFFFFFFFFFFFFFFFFFFFFFFFFFFFFFFFF AND DUP2 MSTORE PUSH1 0x20 ADD SWAP1 DUP2 MSTORE PUSH1 0x20 ADD PUSH0 KECCAK256 PUSH0 SWAP1 SLOAD SWAP1 PUSH2 0x100 EXP SWAP1 DIV PUSH1 0xFF AND SWAP1 POP SWAP3 SWAP2 POP POP JUMP JUMPDEST PUSH0 PUSH2 0x994 PUSH2 0xBB0 JUMP JUMPDEST SWAP1 POP DUP1 PUSH20 0xFFFFFFFFFFFFFFFFFFFFFFFFFFFFFFFFFFFFFFFF AND DUP7 PUSH20 0xFFFFFFFFFFFFFFFFFFFFFFFFFFFFFFFFFFFFFFFF AND EQ ISZERO DUP1 ISZERO PUSH2 0x9D9 JUMPI POP PUSH2 0x9D7 DUP7 DUP3 PUSH2 0x8FD JUMP JUMPDEST ISZERO JUMPDEST ISZERO PUSH2 0xA1D JUMPI DUP1 DUP7 PUSH1 0x40 MLOAD PUSH32 0xE237D92200000000000000000000000000000000000000000000000000000000 DUP2 MSTORE PUSH1 0x4 ADD PUSH2 0xA14 SWAP3 SWAP2 SWAP1 PUSH2 0x24AA JUMP JUMPDEST PUSH1 0x40 MLOAD DUP1 SWAP2 SUB SWAP1 REVERT JUMPDEST PUSH2 0xA2A DUP7 DUP7 DUP7 DUP7 DUP7 PUSH2 0x1163 JUMP JUMPDEST POP POP POP POP POP POP JUMP JUMPDEST PUSH32 0x36A5C4AAACB6B388BBD448BF11096B7DAFC5652BCC9046084FD0E95B1FB0B2CC DUP2 JUMP JUMPDEST PUSH0 PUSH32 0xD9B67A2600000000000000000000000000000000000000000000000000000000 PUSH28 0xFFFFFFFFFFFFFFFFFFFFFFFFFFFFFFFFFFFFFFFFFFFFFFFFFFFFFFFF NOT AND DUP3 PUSH28 0xFFFFFFFFFFFFFFFFFFFFFFFFFFFFFFFFFFFFFFFFFFFFFFFFFFFFFFFF NOT AND EQ DUP1 PUSH2 0xB20 JUMPI POP PUSH32 0xE89341C00000000000000000000000000000000000000000000000000000000 PUSH28 0xFFFFFFFFFFFFFFFFFFFFFFFFFFFFFFFFFFFFFFFFFFFFFFFFFFFFFFFF NOT AND DUP3 PUSH28 0xFFFFFFFFFFFFFFFFFFFFFFFFFFFFFFFFFFFFFFFFFFFFFFFFFFFFFFFF NOT AND EQ JUMPDEST DUP1 PUSH2 0xB30 JUMPI POP PUSH2 0xB2F DUP3 PUSH2 0x1269 JUMP JUMPDEST JUMPDEST SWAP1 POP SWAP2 SWAP1 POP JUMP JUMPDEST PUSH0 PUSH32 0x7965DB0B00000000000000000000000000000000000000000000000000000000 PUSH28 0xFFFFFFFFFFFFFFFFFFFFFFFFFFFFFFFFFFFFFFFFFFFFFFFFFFFFFFFF NOT AND DUP3 PUSH28 0xFFFFFFFFFFFFFFFFFFFFFFFFFFFFFFFFFFFFFFFFFFFFFFFFFFFFFFFF NOT AND EQ DUP1 PUSH2 0xBA9 JUMPI POP PUSH2 0xBA8 DUP3 PUSH2 0xA56 JUMP JUMPDEST JUMPDEST SWAP1 POP SWAP2 SWAP1 POP JUMP JUMPDEST PUSH0 CALLER SWAP1 POP SWAP1 JUMP JUMPDEST PUSH0 PUSH20 0xFFFFFFFFFFFFFFFFFFFFFFFFFFFFFFFFFFFFFFFF AND DUP5 PUSH20 0xFFFFFFFFFFFFFFFFFFFFFFFFFFFFFFFFFFFFFFFF AND SUB PUSH2 0xC27 JUMPI PUSH0 PUSH1 0x40 MLOAD PUSH32 0x57F447CE00000000000000000000000000000000000000000000000000000000 DUP2 MSTORE PUSH1 0x4 ADD PUSH2 0xC1E SWAP2 SWAP1 PUSH2 0x25F5 JUMP JUMPDEST PUSH1 0x40 MLOAD DUP1 SWAP2 SUB SWAP1 REVERT JUMPDEST PUSH0 PUSH20 0xFFFFFFFFFFFFFFFFFFFFFFFFFFFFFFFFFFFFFFFF AND DUP6 PUSH20 0xFFFFFFFFFFFFFFFFFFFFFFFFFFFFFFFFFFFFFFFF AND SUB PUSH2 0xC97 JUMPI PUSH0 PUSH1 0x40 MLOAD PUSH32 0x1A8351400000000000000000000000000000000000000000000000000000000 DUP2 MSTORE PUSH1 0x4 ADD PUSH2 0xC8E SWAP2 SWAP1 PUSH2 0x25F5 JUMP JUMPDEST PUSH1 0x40 MLOAD DUP1 SWAP2 SUB SWAP1 REVERT JUMPDEST PUSH2 0xCA4 DUP6 DUP6 DUP6 DUP6 DUP6 PUSH2 0x12D2 JUMP JUMPDEST POP POP POP POP POP JUMP JUMPDEST PUSH2 0xCBC DUP2 PUSH2 0xCB7 PUSH2 0xBB0 JUMP JUMPDEST PUSH2 0x137E JUMP JUMPDEST POP JUMP JUMPDEST PUSH0 PUSH2 0xCCA DUP4 DUP4 PUSH2 0x7BC JUMP JUMPDEST PUSH2 0xD9F JUMPI PUSH1 0x1 PUSH1 0x3 PUSH0 DUP6 DUP2 MSTORE PUSH1 0x20 ADD SWAP1 DUP2 MSTORE PUSH1 0x20 ADD PUSH0 KECCAK256 PUSH0 ADD PUSH0 DUP5 PUSH20 0xFFFFFFFFFFFFFFFFFFFFFFFFFFFFFFFFFFFFFFFF AND PUSH20 0xFFFFFFFFFFFFFFFFFFFFFFFFFFFFFFFFFFFFFFFF AND DUP2 MSTORE PUSH1 0x20 ADD SWAP1 DUP2 MSTORE PUSH1 0x20 ADD PUSH0 KECCAK256 PUSH0 PUSH2 0x100 EXP DUP2 SLOAD DUP2 PUSH1 0xFF MUL NOT AND SWAP1 DUP4 ISZERO ISZERO MUL OR SWAP1 SSTORE POP PUSH2 0xD3C PUSH2 0xBB0 JUMP JUMPDEST PUSH20 0xFFFFFFFFFFFFFFFFFFFFFFFFFFFFFFFFFFFFFFFF AND DUP3 PUSH20 0xFFFFFFFFFFFFFFFFFFFFFFFFFFFFFFFFFFFFFFFF AND DUP5 PUSH32 0x2F8788117E7EFF1D82E926EC794901D17C78024A50270940304540A733656F0D PUSH1 0x40 MLOAD PUSH1 0x40 MLOAD DUP1 SWAP2 SUB SWAP1 LOG4 PUSH1 0x1 SWAP1 POP PUSH2 0xDA3 JUMP JUMPDEST PUSH0 SWAP1 POP JUMPDEST SWAP3 SWAP2 POP POP JUMP JUMPDEST PUSH0 PUSH2 0xDB4 DUP4 DUP4 PUSH2 0x7BC JUMP JUMPDEST ISZERO PUSH2 0xE89 JUMPI PUSH0 PUSH1 0x3 PUSH0 DUP6 DUP2 MSTORE PUSH1 0x20 ADD SWAP1 DUP2 MSTORE PUSH1 0x20 ADD PUSH0 KECCAK256 PUSH0 ADD PUSH0 DUP5 PUSH20 0xFFFFFFFFFFFFFFFFFFFFFFFFFFFFFFFFFFFFFFFF AND PUSH20 0xFFFFFFFFFFFFFFFFFFFFFFFFFFFFFFFFFFFFFFFF AND DUP2 MSTORE PUSH1 0x20 ADD SWAP1 DUP2 MSTORE PUSH1 0x20 ADD PUSH0 KECCAK256 PUSH0 PUSH2 0x100 EXP DUP2 SLOAD DUP2 PUSH1 0xFF MUL NOT AND SWAP1 DUP4 ISZERO ISZERO MUL OR SWAP1 SSTORE POP PUSH2 0xE26 PUSH2 0xBB0 JUMP JUMPDEST PUSH20 0xFFFFFFFFFFFFFFFFFFFFFFFFFFFFFFFFFFFFFFFF AND DUP3 PUSH20 0xFFFFFFFFFFFFFFFFFFFFFFFFFFFFFFFFFFFFFFFF AND DUP5 PUSH32 0xF6391F5C32D9C69D2A47EA670B442974B53935D1EDC7FD64EB21E047A839171B PUSH1 0x40 MLOAD PUSH1 0x40 MLOAD DUP1 SWAP2 SUB SWAP1 LOG4 PUSH1 0x1 SWAP1 POP PUSH2 0xE8D JUMP JUMPDEST PUSH0 SWAP1 POP JUMPDEST SWAP3 SWAP2 POP POP JUMP JUMPDEST PUSH0 PUSH20 0xFFFFFFFFFFFFFFFFFFFFFFFFFFFFFFFFFFFFFFFF AND DUP5 PUSH20 0xFFFFFFFFFFFFFFFFFFFFFFFFFFFFFFFFFFFFFFFF AND SUB PUSH2 0xF03 JUMPI PUSH0 PUSH1 0x40 MLOAD PUSH32 0x57F447CE00000000000000000000000000000000000000000000000000000000 DUP2 MSTORE PUSH1 0x4 ADD PUSH2 0xEFA SWAP2 SWAP1 PUSH2 0x25F5 JUMP JUMPDEST PUSH1 0x40 MLOAD DUP1 SWAP2 SUB SWAP1 REVERT JUMPDEST PUSH0 DUP1 PUSH2 0xF0F DUP6 DUP6 PUSH2 0x13CF JUMP JUMPDEST SWAP2 POP SWAP2 POP PUSH2 0xF20 PUSH0 DUP8 DUP5 DUP5 DUP8 PUSH2 0x12D2 JUMP JUMPDEST POP POP POP POP POP POP JUMP JUMPDEST PUSH0 PUSH1 0x20 DUP3 MUL PUSH1 0x20 DUP5 ADD ADD MLOAD SWAP1 POP SWAP3 SWAP2 POP POP JUMP JUMPDEST PUSH0 PUSH1 0x20 DUP3 MUL PUSH1 0x20 DUP5 ADD ADD MLOAD SWAP1 POP SWAP3 SWAP2 POP POP JUMP JUMPDEST PUSH0 PUSH20 0xFFFFFFFFFFFFFFFFFFFFFFFFFFFFFFFFFFFFFFFF AND DUP3 PUSH20 0xFFFFFFFFFFFFFFFFFFFFFFFFFFFFFFFFFFFFFFFF AND SUB PUSH2 0xFBE JUMPI PUSH0 PUSH1 0x40 MLOAD PUSH32 0xCED3E10000000000000000000000000000000000000000000000000000000000 DUP2 MSTORE PUSH1 0x4 ADD PUSH2 0xFB5 SWAP2 SWAP1 PUSH2 0x25F5 JUMP JUMPDEST PUSH1 0x40 MLOAD DUP1 SWAP2 SUB SWAP1 REVERT JUMPDEST DUP1 PUSH1 0x1 PUSH0 DUP6 PUSH20 0xFFFFFFFFFFFFFFFFFFFFFFFFFFFFFFFFFFFFFFFF AND PUSH20 0xFFFFFFFFFFFFFFFFFFFFFFFFFFFFFFFFFFFFFFFF AND DUP2 MSTORE PUSH1 0x20 ADD SWAP1 DUP2 MSTORE PUSH1 0x20 ADD PUSH0 KECCAK256 PUSH0 DUP5 PUSH20 0xFFFFFFFFFFFFFFFFFFFFFFFFFFFFFFFFFFFFFFFF AND PUSH20 0xFFFFFFFFFFFFFFFFFFFFFFFFFFFFFFFFFFFFFFFF AND DUP2 MSTORE PUSH1 0x20 ADD SWAP1 DUP2 MSTORE PUSH1 0x20 ADD PUSH0 KECCAK256 PUSH0 PUSH2 0x100 EXP DUP2 SLOAD DUP2 PUSH1 0xFF MUL NOT AND SWAP1 DUP4 ISZERO ISZERO MUL OR SWAP1 SSTORE POP DUP2 PUSH20 0xFFFFFFFFFFFFFFFFFFFFFFFFFFFFFFFFFFFFFFFF AND DUP4 PUSH20 0xFFFFFFFFFFFFFFFFFFFFFFFFFFFFFFFFFFFFFFFF AND PUSH32 0x17307EAB39AB6107E8899845AD3D59BD9653F200F220920489CA2B5937696C31 DUP4 PUSH1 0x40 MLOAD PUSH2 0x10AA SWAP2 SWAP1 PUSH2 0x1C8B JUMP JUMPDEST PUSH1 0x40 MLOAD DUP1 SWAP2 SUB SWAP1 LOG3 POP POP POP JUMP JUMPDEST PUSH0 PUSH1 0xA SWAP1 POP SWAP2 SWAP1 POP JUMP JUMPDEST PUSH0 PUSH20 0xFFFFFFFFFFFFFFFFFFFFFFFFFFFFFFFFFFFFFFFF AND DUP4 PUSH20 0xFFFFFFFFFFFFFFFFFFFFFFFFFFFFFFFFFFFFFFFF AND SUB PUSH2 0x1131 JUMPI PUSH0 PUSH1 0x40 MLOAD PUSH32 0x1A8351400000000000000000000000000000000000000000000000000000000 DUP2 MSTORE PUSH1 0x4 ADD PUSH2 0x1128 SWAP2 SWAP1 PUSH2 0x25F5 JUMP JUMPDEST PUSH1 0x40 MLOAD DUP1 SWAP2 SUB SWAP1 REVERT JUMPDEST PUSH0 DUP1 PUSH2 0x113D DUP5 DUP5 PUSH2 0x13CF JUMP JUMPDEST SWAP2 POP SWAP2 POP PUSH2 0x115C DUP6 PUSH0 DUP5 DUP5 PUSH1 0x40 MLOAD DUP1 PUSH1 0x20 ADD PUSH1 0x40 MSTORE DUP1 PUSH0 DUP2 MSTORE POP PUSH2 0x12D2 JUMP JUMPDEST POP POP POP POP POP JUMP JUMPDEST PUSH0 PUSH20 0xFFFFFFFFFFFFFFFFFFFFFFFFFFFFFFFFFFFFFFFF AND DUP5 PUSH20 0xFFFFFFFFFFFFFFFFFFFFFFFFFFFFFFFFFFFFFFFF AND SUB PUSH2 0x11D3 JUMPI PUSH0 PUSH1 0x40 MLOAD PUSH32 0x57F447CE00000000000000000000000000000000000000000000000000000000 DUP2 MSTORE PUSH1 0x4 ADD PUSH2 0x11CA SWAP2 SWAP1 PUSH2 0x25F5 JUMP JUMPDEST PUSH1 0x40 MLOAD DUP1 SWAP2 SUB SWAP1 REVERT JUMPDEST PUSH0 PUSH20 0xFFFFFFFFFFFFFFFFFFFFFFFFFFFFFFFFFFFFFFFF AND DUP6 PUSH20 0xFFFFFFFFFFFFFFFFFFFFFFFFFFFFFFFFFFFFFFFF AND SUB PUSH2 0x1243 JUMPI PUSH0 PUSH1 0x40 MLOAD PUSH32 0x1A8351400000000000000000000000000000000000000000000000000000000 DUP2 MSTORE PUSH1 0x4 ADD PUSH2 0x123A SWAP2 SWAP1 PUSH2 0x25F5 JUMP JUMPDEST PUSH1 0x40 MLOAD DUP1 SWAP2 SUB SWAP1 REVERT JUMPDEST PUSH0 DUP1 PUSH2 0x124F DUP6 DUP6 PUSH2 0x13CF JUMP JUMPDEST SWAP2 POP SWAP2 POP PUSH2 0x1260 DUP8 DUP8 DUP5 DUP5 DUP8 PUSH2 0x12D2 JUMP JUMPDEST POP POP POP POP POP POP POP JUMP JUMPDEST PUSH0 PUSH32 0x1FFC9A700000000000000000000000000000000000000000000000000000000 PUSH28 0xFFFFFFFFFFFFFFFFFFFFFFFFFFFFFFFFFFFFFFFFFFFFFFFFFFFFFFFF NOT AND DUP3 PUSH28 0xFFFFFFFFFFFFFFFFFFFFFFFFFFFFFFFFFFFFFFFFFFFFFFFFFFFFFFFF NOT AND EQ SWAP1 POP SWAP2 SWAP1 POP JUMP JUMPDEST PUSH2 0x12DE DUP6 DUP6 DUP6 DUP6 PUSH2 0x13FF JUMP JUMPDEST PUSH0 PUSH20 0xFFFFFFFFFFFFFFFFFFFFFFFFFFFFFFFFFFFFFFFF AND DUP5 PUSH20 0xFFFFFFFFFFFFFFFFFFFFFFFFFFFFFFFFFFFFFFFF AND EQ PUSH2 0x1377 JUMPI PUSH0 PUSH2 0x131A PUSH2 0xBB0 JUMP JUMPDEST SWAP1 POP PUSH1 0x1 DUP5 MLOAD SUB PUSH2 0x1366 JUMPI PUSH0 PUSH2 0x1339 PUSH0 DUP7 PUSH2 0xF3B SWAP1 SWAP2 SWAP1 PUSH4 0xFFFFFFFF AND JUMP JUMPDEST SWAP1 POP PUSH0 PUSH2 0x134F PUSH0 DUP7 PUSH2 0xF3B SWAP1 SWAP2 SWAP1 PUSH4 0xFFFFFFFF AND JUMP JUMPDEST SWAP1 POP PUSH2 0x135F DUP4 DUP10 DUP10 DUP6 DUP6 DUP10 PUSH2 0x178F JUMP JUMPDEST POP POP PUSH2 0x1375 JUMP JUMPDEST PUSH2 0x1374 DUP2 DUP8 DUP8 DUP8 DUP8 DUP8 PUSH2 0x193E JUMP JUMPDEST JUMPDEST POP JUMPDEST POP POP POP POP POP JUMP JUMPDEST PUSH2 0x1388 DUP3 DUP3 PUSH2 0x7BC JUMP JUMPDEST PUSH2 0x13CB JUMPI DUP1 DUP3 PUSH1 0x40 MLOAD PUSH32 0xE2517D3F00000000000000000000000000000000000000000000000000000000 DUP2 MSTORE PUSH1 0x4 ADD PUSH2 0x13C2 SWAP3 SWAP2 SWAP1 PUSH2 0x260E JUMP JUMPDEST PUSH1 0x40 MLOAD DUP1 SWAP2 SUB SWAP1 REVERT JUMPDEST POP POP JUMP JUMPDEST PUSH1 0x60 DUP1 PUSH1 0x40 MLOAD SWAP2 POP PUSH1 0x1 DUP3 MSTORE DUP4 PUSH1 0x20 DUP4 ADD MSTORE PUSH1 0x40 DUP3 ADD SWAP1 POP PUSH1 0x1 DUP2 MSTORE DUP3 PUSH1 0x20 DUP3 ADD MSTORE PUSH1 0x40 DUP2 ADD PUSH1 0x40 MSTORE SWAP3 POP SWAP3 SWAP1 POP JUMP JUMPDEST DUP1 MLOAD DUP3 MLOAD EQ PUSH2 0x1449 JUMPI DUP2 MLOAD DUP2 MLOAD PUSH1 0x40 MLOAD PUSH32 0x5B05999100000000000000000000000000000000000000000000000000000000 DUP2 MSTORE PUSH1 0x4 ADD PUSH2 0x1440 SWAP3 SWAP2 SWAP1 PUSH2 0x2539 JUMP JUMPDEST PUSH1 0x40 MLOAD DUP1 SWAP2 SUB SWAP1 REVERT JUMPDEST PUSH0 PUSH2 0x1452 PUSH2 0xBB0 JUMP JUMPDEST SWAP1 POP PUSH0 JUMPDEST DUP4 MLOAD DUP2 LT ISZERO PUSH2 0x164E JUMPI PUSH0 PUSH2 0x1473 DUP3 DUP7 PUSH2 0xF3B SWAP1 SWAP2 SWAP1 PUSH4 0xFFFFFFFF AND JUMP JUMPDEST SWAP1 POP PUSH0 PUSH2 0x1489 DUP4 DUP7 PUSH2 0xF3B SWAP1 SWAP2 SWAP1 PUSH4 0xFFFFFFFF AND JUMP JUMPDEST SWAP1 POP PUSH0 PUSH20 0xFFFFFFFFFFFFFFFFFFFFFFFFFFFFFFFFFFFFFFFF AND DUP9 PUSH20 0xFFFFFFFFFFFFFFFFFFFFFFFFFFFFFFFFFFFFFFFF AND EQ PUSH2 0x15AC JUMPI PUSH0 DUP1 PUSH0 DUP5 DUP2 MSTORE PUSH1 0x20 ADD SWAP1 DUP2 MSTORE PUSH1 0x20 ADD PUSH0 KECCAK256 PUSH0 DUP11 PUSH20 0xFFFFFFFFFFFFFFFFFFFFFFFFFFFFFFFFFFFFFFFF AND PUSH20 0xFFFFFFFFFFFFFFFFFFFFFFFFFFFFFFFFFFFFFFFF AND DUP2 MSTORE PUSH1 0x20 ADD SWAP1 DUP2 MSTORE PUSH1 0x20 ADD PUSH0 KECCAK256 SLOAD SWAP1 POP DUP2 DUP2 LT ISZERO PUSH2 0x1558 JUMPI DUP9 DUP2 DUP4 DUP6 PUSH1 0x40 MLOAD PUSH32 0x3DEE4C500000000000000000000000000000000000000000000000000000000 DUP2 MSTORE PUSH1 0x4 ADD PUSH2 0x154F SWAP5 SWAP4 SWAP3 SWAP2 SWAP1 PUSH2 0x2635 JUMP JUMPDEST PUSH1 0x40 MLOAD DUP1 SWAP2 SUB SWAP1 REVERT JUMPDEST DUP2 DUP2 SUB PUSH0 DUP1 DUP6 DUP2 MSTORE PUSH1 0x20 ADD SWAP1 DUP2 MSTORE PUSH1 0x20 ADD PUSH0 KECCAK256 PUSH0 DUP12 PUSH20 0xFFFFFFFFFFFFFFFFFFFFFFFFFFFFFFFFFFFFFFFF AND PUSH20 0xFFFFFFFFFFFFFFFFFFFFFFFFFFFFFFFFFFFFFFFF AND DUP2 MSTORE PUSH1 0x20 ADD SWAP1 DUP2 MSTORE PUSH1 0x20 ADD PUSH0 KECCAK256 DUP2 SWAP1 SSTORE POP POP JUMPDEST PUSH0 PUSH20 0xFFFFFFFFFFFFFFFFFFFFFFFFFFFFFFFFFFFFFFFF AND DUP8 PUSH20 0xFFFFFFFFFFFFFFFFFFFFFFFFFFFFFFFFFFFFFFFF AND EQ PUSH2 0x1641 JUMPI DUP1 PUSH0 DUP1 DUP5 DUP2 MSTORE PUSH1 0x20 ADD SWAP1 DUP2 MSTORE PUSH1 0x20 ADD PUSH0 KECCAK256 PUSH0 DUP10 PUSH20 0xFFFFFFFFFFFFFFFFFFFFFFFFFFFFFFFFFFFFFFFF AND PUSH20 0xFFFFFFFFFFFFFFFFFFFFFFFFFFFFFFFFFFFFFFFF AND DUP2 MSTORE PUSH1 0x20 ADD SWAP1 DUP2 MSTORE PUSH1 0x20 ADD PUSH0 KECCAK256 PUSH0 DUP3 DUP3 SLOAD PUSH2 0x1639 SWAP2 SWAP1 PUSH2 0x26A5 JUMP JUMPDEST SWAP3 POP POP DUP2 SWAP1 SSTORE POP JUMPDEST POP POP DUP1 PUSH1 0x1 ADD SWAP1 POP PUSH2 0x1456 JUMP JUMPDEST POP PUSH1 0x1 DUP4 MLOAD SUB PUSH2 0x1709 JUMPI PUSH0 PUSH2 0x166C PUSH0 DUP6 PUSH2 0xF3B SWAP1 SWAP2 SWAP1 PUSH4 0xFFFFFFFF AND JUMP JUMPDEST SWAP1 POP PUSH0 PUSH2 0x1682 PUSH0 DUP6 PUSH2 0xF3B SWAP1 SWAP2 SWAP1 PUSH4 0xFFFFFFFF AND JUMP JUMPDEST SWAP1 POP DUP6 PUSH20 0xFFFFFFFFFFFFFFFFFFFFFFFFFFFFFFFFFFFFFFFF AND DUP8 PUSH20 0xFFFFFFFFFFFFFFFFFFFFFFFFFFFFFFFFFFFFFFFF AND DUP5 PUSH20 0xFFFFFFFFFFFFFFFFFFFFFFFFFFFFFFFFFFFFFFFF AND PUSH32 0xC3D58168C5AE7397731D063D5BBF3D657854427343F4C083240F7AACAA2D0F62 DUP6 DUP6 PUSH1 0x40 MLOAD PUSH2 0x16FA SWAP3 SWAP2 SWAP1 PUSH2 0x2539 JUMP JUMPDEST PUSH1 0x40 MLOAD DUP1 SWAP2 SUB SWAP1 LOG4 POP POP PUSH2 0x1788 JUMP JUMPDEST DUP4 PUSH20 0xFFFFFFFFFFFFFFFFFFFFFFFFFFFFFFFFFFFFFFFF AND DUP6 PUSH20 0xFFFFFFFFFFFFFFFFFFFFFFFFFFFFFFFFFFFFFFFF AND DUP3 PUSH20 0xFFFFFFFFFFFFFFFFFFFFFFFFFFFFFFFFFFFFFFFF AND PUSH32 0x4A39DC06D4C0DBC64B70AF90FD698A233A518AA5D07E595D983B8C0526C8F7FB DUP7 DUP7 PUSH1 0x40 MLOAD PUSH2 0x177F SWAP3 SWAP2 SWAP1 PUSH2 0x26D8 JUMP JUMPDEST PUSH1 0x40 MLOAD DUP1 SWAP2 SUB SWAP1 LOG4 JUMPDEST POP POP POP POP POP JUMP JUMPDEST PUSH0 DUP5 PUSH20 0xFFFFFFFFFFFFFFFFFFFFFFFFFFFFFFFFFFFFFFFF AND EXTCODESIZE GT ISZERO PUSH2 0x1936 JUMPI DUP4 PUSH20 0xFFFFFFFFFFFFFFFFFFFFFFFFFFFFFFFFFFFFFFFF AND PUSH4 0xF23A6E61 DUP8 DUP8 DUP7 DUP7 DUP7 PUSH1 0x40 MLOAD DUP7 PUSH4 0xFFFFFFFF AND PUSH1 0xE0 SHL DUP2 MSTORE PUSH1 0x4 ADD PUSH2 0x17EF SWAP6 SWAP5 SWAP4 SWAP3 SWAP2 SWAP1 PUSH2 0x275F JUMP JUMPDEST PUSH1 0x20 PUSH1 0x40 MLOAD DUP1 DUP4 SUB DUP2 PUSH0 DUP8 GAS CALL SWAP3 POP POP POP DUP1 ISZERO PUSH2 0x182A JUMPI POP PUSH1 0x40 MLOAD RETURNDATASIZE PUSH1 0x1F NOT PUSH1 0x1F DUP3 ADD AND DUP3 ADD DUP1 PUSH1 0x40 MSTORE POP DUP2 ADD SWAP1 PUSH2 0x1827 SWAP2 SWAP1 PUSH2 0x27CB JUMP JUMPDEST PUSH1 0x1 JUMPDEST PUSH2 0x18AB JUMPI RETURNDATASIZE DUP1 PUSH0 DUP2 EQ PUSH2 0x1858 JUMPI PUSH1 0x40 MLOAD SWAP2 POP PUSH1 0x1F NOT PUSH1 0x3F RETURNDATASIZE ADD AND DUP3 ADD PUSH1 0x40 MSTORE RETURNDATASIZE DUP3 MSTORE RETURNDATASIZE PUSH0 PUSH1 0x20 DUP5 ADD RETURNDATACOPY PUSH2 0x185D JUMP JUMPDEST PUSH1 0x60 SWAP2 POP JUMPDEST POP PUSH0 DUP2 MLOAD SUB PUSH2 0x18A3 JUMPI DUP5 PUSH1 0x40 MLOAD PUSH32 0x57F447CE00000000000000000000000000000000000000000000000000000000 DUP2 MSTORE PUSH1 0x4 ADD PUSH2 0x189A SWAP2 SWAP1 PUSH2 0x25F5 JUMP JUMPDEST PUSH1 0x40 MLOAD DUP1 SWAP2 SUB SWAP1 REVERT JUMPDEST DUP1 MLOAD DUP2 PUSH1 0x20 ADD REVERT JUMPDEST PUSH4 0xF23A6E61 PUSH1 0xE0 SHL PUSH28 0xFFFFFFFFFFFFFFFFFFFFFFFFFFFFFFFFFFFFFFFFFFFFFFFFFFFFFFFF NOT AND DUP2 PUSH28 0xFFFFFFFFFFFFFFFFFFFFFFFFFFFFFFFFFFFFFFFFFFFFFFFFFFFFFFFF NOT AND EQ PUSH2 0x1934 JUMPI DUP5 PUSH1 0x40 MLOAD PUSH32 0x57F447CE00000000000000000000000000000000000000000000000000000000 DUP2 MSTORE PUSH1 0x4 ADD PUSH2 0x192B SWAP2 SWAP1 PUSH2 0x25F5 JUMP JUMPDEST PUSH1 0x40 MLOAD DUP1 SWAP2 SUB SWAP1 REVERT JUMPDEST POP JUMPDEST POP POP POP POP POP POP JUMP JUMPDEST PUSH0 DUP5 PUSH20 0xFFFFFFFFFFFFFFFFFFFFFFFFFFFFFFFFFFFFFFFF AND EXTCODESIZE GT ISZERO PUSH2 0x1AE5 JUMPI DUP4 PUSH20 0xFFFFFFFFFFFFFFFFFFFFFFFFFFFFFFFFFFFFFFFF AND PUSH4 0xBC197C81 DUP8 DUP8 DUP7 DUP7 DUP7 PUSH1 0x40 MLOAD DUP7 PUSH4 0xFFFFFFFF AND PUSH1 0xE0 SHL DUP2 MSTORE PUSH1 0x4 ADD PUSH2 0x199E SWAP6 SWAP5 SWAP4 SWAP3 SWAP2 SWAP1 PUSH2 0x27F6 JUMP JUMPDEST PUSH1 0x20 PUSH1 0x40 MLOAD DUP1 DUP4 SUB DUP2 PUSH0 DUP8 GAS CALL SWAP3 POP POP POP DUP1 ISZERO PUSH2 0x19D9 JUMPI POP PUSH1 0x40 MLOAD RETURNDATASIZE PUSH1 0x1F NOT PUSH1 0x1F DUP3 ADD AND DUP3 ADD DUP1 PUSH1 0x40 MSTORE POP DUP2 ADD SWAP1 PUSH2 0x19D6 SWAP2 SWAP1 PUSH2 0x27CB JUMP JUMPDEST PUSH1 0x1 JUMPDEST PUSH2 0x1A5A JUMPI RETURNDATASIZE DUP1 PUSH0 DUP2 EQ PUSH2 0x1A07 JUMPI PUSH1 0x40 MLOAD SWAP2 POP PUSH1 0x1F NOT PUSH1 0x3F RETURNDATASIZE ADD AND DUP3 ADD PUSH1 0x40 MSTORE RETURNDATASIZE DUP3 MSTORE RETURNDATASIZE PUSH0 PUSH1 0x20 DUP5 ADD RETURNDATACOPY PUSH2 0x1A0C JUMP JUMPDEST PUSH1 0x60 SWAP2 POP JUMPDEST POP PUSH0 DUP2 MLOAD SUB PUSH2 0x1A52 JUMPI DUP5 PUSH1 0x40 MLOAD PUSH32 0x57F447CE00000000000000000000000000000000000000000000000000000000 DUP2 MSTORE PUSH1 0x4 ADD PUSH2 0x1A49 SWAP2 SWAP1 PUSH2 0x25F5 JUMP JUMPDEST PUSH1 0x40 MLOAD DUP1 SWAP2 SUB SWAP1 REVERT JUMPDEST DUP1 MLOAD DUP2 PUSH1 0x20 ADD REVERT JUMPDEST PUSH4 0xBC197C81 PUSH1 0xE0 SHL PUSH28 0xFFFFFFFFFFFFFFFFFFFFFFFFFFFFFFFFFFFFFFFFFFFFFFFFFFFFFFFF NOT AND DUP2 PUSH28 0xFFFFFFFFFFFFFFFFFFFFFFFFFFFFFFFFFFFFFFFFFFFFFFFFFFFFFFFF NOT AND EQ PUSH2 0x1AE3 JUMPI DUP5 PUSH1 0x40 MLOAD PUSH32 0x57F447CE00000000000000000000000000000000000000000000000000000000 DUP2 MSTORE PUSH1 0x4 ADD PUSH2 0x1ADA SWAP2 SWAP1 PUSH2 0x25F5 JUMP JUMPDEST PUSH1 0x40 MLOAD DUP1 SWAP2 SUB SWAP1 REVERT JUMPDEST POP JUMPDEST POP POP POP POP POP POP JUMP JUMPDEST PUSH0 PUSH1 0x40 MLOAD SWAP1 POP SWAP1 JUMP JUMPDEST PUSH0 DUP1 REVERT JUMPDEST PUSH0 DUP1 REVERT JUMPDEST PUSH0 PUSH20 0xFFFFFFFFFFFFFFFFFFFFFFFFFFFFFFFFFFFFFFFF DUP3 AND SWAP1 POP SWAP2 SWAP1 POP JUMP JUMPDEST PUSH0 PUSH2 0x1B27 DUP3 PUSH2 0x1AFE JUMP JUMPDEST SWAP1 POP SWAP2 SWAP1 POP JUMP JUMPDEST PUSH2 0x1B37 DUP2 PUSH2 0x1B1D JUMP JUMPDEST DUP2 EQ PUSH2 0x1B41 JUMPI PUSH0 DUP1 REVERT JUMPDEST POP JUMP JUMPDEST PUSH0 DUP2 CALLDATALOAD SWAP1 POP PUSH2 0x1B52 DUP2 PUSH2 0x1B2E JUMP JUMPDEST SWAP3 SWAP2 POP POP JUMP JUMPDEST PUSH0 DUP2 SWAP1 POP SWAP2 SWAP1 POP JUMP JUMPDEST PUSH2 0x1B6A DUP2 PUSH2 0x1B58 JUMP JUMPDEST DUP2 EQ PUSH2 0x1B74 JUMPI PUSH0 DUP1 REVERT JUMPDEST POP JUMP JUMPDEST PUSH0 DUP2 CALLDATALOAD SWAP1 POP PUSH2 0x1B85 DUP2 PUSH2 0x1B61 JUMP JUMPDEST SWAP3 SWAP2 POP POP JUMP JUMPDEST PUSH0 DUP1 PUSH1 0x40 DUP4 DUP6 SUB SLT ISZERO PUSH2 0x1BA1 JUMPI PUSH2 0x1BA0 PUSH2 0x1AF6 JUMP JUMPDEST JUMPDEST PUSH0 PUSH2 0x1BAE DUP6 DUP3 DUP7 ADD PUSH2 0x1B44 JUMP JUMPDEST SWAP3 POP POP PUSH1 0x20 PUSH2 0x1BBF DUP6 DUP3 DUP7 ADD PUSH2 0x1B77 JUMP JUMPDEST SWAP2 POP POP SWAP3 POP SWAP3 SWAP1 POP JUMP JUMPDEST PUSH2 0x1BD2 DUP2 PUSH2 0x1B58 JUMP JUMPDEST DUP3 MSTORE POP POP JUMP JUMPDEST PUSH0 PUSH1 0x20 DUP3 ADD SWAP1 POP PUSH2 0x1BEB PUSH0 DUP4 ADD DUP5 PUSH2 0x1BC9 JUMP JUMPDEST SWAP3 SWAP2 POP POP JUMP JUMPDEST PUSH0 PUSH32 0xFFFFFFFF00000000000000000000000000000000000000000000000000000000 DUP3 AND SWAP1 POP SWAP2 SWAP1 POP JUMP JUMPDEST PUSH2 0x1C25 DUP2 PUSH2 0x1BF1 JUMP JUMPDEST DUP2 EQ PUSH2 0x1C2F JUMPI PUSH0 DUP1 REVERT JUMPDEST POP JUMP JUMPDEST PUSH0 DUP2 CALLDATALOAD SWAP1 POP PUSH2 0x1C40 DUP2 PUSH2 0x1C1C JUMP JUMPDEST SWAP3 SWAP2 POP POP JUMP JUMPDEST PUSH0 PUSH1 0x20 DUP3 DUP5 SUB SLT ISZERO PUSH2 0x1C5B JUMPI PUSH2 0x1C5A PUSH2 0x1AF6 JUMP JUMPDEST JUMPDEST PUSH0 PUSH2 0x1C68 DUP5 DUP3 DUP6 ADD PUSH2 0x1C32 JUMP JUMPDEST SWAP2 POP POP SWAP3 SWAP2 POP POP JUMP JUMPDEST PUSH0 DUP2 ISZERO ISZERO SWAP1 POP SWAP2 SWAP1 POP JUMP JUMPDEST PUSH2 0x1C85 DUP2 PUSH2 0x1C71 JUMP JUMPDEST DUP3 MSTORE POP POP JUMP JUMPDEST PUSH0 PUSH1 0x20 DUP3 ADD SWAP1 POP PUSH2 0x1C9E PUSH0 DUP4 ADD DUP5 PUSH2 0x1C7C JUMP JUMPDEST SWAP3 SWAP2 POP POP JUMP JUMPDEST PUSH0 PUSH1 0x20 DUP3 DUP5 SUB SLT ISZERO PUSH2 0x1CB9 JUMPI PUSH2 0x1CB8 PUSH2 0x1AF6 JUMP JUMPDEST JUMPDEST PUSH0 PUSH2 0x1CC6 DUP5 DUP3 DUP6 ADD PUSH2 0x1B77 JUMP JUMPDEST SWAP2 POP POP SWAP3 SWAP2 POP POP JUMP JUMPDEST PUSH0 DUP2 MLOAD SWAP1 POP SWAP2 SWAP1 POP JUMP JUMPDEST PUSH0 DUP3 DUP3 MSTORE PUSH1 0x20 DUP3 ADD SWAP1 POP SWAP3 SWAP2 POP POP JUMP JUMPDEST PUSH0 JUMPDEST DUP4 DUP2 LT ISZERO PUSH2 0x1D06 JUMPI DUP1 DUP3 ADD MLOAD DUP2 DUP5 ADD MSTORE PUSH1 0x20 DUP2 ADD SWAP1 POP PUSH2 0x1CEB JUMP JUMPDEST PUSH0 DUP5 DUP5 ADD MSTORE POP POP POP POP JUMP JUMPDEST PUSH0 PUSH1 0x1F NOT PUSH1 0x1F DUP4 ADD AND SWAP1 POP SWAP2 SWAP1 POP JUMP JUMPDEST PUSH0 PUSH2 0x1D2B DUP3 PUSH2 0x1CCF JUMP JUMPDEST PUSH2 0x1D35 DUP2 DUP6 PUSH2 0x1CD9 JUMP JUMPDEST SWAP4 POP PUSH2 0x1D45 DUP2 DUP6 PUSH1 0x20 DUP7 ADD PUSH2 0x1CE9 JUMP JUMPDEST PUSH2 0x1D4E DUP2 PUSH2 0x1D11 JUMP JUMPDEST DUP5 ADD SWAP2 POP POP SWAP3 SWAP2 POP POP JUMP JUMPDEST PUSH0 PUSH1 0x20 DUP3 ADD SWAP1 POP DUP2 DUP2 SUB PUSH0 DUP4 ADD MSTORE PUSH2 0x1D71 DUP2 DUP5 PUSH2 0x1D21 JUMP JUMPDEST SWAP1 POP SWAP3 SWAP2 POP POP JUMP JUMPDEST PUSH0 DUP2 SWAP1 POP SWAP2 SWAP1 POP JUMP JUMPDEST PUSH2 0x1D8B DUP2 PUSH2 0x1D79 JUMP JUMPDEST DUP2 EQ PUSH2 0x1D95 JUMPI PUSH0 DUP1 REVERT JUMPDEST POP JUMP JUMPDEST PUSH0 DUP2 CALLDATALOAD SWAP1 POP PUSH2 0x1DA6 DUP2 PUSH2 0x1D82 JUMP JUMPDEST SWAP3 SWAP2 POP POP JUMP JUMPDEST PUSH0 PUSH1 0x20 DUP3 DUP5 SUB SLT ISZERO PUSH2 0x1DC1 JUMPI PUSH2 0x1DC0 PUSH2 0x1AF6 JUMP JUMPDEST JUMPDEST PUSH0 PUSH2 0x1DCE DUP5 DUP3 DUP6 ADD PUSH2 0x1D98 JUMP JUMPDEST SWAP2 POP POP SWAP3 SWAP2 POP POP JUMP JUMPDEST PUSH2 0x1DE0 DUP2 PUSH2 0x1D79 JUMP JUMPDEST DUP3 MSTORE POP POP JUMP JUMPDEST PUSH0 PUSH1 0x20 DUP3 ADD SWAP1 POP PUSH2 0x1DF9 PUSH0 DUP4 ADD DUP5 PUSH2 0x1DD7 JUMP JUMPDEST SWAP3 SWAP2 POP POP JUMP JUMPDEST PUSH0 DUP1 REVERT JUMPDEST PUSH32 0x4E487B7100000000000000000000000000000000000000000000000000000000 PUSH0 MSTORE PUSH1 0x41 PUSH1 0x4 MSTORE PUSH1 0x24 PUSH0 REVERT JUMPDEST PUSH2 0x1E39 DUP3 PUSH2 0x1D11 JUMP JUMPDEST DUP2 ADD DUP2 DUP2 LT PUSH8 0xFFFFFFFFFFFFFFFF DUP3 GT OR ISZERO PUSH2 0x1E58 JUMPI PUSH2 0x1E57 PUSH2 0x1E03 JUMP JUMPDEST JUMPDEST DUP1 PUSH1 0x40 MSTORE POP POP POP JUMP JUMPDEST PUSH0 PUSH2 0x1E6A PUSH2 0x1AED JUMP JUMPDEST SWAP1 POP PUSH2 0x1E76 DUP3 DUP3 PUSH2 0x1E30 JUMP JUMPDEST SWAP2 SWAP1 POP JUMP JUMPDEST PUSH0 PUSH8 0xFFFFFFFFFFFFFFFF DUP3 GT ISZERO PUSH2 0x1E95 JUMPI PUSH2 0x1E94 PUSH2 0x1E03 JUMP JUMPDEST JUMPDEST PUSH1 0x20 DUP3 MUL SWAP1 POP PUSH1 0x20 DUP2 ADD SWAP1 POP SWAP2 SWAP1 POP JUMP JUMPDEST PUSH0 DUP1 REVERT JUMPDEST PUSH0 PUSH2 0x1EBC PUSH2 0x1EB7 DUP5 PUSH2 0x1E7B JUMP JUMPDEST PUSH2 0x1E61 JUMP JUMPDEST SWAP1 POP DUP1 DUP4 DUP3 MSTORE PUSH1 0x20 DUP3 ADD SWAP1 POP PUSH1 0x20 DUP5 MUL DUP4 ADD DUP6 DUP2 GT ISZERO PUSH2 0x1EDF JUMPI PUSH2 0x1EDE PUSH2 0x1EA6 JUMP JUMPDEST JUMPDEST DUP4 JUMPDEST DUP2 DUP2 LT ISZERO PUSH2 0x1F08 JUMPI DUP1 PUSH2 0x1EF4 DUP9 DUP3 PUSH2 0x1B77 JUMP JUMPDEST DUP5 MSTORE PUSH1 0x20 DUP5 ADD SWAP4 POP POP PUSH1 0x20 DUP2 ADD SWAP1 POP PUSH2 0x1EE1 JUMP JUMPDEST POP POP POP SWAP4 SWAP3 POP POP POP JUMP JUMPDEST PUSH0 DUP3 PUSH1 0x1F DUP4 ADD SLT PUSH2 0x1F26 JUMPI PUSH2 0x1F25 PUSH2 0x1DFF JUMP JUMPDEST JUMPDEST DUP2 CALLDATALOAD PUSH2 0x1F36 DUP5 DUP3 PUSH1 0x20 DUP7 ADD PUSH2 0x1EAA JUMP JUMPDEST SWAP2 POP POP SWAP3 SWAP2 POP POP JUMP JUMPDEST PUSH0 DUP1 REVERT JUMPDEST PUSH0 PUSH8 0xFFFFFFFFFFFFFFFF DUP3 GT ISZERO PUSH2 0x1F5D JUMPI PUSH2 0x1F5C PUSH2 0x1E03 JUMP JUMPDEST JUMPDEST PUSH2 0x1F66 DUP3 PUSH2 0x1D11 JUMP JUMPDEST SWAP1 POP PUSH1 0x20 DUP2 ADD SWAP1 POP SWAP2 SWAP1 POP JUMP JUMPDEST DUP3 DUP2 DUP4 CALLDATACOPY PUSH0 DUP4 DUP4 ADD MSTORE POP POP POP JUMP JUMPDEST PUSH0 PUSH2 0x1F93 PUSH2 0x1F8E DUP5 PUSH2 0x1F43 JUMP JUMPDEST PUSH2 0x1E61 JUMP JUMPDEST SWAP1 POP DUP3 DUP2 MSTORE PUSH1 0x20 DUP2 ADD DUP5 DUP5 DUP5 ADD GT ISZERO PUSH2 0x1FAF JUMPI PUSH2 0x1FAE PUSH2 0x1F3F JUMP JUMPDEST JUMPDEST PUSH2 0x1FBA DUP5 DUP3 DUP6 PUSH2 0x1F73 JUMP JUMPDEST POP SWAP4 SWAP3 POP POP POP JUMP JUMPDEST PUSH0 DUP3 PUSH1 0x1F DUP4 ADD SLT PUSH2 0x1FD6 JUMPI PUSH2 0x1FD5 PUSH2 0x1DFF JUMP JUMPDEST JUMPDEST DUP2 CALLDATALOAD PUSH2 0x1FE6 DUP5 DUP3 PUSH1 0x20 DUP7 ADD PUSH2 0x1F81 JUMP JUMPDEST SWAP2 POP POP SWAP3 SWAP2 POP POP JUMP JUMPDEST PUSH0 DUP1 PUSH0 DUP1 PUSH0 PUSH1 0xA0 DUP7 DUP9 SUB SLT ISZERO PUSH2 0x2008 JUMPI PUSH2 0x2007 PUSH2 0x1AF6 JUMP JUMPDEST JUMPDEST PUSH0 PUSH2 0x2015 DUP9 DUP3 DUP10 ADD PUSH2 0x1B44 JUMP JUMPDEST SWAP6 POP POP PUSH1 0x20 PUSH2 0x2026 DUP9 DUP3 DUP10 ADD PUSH2 0x1B44 JUMP JUMPDEST SWAP5 POP POP PUSH1 0x40 DUP7 ADD CALLDATALOAD PUSH8 0xFFFFFFFFFFFFFFFF DUP2 GT ISZERO PUSH2 0x2047 JUMPI PUSH2 0x2046 PUSH2 0x1AFA JUMP JUMPDEST JUMPDEST PUSH2 0x2053 DUP9 DUP3 DUP10 ADD PUSH2 0x1F12 JUMP JUMPDEST SWAP4 POP POP PUSH1 0x60 DUP7 ADD CALLDATALOAD PUSH8 0xFFFFFFFFFFFFFFFF DUP2 GT ISZERO PUSH2 0x2074 JUMPI PUSH2 0x2073 PUSH2 0x1AFA JUMP JUMPDEST JUMPDEST PUSH2 0x2080 DUP9 DUP3 DUP10 ADD PUSH2 0x1F12 JUMP JUMPDEST SWAP3 POP POP PUSH1 0x80 DUP7 ADD CALLDATALOAD PUSH8 0xFFFFFFFFFFFFFFFF DUP2 GT ISZERO PUSH2 0x20A1 JUMPI PUSH2 0x20A0 PUSH2 0x1AFA JUMP JUMPDEST JUMPDEST PUSH2 0x20AD DUP9 DUP3 DUP10 ADD PUSH2 0x1FC2 JUMP JUMPDEST SWAP2 POP POP SWAP3 SWAP6 POP SWAP3 SWAP6 SWAP1 SWAP4 POP JUMP JUMPDEST PUSH0 DUP1 PUSH1 0x40 DUP4 DUP6 SUB SLT ISZERO PUSH2 0x20D0 JUMPI PUSH2 0x20CF PUSH2 0x1AF6 JUMP JUMPDEST JUMPDEST PUSH0 PUSH2 0x20DD DUP6 DUP3 DUP7 ADD PUSH2 0x1D98 JUMP JUMPDEST SWAP3 POP POP PUSH1 0x20 PUSH2 0x20EE DUP6 DUP3 DUP7 ADD PUSH2 0x1B44 JUMP JUMPDEST SWAP2 POP POP SWAP3 POP SWAP3 SWAP1 POP JUMP JUMPDEST PUSH0 PUSH8 0xFFFFFFFFFFFFFFFF DUP3 GT ISZERO PUSH2 0x2112 JUMPI PUSH2 0x2111 PUSH2 0x1E03 JUMP JUMPDEST JUMPDEST PUSH1 0x20 DUP3 MUL SWAP1 POP PUSH1 0x20 DUP2 ADD SWAP1 POP SWAP2 SWAP1 POP JUMP JUMPDEST PUSH0 PUSH2 0x2135 PUSH2 0x2130 DUP5 PUSH2 0x20F8 JUMP JUMPDEST PUSH2 0x1E61 JUMP JUMPDEST SWAP1 POP DUP1 DUP4 DUP3 MSTORE PUSH1 0x20 DUP3 ADD SWAP1 POP PUSH1 0x20 DUP5 MUL DUP4 ADD DUP6 DUP2 GT ISZERO PUSH2 0x2158 JUMPI PUSH2 0x2157 PUSH2 0x1EA6 JUMP JUMPDEST JUMPDEST DUP4 JUMPDEST DUP2 DUP2 LT ISZERO PUSH2 0x2181 JUMPI DUP1 PUSH2 0x216D DUP9 DUP3 PUSH2 0x1B44 JUMP JUMPDEST DUP5 MSTORE PUSH1 0x20 DUP5 ADD SWAP4 POP POP PUSH1 0x20 DUP2 ADD SWAP1 POP PUSH2 0x215A JUMP JUMPDEST POP POP POP SWAP4 SWAP3 POP POP POP JUMP JUMPDEST PUSH0 DUP3 PUSH1 0x1F DUP4 ADD SLT PUSH2 0x219F JUMPI PUSH2 0x219E PUSH2 0x1DFF JUMP JUMPDEST JUMPDEST DUP2 CALLDATALOAD PUSH2 0x21AF DUP5 DUP3 PUSH1 0x20 DUP7 ADD PUSH2 0x2123 JUMP JUMPDEST SWAP2 POP POP SWAP3 SWAP2 POP POP JUMP JUMPDEST PUSH0 DUP1 PUSH1 0x40 DUP4 DUP6 SUB SLT ISZERO PUSH2 0x21CE JUMPI PUSH2 0x21CD PUSH2 0x1AF6 JUMP JUMPDEST JUMPDEST PUSH0 DUP4 ADD CALLDATALOAD PUSH8 0xFFFFFFFFFFFFFFFF DUP2 GT ISZERO PUSH2 0x21EB JUMPI PUSH2 0x21EA PUSH2 0x1AFA JUMP JUMPDEST JUMPDEST PUSH2 0x21F7 DUP6 DUP3 DUP7 ADD PUSH2 0x218B JUMP JUMPDEST SWAP3 POP POP PUSH1 0x20 DUP4 ADD CALLDATALOAD PUSH8 0xFFFFFFFFFFFFFFFF DUP2 GT ISZERO PUSH2 0x2218 JUMPI PUSH2 0x2217 PUSH2 0x1AFA JUMP JUMPDEST JUMPDEST PUSH2 0x2224 DUP6 DUP3 DUP7 ADD PUSH2 0x1F12 JUMP JUMPDEST SWAP2 POP POP SWAP3 POP SWAP3 SWAP1 POP JUMP JUMPDEST PUSH0 DUP2 MLOAD SWAP1 POP SWAP2 SWAP1 POP JUMP JUMPDEST PUSH0 DUP3 DUP3 MSTORE PUSH1 0x20 DUP3 ADD SWAP1 POP SWAP3 SWAP2 POP POP JUMP JUMPDEST PUSH0 DUP2 SWAP1 POP PUSH1 0x20 DUP3 ADD SWAP1 POP SWAP2 SWAP1 POP JUMP JUMPDEST PUSH2 0x2260 DUP2 PUSH2 0x1B58 JUMP JUMPDEST DUP3 MSTORE POP POP JUMP JUMPDEST PUSH0 PUSH2 0x2271 DUP4 DUP4 PUSH2 0x2257 JUMP JUMPDEST PUSH1 0x20 DUP4 ADD SWAP1 POP SWAP3 SWAP2 POP POP JUMP JUMPDEST PUSH0 PUSH1 0x20 DUP3 ADD SWAP1 POP SWAP2 SWAP1 POP JUMP JUMPDEST PUSH0 PUSH2 0x2293 DUP3 PUSH2 0x222E JUMP JUMPDEST PUSH2 0x229D DUP2 DUP6 PUSH2 0x2238 JUMP JUMPDEST SWAP4 POP PUSH2 0x22A8 DUP4 PUSH2 0x2248 JUMP JUMPDEST DUP1 PUSH0 JUMPDEST DUP4 DUP2 LT ISZERO PUSH2 0x22D8 JUMPI DUP2 MLOAD PUSH2 0x22BF DUP9 DUP3 PUSH2 0x2266 JUMP JUMPDEST SWAP8 POP PUSH2 0x22CA DUP4 PUSH2 0x227D JUMP JUMPDEST SWAP3 POP POP PUSH1 0x1 DUP2 ADD SWAP1 POP PUSH2 0x22AB JUMP JUMPDEST POP DUP6 SWAP4 POP POP POP POP SWAP3 SWAP2 POP POP JUMP JUMPDEST PUSH0 PUSH1 0x20 DUP3 ADD SWAP1 POP DUP2 DUP2 SUB PUSH0 DUP4 ADD MSTORE PUSH2 0x22FD DUP2 DUP5 PUSH2 0x2289 JUMP JUMPDEST SWAP1 POP SWAP3 SWAP2 POP POP JUMP JUMPDEST PUSH2 0x230E DUP2 PUSH2 0x1C71 JUMP JUMPDEST DUP2 EQ PUSH2 0x2318 JUMPI PUSH0 DUP1 REVERT JUMPDEST POP JUMP JUMPDEST PUSH0 DUP2 CALLDATALOAD SWAP1 POP PUSH2 0x2329 DUP2 PUSH2 0x2305 JUMP JUMPDEST SWAP3 SWAP2 POP POP JUMP JUMPDEST PUSH0 DUP1 PUSH1 0x40 DUP4 DUP6 SUB SLT ISZERO PUSH2 0x2345 JUMPI PUSH2 0x2344 PUSH2 0x1AF6 JUMP JUMPDEST JUMPDEST PUSH0 PUSH2 0x2352 DUP6 DUP3 DUP7 ADD PUSH2 0x1B44 JUMP JUMPDEST SWAP3 POP POP PUSH1 0x20 PUSH2 0x2363 DUP6 DUP3 DUP7 ADD PUSH2 0x231B JUMP JUMPDEST SWAP2 POP POP SWAP3 POP SWAP3 SWAP1 POP JUMP JUMPDEST PUSH0 DUP1 PUSH1 0x40 DUP4 DUP6 SUB SLT ISZERO PUSH2 0x2383 JUMPI PUSH2 0x2382 PUSH2 0x1AF6 JUMP JUMPDEST JUMPDEST PUSH0 PUSH2 0x2390 DUP6 DUP3 DUP7 ADD PUSH2 0x1B44 JUMP JUMPDEST SWAP3 POP POP PUSH1 0x20 PUSH2 0x23A1 DUP6 DUP3 DUP7 ADD PUSH2 0x1B44 JUMP JUMPDEST SWAP2 POP POP SWAP3 POP SWAP3 SWAP1 POP JUMP JUMPDEST PUSH0 DUP1 PUSH0 DUP1 PUSH0 PUSH1 0xA0 DUP7 DUP9 SUB SLT ISZERO PUSH2 0x23C4 JUMPI PUSH2 0x23C3 PUSH2 0x1AF6 JUMP JUMPDEST JUMPDEST PUSH0 PUSH2 0x23D1 DUP9 DUP3 DUP10 ADD PUSH2 0x1B44 JUMP JUMPDEST SWAP6 POP POP PUSH1 0x20 PUSH2 0x23E2 DUP9 DUP3 DUP10 ADD PUSH2 0x1B44 JUMP JUMPDEST SWAP5 POP POP PUSH1 0x40 PUSH2 0x23F3 DUP9 DUP3 DUP10 ADD PUSH2 0x1B77 JUMP JUMPDEST SWAP4 POP POP PUSH1 0x60 PUSH2 0x2404 DUP9 DUP3 DUP10 ADD PUSH2 0x1B77 JUMP JUMPDEST SWAP3 POP POP PUSH1 0x80 DUP7 ADD CALLDATALOAD PUSH8 0xFFFFFFFFFFFFFFFF DUP2 GT ISZERO PUSH2 0x2425 JUMPI PUSH2 0x2424 PUSH2 0x1AFA JUMP JUMPDEST JUMPDEST PUSH2 0x2431 DUP9 DUP3 DUP10 ADD PUSH2 0x1FC2 JUMP JUMPDEST SWAP2 POP POP SWAP3 SWAP6 POP SWAP3 SWAP6 SWAP1 SWAP4 POP JUMP JUMPDEST PUSH32 0x4E487B7100000000000000000000000000000000000000000000000000000000 PUSH0 MSTORE PUSH1 0x22 PUSH1 0x4 MSTORE PUSH1 0x24 PUSH0 REVERT JUMPDEST PUSH0 PUSH1 0x2 DUP3 DIV SWAP1 POP PUSH1 0x1 DUP3 AND DUP1 PUSH2 0x2482 JUMPI PUSH1 0x7F DUP3 AND SWAP2 POP JUMPDEST PUSH1 0x20 DUP3 LT DUP2 SUB PUSH2 0x2495 JUMPI PUSH2 0x2494 PUSH2 0x243E JUMP JUMPDEST JUMPDEST POP SWAP2 SWAP1 POP JUMP JUMPDEST PUSH2 0x24A4 DUP2 PUSH2 0x1B1D JUMP JUMPDEST DUP3 MSTORE POP POP JUMP JUMPDEST PUSH0 PUSH1 0x40 DUP3 ADD SWAP1 POP PUSH2 0x24BD PUSH0 DUP4 ADD DUP6 PUSH2 0x249B JUMP JUMPDEST PUSH2 0x24CA PUSH1 0x20 DUP4 ADD DUP5 PUSH2 0x249B JUMP JUMPDEST SWAP4 SWAP3 POP POP POP JUMP JUMPDEST PUSH32 0x4F6E6C792074656163686572732063616E206177617264206372656469747300 PUSH0 DUP3 ADD MSTORE POP JUMP JUMPDEST PUSH0 PUSH2 0x2505 PUSH1 0x1F DUP4 PUSH2 0x1CD9 JUMP JUMPDEST SWAP2 POP PUSH2 0x2510 DUP3 PUSH2 0x24D1 JUMP JUMPDEST PUSH1 0x20 DUP3 ADD SWAP1 POP SWAP2 SWAP1 POP JUMP JUMPDEST PUSH0 PUSH1 0x20 DUP3 ADD SWAP1 POP DUP2 DUP2 SUB PUSH0 DUP4 ADD MSTORE PUSH2 0x2532 DUP2 PUSH2 0x24F9 JUMP JUMPDEST SWAP1 POP SWAP2 SWAP1 POP JUMP JUMPDEST PUSH0 PUSH1 0x40 DUP3 ADD SWAP1 POP PUSH2 0x254C PUSH0 DUP4 ADD DUP6 PUSH2 0x1BC9 JUMP JUMPDEST PUSH2 0x2559 PUSH1 0x20 DUP4 ADD DUP5 PUSH2 0x1BC9 JUMP JUMPDEST SWAP4 SWAP3 POP POP POP JUMP JUMPDEST PUSH32 0x4E487B7100000000000000000000000000000000000000000000000000000000 PUSH0 MSTORE PUSH1 0x32 PUSH1 0x4 MSTORE PUSH1 0x24 PUSH0 REVERT JUMPDEST PUSH32 0x4F6E6C792073747564656E74732063616E20636C61696D207265776172647300 PUSH0 DUP3 ADD MSTORE POP JUMP JUMPDEST PUSH0 PUSH2 0x25C1 PUSH1 0x1F DUP4 PUSH2 0x1CD9 JUMP JUMPDEST SWAP2 POP PUSH2 0x25CC DUP3 PUSH2 0x258D JUMP JUMPDEST PUSH1 0x20 DUP3 ADD SWAP1 POP SWAP2 SWAP1 POP JUMP JUMPDEST PUSH0 PUSH1 0x20 DUP3 ADD SWAP1 POP DUP2 DUP2 SUB PUSH0 DUP4 ADD MSTORE PUSH2 0x25EE DUP2 PUSH2 0x25B5 JUMP JUMPDEST SWAP1 POP SWAP2 SWAP1 POP JUMP JUMPDEST PUSH0 PUSH1 0x20 DUP3 ADD SWAP1 POP PUSH2 0x2608 PUSH0 DUP4 ADD DUP5 PUSH2 0x249B JUMP JUMPDEST SWAP3 SWAP2 POP POP JUMP JUMPDEST PUSH0 PUSH1 0x40 DUP3 ADD SWAP1 POP PUSH2 0x2621 PUSH0 DUP4 ADD DUP6 PUSH2 0x249B JUMP JUMPDEST PUSH2 0x262E PUSH1 0x20 DUP4 ADD DUP5 PUSH2 0x1DD7 JUMP JUMPDEST SWAP4 SWAP3 POP POP POP JUMP JUMPDEST PUSH0 PUSH1 0x80 DUP3 ADD SWAP1 POP PUSH2 0x2648 PUSH0 DUP4 ADD DUP8 PUSH2 0x249B JUMP JUMPDEST PUSH2 0x2655 PUSH1 0x20 DUP4 ADD DUP7 PUSH2 0x1BC9 JUMP JUMPDEST PUSH2 0x2662 PUSH1 0x40 DUP4 ADD DUP6 PUSH2 0x1BC9 JUMP JUMPDEST PUSH2 0x266F PUSH1 0x60 DUP4 ADD DUP5 PUSH2 0x1BC9 JUMP JUMPDEST SWAP6 SWAP5 POP POP POP POP POP JUMP JUMPDEST PUSH32 0x4E487B7100000000000000000000000000000000000000000000000000000000 PUSH0 MSTORE PUSH1 0x11 PUSH1 0x4 MSTORE PUSH1 0x24 PUSH0 REVERT JUMPDEST PUSH0 PUSH2 0x26AF DUP3 PUSH2 0x1B58 JUMP JUMPDEST SWAP2 POP PUSH2 0x26BA DUP4 PUSH2 0x1B58 JUMP JUMPDEST SWAP3 POP DUP3 DUP3 ADD SWAP1 POP DUP1 DUP3 GT ISZERO PUSH2 0x26D2 JUMPI PUSH2 0x26D1 PUSH2 0x2678 JUMP JUMPDEST JUMPDEST SWAP3 SWAP2 POP POP JUMP JUMPDEST PUSH0 PUSH1 0x40 DUP3 ADD SWAP1 POP DUP2 DUP2 SUB PUSH0 DUP4 ADD MSTORE PUSH2 0x26F0 DUP2 DUP6 PUSH2 0x2289 JUMP JUMPDEST SWAP1 POP DUP2 DUP2 SUB PUSH1 0x20 DUP4 ADD MSTORE PUSH2 0x2704 DUP2 DUP5 PUSH2 0x2289 JUMP JUMPDEST SWAP1 POP SWAP4 SWAP3 POP POP POP JUMP JUMPDEST PUSH0 DUP2 MLOAD SWAP1 POP SWAP2 SWAP1 POP JUMP JUMPDEST PUSH0 DUP3 DUP3 MSTORE PUSH1 0x20 DUP3 ADD SWAP1 POP SWAP3 SWAP2 POP POP JUMP JUMPDEST PUSH0 PUSH2 0x2731 DUP3 PUSH2 0x270D JUMP JUMPDEST PUSH2 0x273B DUP2 DUP6 PUSH2 0x2717 JUMP JUMPDEST SWAP4 POP PUSH2 0x274B DUP2 DUP6 PUSH1 0x20 DUP7 ADD PUSH2 0x1CE9 JUMP JUMPDEST PUSH2 0x2754 DUP2 PUSH2 0x1D11 JUMP JUMPDEST DUP5 ADD SWAP2 POP POP SWAP3 SWAP2 POP POP JUMP JUMPDEST PUSH0 PUSH1 0xA0 DUP3 ADD SWAP1 POP PUSH2 0x2772 PUSH0 DUP4 ADD DUP9 PUSH2 0x249B JUMP JUMPDEST PUSH2 0x277F PUSH1 0x20 DUP4 ADD DUP8 PUSH2 0x249B JUMP JUMPDEST PUSH2 0x278C PUSH1 0x40 DUP4 ADD DUP7 PUSH2 0x1BC9 JUMP JUMPDEST PUSH2 0x2799 PUSH1 0x60 DUP4 ADD DUP6 PUSH2 0x1BC9 JUMP JUMPDEST DUP2 DUP2 SUB PUSH1 0x80 DUP4 ADD MSTORE PUSH2 0x27AB DUP2 DUP5 PUSH2 0x2727 JUMP JUMPDEST SWAP1 POP SWAP7 SWAP6 POP POP POP POP POP POP JUMP JUMPDEST PUSH0 DUP2 MLOAD SWAP1 POP PUSH2 0x27C5 DUP2 PUSH2 0x1C1C JUMP JUMPDEST SWAP3 SWAP2 POP POP JUMP JUMPDEST PUSH0 PUSH1 0x20 DUP3 DUP5 SUB SLT ISZERO PUSH2 0x27E0 JUMPI PUSH2 0x27DF PUSH2 0x1AF6 JUMP JUMPDEST JUMPDEST PUSH0 PUSH2 0x27ED DUP5 DUP3 DUP6 ADD PUSH2 0x27B7 JUMP JUMPDEST SWAP2 POP POP SWAP3 SWAP2 POP POP JUMP JUMPDEST PUSH0 PUSH1 0xA0 DUP3 ADD SWAP1 POP PUSH2 0x2809 PUSH0 DUP4 ADD DUP9 PUSH2 0x249B JUMP JUMPDEST PUSH2 0x2816 PUSH1 0x20 DUP4 ADD DUP8 PUSH2 0x249B JUMP JUMPDEST DUP2 DUP2 SUB PUSH1 0x40 DUP4 ADD MSTORE PUSH2 0x2828 DUP2 DUP7 PUSH2 0x2289 JUMP JUMPDEST SWAP1 POP DUP2 DUP2 SUB PUSH1 0x60 DUP4 ADD MSTORE PUSH2 0x283C DUP2 DUP6 PUSH2 0x2289 JUMP JUMPDEST SWAP1 POP DUP2 DUP2 SUB PUSH1 0x80 DUP4 ADD MSTORE PUSH2 0x2850 DUP2 DUP5 PUSH2 0x2727 JUMP JUMPDEST SWAP1 POP SWAP7 SWAP6 POP POP POP POP POP POP JUMP INVALID LOG2 PUSH5 0x6970667358 0x22 SLT KECCAK256 0xCD PUSH0 0xC6 PUSH7 0x2917BD6CBF3A4A 0xA6 PUSH27 0x5A72F1C2BB62328E81E139F7EB3BE2F1BEC3AE64736F6C63430008 AND STOP CALLER PUSH9 0x747470733A2F2F6D79 PUSH2 0x7069 0x2E PUSH4 0x6F6D2F61 PUSH17 0x692F746F6B656E2F7B69647D2E6A736F6E "
		},
		"gasEstimates": {
			"creation": {
				"codeDepositCost": "2077200",
				"executionCost": "infinite",
				"totalCost": "infinite"
			},
			"external": {
				"DEFAULT_ADMIN_ROLE()": "397",
				"STUDENT_ROLE()": "435",
				"TEACHER_ROLE()": "348",
				"awardCredits(address,uint256)": "infinite",
				"balanceOf(address,uint256)": "infinite",
				"balanceOfBatch(address[],uint256[])": "infinite",
				"claimReward(uint256)": "infinite",
				"getRoleAdmin(bytes32)": "infinite",
				"grantRole(bytes32,address)": "infinite",
				"hasRole(bytes32,address)": "3167",
				"isApprovedForAll(address,address)": "infinite",
				"renounceRole(bytes32,address)": "infinite",
				"revokeRole(bytes32,address)": "infinite",
				"safeBatchTransferFrom(address,address,uint256[],uint256[],bytes)": "infinite",
				"safeTransferFrom(address,address,uint256,uint256,bytes)": "infinite",
				"setApprovalForAll(address,bool)": "infinite",
				"supportsInterface(bytes4)": "infinite",
				"uri(uint256)": "infinite"
			},
			"internal": {
				"getRewardCost(uint256)": "27"
			}
		},
		"methodIdentifiers": {
			"DEFAULT_ADMIN_ROLE()": "a217fddf",
			"STUDENT_ROLE()": "f7be43fb",
			"TEACHER_ROLE()": "86e5c15a",
			"awardCredits(address,uint256)": "3ff3226d",
			"balanceOf(address,uint256)": "00fdd58e",
			"balanceOfBatch(address[],uint256[])": "4e1273f4",
			"claimReward(uint256)": "ae169a50",
			"getRoleAdmin(bytes32)": "248a9ca3",
			"grantRole(bytes32,address)": "2f2ff15d",
			"hasRole(bytes32,address)": "91d14854",
			"isApprovedForAll(address,address)": "e985e9c5",
			"renounceRole(bytes32,address)": "36568abe",
			"revokeRole(bytes32,address)": "d547741f",
			"safeBatchTransferFrom(address,address,uint256[],uint256[],bytes)": "2eb2c2d6",
			"safeTransferFrom(address,address,uint256,uint256,bytes)": "f242432a",
			"setApprovalForAll(address,bool)": "a22cb465",
			"supportsInterface(bytes4)": "01ffc9a7",
			"uri(uint256)": "0e89341c"
		}
	},
	"abi": [
		{
			"inputs": [],
			"stateMutability": "nonpayable",
			"type": "constructor"
		},
		{
			"inputs": [],
			"name": "AccessControlBadConfirmation",
			"type": "error"
		},
		{
			"inputs": [
				{
					"internalType": "address",
					"name": "account",
					"type": "address"
				},
				{
					"internalType": "bytes32",
					"name": "neededRole",
					"type": "bytes32"
				}
			],
			"name": "AccessControlUnauthorizedAccount",
			"type": "error"
		},
		{
			"inputs": [
				{
					"internalType": "address",
					"name": "sender",
					"type": "address"
				},
				{
					"internalType": "uint256",
					"name": "balance",
					"type": "uint256"
				},
				{
					"internalType": "uint256",
					"name": "needed",
					"type": "uint256"
				},
				{
					"internalType": "uint256",
					"name": "tokenId",
					"type": "uint256"
				}
			],
			"name": "ERC1155InsufficientBalance",
			"type": "error"
		},
		{
			"inputs": [
				{
					"internalType": "address",
					"name": "approver",
					"type": "address"
				}
			],
			"name": "ERC1155InvalidApprover",
			"type": "error"
		},
		{
			"inputs": [
				{
					"internalType": "uint256",
					"name": "idsLength",
					"type": "uint256"
				},
				{
					"internalType": "uint256",
					"name": "valuesLength",
					"type": "uint256"
				}
			],
			"name": "ERC1155InvalidArrayLength",
			"type": "error"
		},
		{
			"inputs": [
				{
					"internalType": "address",
					"name": "operator",
					"type": "address"
				}
			],
			"name": "ERC1155InvalidOperator",
			"type": "error"
		},
		{
			"inputs": [
				{
					"internalType": "address",
					"name": "receiver",
					"type": "address"
				}
			],
			"name": "ERC1155InvalidReceiver",
			"type": "error"
		},
		{
			"inputs": [
				{
					"internalType": "address",
					"name": "sender",
					"type": "address"
				}
			],
			"name": "ERC1155InvalidSender",
			"type": "error"
		},
		{
			"inputs": [
				{
					"internalType": "address",
					"name": "operator",
					"type": "address"
				},
				{
					"internalType": "address",
					"name": "owner",
					"type": "address"
				}
			],
			"name": "ERC1155MissingApprovalForAll",
			"type": "error"
		},
		{
			"anonymous": false,
			"inputs": [
				{
					"indexed": true,
					"internalType": "address",
					"name": "account",
					"type": "address"
				},
				{
					"indexed": true,
					"internalType": "address",
					"name": "operator",
					"type": "address"
				},
				{
					"indexed": false,
					"internalType": "bool",
					"name": "approved",
					"type": "bool"
				}
			],
			"name": "ApprovalForAll",
			"type": "event"
		},
		{
			"anonymous": false,
			"inputs": [
				{
					"indexed": true,
					"internalType": "bytes32",
					"name": "role",
					"type": "bytes32"
				},
				{
					"indexed": true,
					"internalType": "bytes32",
					"name": "previousAdminRole",
					"type": "bytes32"
				},
				{
					"indexed": true,
					"internalType": "bytes32",
					"name": "newAdminRole",
					"type": "bytes32"
				}
			],
			"name": "RoleAdminChanged",
			"type": "event"
		},
		{
			"anonymous": false,
			"inputs": [
				{
					"indexed": true,
					"internalType": "bytes32",
					"name": "role",
					"type": "bytes32"
				},
				{
					"indexed": true,
					"internalType": "address",
					"name": "account",
					"type": "address"
				},
				{
					"indexed": true,
					"internalType": "address",
					"name": "sender",
					"type": "address"
				}
			],
			"name": "RoleGranted",
			"type": "event"
		},
		{
			"anonymous": false,
			"inputs": [
				{
					"indexed": true,
					"internalType": "bytes32",
					"name": "role",
					"type": "bytes32"
				},
				{
					"indexed": true,
					"internalType": "address",
					"name": "account",
					"type": "address"
				},
				{
					"indexed": true,
					"internalType": "address",
					"name": "sender",
					"type": "address"
				}
			],
			"name": "RoleRevoked",
			"type": "event"
		},
		{
			"anonymous": false,
			"inputs": [
				{
					"indexed": true,
					"internalType": "address",
					"name": "operator",
					"type": "address"
				},
				{
					"indexed": true,
					"internalType": "address",
					"name": "from",
					"type": "address"
				},
				{
					"indexed": true,
					"internalType": "address",
					"name": "to",
					"type": "address"
				},
				{
					"indexed": false,
					"internalType": "uint256[]",
					"name": "ids",
					"type": "uint256[]"
				},
				{
					"indexed": false,
					"internalType": "uint256[]",
					"name": "values",
					"type": "uint256[]"
				}
			],
			"name": "TransferBatch",
			"type": "event"
		},
		{
			"anonymous": false,
			"inputs": [
				{
					"indexed": true,
					"internalType": "address",
					"name": "operator",
					"type": "address"
				},
				{
					"indexed": true,
					"internalType": "address",
					"name": "from",
					"type": "address"
				},
				{
					"indexed": true,
					"internalType": "address",
					"name": "to",
					"type": "address"
				},
				{
					"indexed": false,
					"internalType": "uint256",
					"name": "id",
					"type": "uint256"
				},
				{
					"indexed": false,
					"internalType": "uint256",
					"name": "value",
					"type": "uint256"
				}
			],
			"name": "TransferSingle",
			"type": "event"
		},
		{
			"anonymous": false,
			"inputs": [
				{
					"indexed": false,
					"internalType": "string",
					"name": "value",
					"type": "string"
				},
				{
					"indexed": true,
					"internalType": "uint256",
					"name": "id",
					"type": "uint256"
				}
			],
			"name": "URI",
			"type": "event"
		},
		{
			"inputs": [],
			"name": "DEFAULT_ADMIN_ROLE",
			"outputs": [
				{
					"internalType": "bytes32",
					"name": "",
					"type": "bytes32"
				}
			],
			"stateMutability": "view",
			"type": "function"
		},
		{
			"inputs": [],
			"name": "STUDENT_ROLE",
			"outputs": [
				{
					"internalType": "bytes32",
					"name": "",
					"type": "bytes32"
				}
			],
			"stateMutability": "view",
			"type": "function"
		},
		{
			"inputs": [],
			"name": "TEACHER_ROLE",
			"outputs": [
				{
					"internalType": "bytes32",
					"name": "",
					"type": "bytes32"
				}
			],
			"stateMutability": "view",
			"type": "function"
		},
		{
			"inputs": [
				{
					"internalType": "address",
					"name": "student",
					"type": "address"
				},
				{
					"internalType": "uint256",
					"name": "amount",
					"type": "uint256"
				}
			],
			"name": "awardCredits",
			"outputs": [],
			"stateMutability": "nonpayable",
			"type": "function"
		},
		{
			"inputs": [
				{
					"internalType": "address",
					"name": "account",
					"type": "address"
				},
				{
					"internalType": "uint256",
					"name": "id",
					"type": "uint256"
				}
			],
			"name": "balanceOf",
			"outputs": [
				{
					"internalType": "uint256",
					"name": "",
					"type": "uint256"
				}
			],
			"stateMutability": "view",
			"type": "function"
		},
		{
			"inputs": [
				{
					"internalType": "address[]",
					"name": "accounts",
					"type": "address[]"
				},
				{
					"internalType": "uint256[]",
					"name": "ids",
					"type": "uint256[]"
				}
			],
			"name": "balanceOfBatch",
			"outputs": [
				{
					"internalType": "uint256[]",
					"name": "",
					"type": "uint256[]"
				}
			],
			"stateMutability": "view",
			"type": "function"
		},
		{
			"inputs": [
				{
					"internalType": "uint256",
					"name": "rewardId",
					"type": "uint256"
				}
			],
			"name": "claimReward",
			"outputs": [],
			"stateMutability": "nonpayable",
			"type": "function"
		},
		{
			"inputs": [
				{
					"internalType": "bytes32",
					"name": "role",
					"type": "bytes32"
				}
			],
			"name": "getRoleAdmin",
			"outputs": [
				{
					"internalType": "bytes32",
					"name": "",
					"type": "bytes32"
				}
			],
			"stateMutability": "view",
			"type": "function"
		},
		{
			"inputs": [
				{
					"internalType": "bytes32",
					"name": "role",
					"type": "bytes32"
				},
				{
					"internalType": "address",
					"name": "account",
					"type": "address"
				}
			],
			"name": "grantRole",
			"outputs": [],
			"stateMutability": "nonpayable",
			"type": "function"
		},
		{
			"inputs": [
				{
					"internalType": "bytes32",
					"name": "role",
					"type": "bytes32"
				},
				{
					"internalType": "address",
					"name": "account",
					"type": "address"
				}
			],
			"name": "hasRole",
			"outputs": [
				{
					"internalType": "bool",
					"name": "",
					"type": "bool"
				}
			],
			"stateMutability": "view",
			"type": "function"
		},
		{
			"inputs": [
				{
					"internalType": "address",
					"name": "account",
					"type": "address"
				},
				{
					"internalType": "address",
					"name": "operator",
					"type": "address"
				}
			],
			"name": "isApprovedForAll",
			"outputs": [
				{
					"internalType": "bool",
					"name": "",
					"type": "bool"
				}
			],
			"stateMutability": "view",
			"type": "function"
		},
		{
			"inputs": [
				{
					"internalType": "bytes32",
					"name": "role",
					"type": "bytes32"
				},
				{
					"internalType": "address",
					"name": "callerConfirmation",
					"type": "address"
				}
			],
			"name": "renounceRole",
			"outputs": [],
			"stateMutability": "nonpayable",
			"type": "function"
		},
		{
			"inputs": [
				{
					"internalType": "bytes32",
					"name": "role",
					"type": "bytes32"
				},
				{
					"internalType": "address",
					"name": "account",
					"type": "address"
				}
			],
			"name": "revokeRole",
			"outputs": [],
			"stateMutability": "nonpayable",
			"type": "function"
		},
		{
			"inputs": [
				{
					"internalType": "address",
					"name": "from",
					"type": "address"
				},
				{
					"internalType": "address",
					"name": "to",
					"type": "address"
				},
				{
					"internalType": "uint256[]",
					"name": "ids",
					"type": "uint256[]"
				},
				{
					"internalType": "uint256[]",
					"name": "values",
					"type": "uint256[]"
				},
				{
					"internalType": "bytes",
					"name": "data",
					"type": "bytes"
				}
			],
			"name": "safeBatchTransferFrom",
			"outputs": [],
			"stateMutability": "nonpayable",
			"type": "function"
		},
		{
			"inputs": [
				{
					"internalType": "address",
					"name": "from",
					"type": "address"
				},
				{
					"internalType": "address",
					"name": "to",
					"type": "address"
				},
				{
					"internalType": "uint256",
					"name": "id",
					"type": "uint256"
				},
				{
					"internalType": "uint256",
					"name": "value",
					"type": "uint256"
				},
				{
					"internalType": "bytes",
					"name": "data",
					"type": "bytes"
				}
			],
			"name": "safeTransferFrom",
			"outputs": [],
			"stateMutability": "nonpayable",
			"type": "function"
		},
		{
			"inputs": [
				{
					"internalType": "address",
					"name": "operator",
					"type": "address"
				},
				{
					"internalType": "bool",
					"name": "approved",
					"type": "bool"
				}
			],
			"name": "setApprovalForAll",
			"outputs": [],
			"stateMutability": "nonpayable",
			"type": "function"
		},
		{
			"inputs": [
				{
					"internalType": "bytes4",
					"name": "interfaceId",
					"type": "bytes4"
				}
			],
			"name": "supportsInterface",
			"outputs": [
				{
					"internalType": "bool",
					"name": "",
					"type": "bool"
				}
			],
			"stateMutability": "view",
			"type": "function"
		},
		{
			"inputs": [
				{
					"internalType": "uint256",
					"name": "",
					"type": "uint256"
				}
			],
			"name": "uri",
			"outputs": [
				{
					"internalType": "string",
					"name": "",
					"type": "string"
				}
			],
			"stateMutability": "view",
			"type": "function"
		}
	]
}