{"abi":[{"type":"constructor","inputs":[],"stateMutability":"nonpayable"},{"type":"function","name":"defaultAllocator","inputs":[],"outputs":[{"name":"","type":"address","internalType":"address"}],"stateMutability":"view"},{"type":"function","name":"verify","inputs":[{"name":"_proof","type":"tuple","internalType":"struct Proof","components":[{"name":"taskId","type":"bytes32","internalType":"bytes32"},{"name":"schemaId","type":"bytes32","internalType":"bytes32"},{"name":"uHash","type":"bytes32","internalType":"bytes32"},{"name":"recipient","type":"address","internalType":"address"},{"name":"publicFieldsHash","type":"bytes32","internalType":"bytes32"},{"name":"validator","type":"address","internalType":"address"},{"name":"allocatorSignature","type":"bytes","internalType":"bytes"},{"name":"validatorSignature","type":"bytes","internalType":"bytes"}]}],"outputs":[{"name":"","type":"bool","internalType":"bool"}],"stateMutability":"view"},{"type":"function","name":"verifyAllocatorSignature","inputs":[{"name":"_taskId","type":"bytes32","internalType":"bytes32"},{"name":"_schemaId","type":"bytes32","internalType":"bytes32"},{"name":"_validator","type":"address","internalType":"address"},{"name":"_allocatorSignature","type":"bytes","internalType":"bytes"}],"outputs":[{"name":"","type":"bool","internalType":"bool"}],"stateMutability":"view"},{"type":"function","name":"verifyValidatorSignature","inputs":[{"name":"_taskId","type":"bytes32","internalType":"bytes32"},{"name":"_schemaId","type":"bytes32","internalType":"bytes32"},{"name":"_uHash","type":"bytes32","internalType":"bytes32"},{"name":"_recipient","type":"address","internalType":"address"},{"name":"_publicFieldsHash","type":"bytes32","internalType":"bytes32"},{"name":"_validator","type":"address","internalType":"address"},{"name":"_validatorSignature","type":"bytes","internalType":"bytes"}],"outputs":[{"name":"","type":"bool","internalType":"bool"}],"stateMutability":"pure"}],"bytecode":{"object":"0x6080604052600080546001600160a01b0319167319a567b3b212a5b35ba0e3b600fbed5c2ee9083d17905534801561003657600080fd5b506107a1806100466000396000f3fe608060405234801561001057600080fd5b506004361061004c5760003560e01c806308fb8396146100515780631f97770c14610081578063756c6eed146100a4578063b4145446146100b7575b600080fd5b600054610064906001600160a01b031681565b6040516001600160a01b0390911681526020015b60405180910390f35b61009461008f3660046105a9565b6100ca565b6040519015158152602001610078565b6100946100b236600461060a565b61013a565b6100946100c53660046106e6565b610190565b60408051602081018690529081018490526001600160a01b03831660608201526000908190608001604051602081830303815290604052805190602001209050600061011e6101188361020a565b8561025d565b6000546001600160a01b03908116911614979650505050505050565b6000610158826000015183602001518460a001518560c001516100ca565b801561018a575061018a826000015183602001518460400151856060015186608001518760a001518860e00151610190565b92915050565b604080516020810189905290810187905260608101869052608081018490526001600160a01b03851660a0820152600090819060c00160405160208183030381529060405280519060200120905060006101ec6101188361020a565b6001600160a01b039081169086161492505050979650505050505050565b6040517f19457468657265756d205369676e6564204d6573736167653a0a3332000000006020820152603c8101829052600090605c01604051602081830303815290604052805190602001209050919050565b600081516041146102b55760405162461bcd60e51b815260206004820152601860248201527f496e76616c6964207369676e6174757265206c656e677468000000000000000060448201526064015b60405180910390fd5b60208201516040830151606084015160001a7f7fffffffffffffffffffffffffffffff5d576e7357a4501ddfe92f46681b20a082111561035d5760405162461bcd60e51b815260206004820152603d60248201527f5369676e617475726556616c696461746f72237265636f7665725369676e657260448201527f3a20696e76616c6964207369676e6174757265202773272076616c756500000060648201526084016102ac565b8060ff16601b1415801561037557508060ff16601c14155b156103e85760405162461bcd60e51b815260206004820152603d60248201527f5369676e617475726556616c696461746f72237265636f7665725369676e657260448201527f3a20696e76616c6964207369676e6174757265202776272076616c756500000060648201526084016102ac565b60408051600081526020810180835288905260ff831691810191909152606081018490526080810183905260019060a0016020604051602081039080840390855afa15801561043b573d6000803e3d6000fd5b5050604051601f1901519450506001600160a01b0384166104b75760405162461bcd60e51b815260206004820152603060248201527f5369676e617475726556616c696461746f72237265636f7665725369676e657260448201526f1d1024a72b20a624a22fa9a4a3a722a960811b60648201526084016102ac565b50505092915050565b80356001600160a01b03811681146104d757600080fd5b919050565b634e487b7160e01b600052604160045260246000fd5b604051610100810167ffffffffffffffff81118282101715610516576105166104dc565b60405290565b600082601f83011261052d57600080fd5b813567ffffffffffffffff80821115610548576105486104dc565b604051601f8301601f19908116603f01168101908282118183101715610570576105706104dc565b8160405283815286602085880101111561058957600080fd5b836020870160208301376000602085830101528094505050505092915050565b600080600080608085870312156105bf57600080fd5b84359350602085013592506105d6604086016104c0565b9150606085013567ffffffffffffffff8111156105f257600080fd5b6105fe8782880161051c565b91505092959194509250565b60006020828403121561061c57600080fd5b813567ffffffffffffffff8082111561063457600080fd5b90830190610100828603121561064957600080fd5b6106516104f2565b823581526020830135602082015260408301356040820152610675606084016104c0565b60608201526080830135608082015261069060a084016104c0565b60a082015260c0830135828111156106a757600080fd5b6106b38782860161051c565b60c08301525060e0830135828111156106cb57600080fd5b6106d78782860161051c565b60e08301525095945050505050565b600080600080600080600060e0888a03121561070157600080fd5b87359650602088013595506040880135945061071f606089016104c0565b93506080880135925061073460a089016104c0565b915060c088013567ffffffffffffffff81111561075057600080fd5b61075c8a828b0161051c565b9150509295989194975092955056fea2646970667358221220c58f989c56e6cefcbeca1e844981b5d7977f7d2a15bd8a9de8855d348e62c74264736f6c63430008140033","linkReferences":{}},"methodIdentifiers":{"defaultAllocator()":"08fb8396","verify((bytes32,bytes32,bytes32,address,bytes32,address,bytes,bytes))":"756c6eed","verifyAllocatorSignature(bytes32,bytes32,address,bytes)":"1f97770c","verifyValidatorSignature(bytes32,bytes32,bytes32,address,bytes32,address,bytes)":"b4145446"},"id":26}