{
  "_format": "hh-sol-artifact-1",
  "contractName": "BookShelf",
  "sourceName": "contracts/BookShelf.sol",
  "abi": [
    {
      "inputs": [],
      "stateMutability": "payable",
      "type": "constructor"
    },
    {
      "inputs": [],
      "name": "author",
      "outputs": [
        {
          "internalType": "address payable",
          "name": "",
          "type": "address"
        }
      ],
      "stateMutability": "view",
      "type": "function"
    },
    {
      "inputs": [],
      "name": "getAuthorBooks",
      "outputs": [
        {
          "components": [
            {
              "internalType": "address",
              "name": "author",
              "type": "address"
            },
            {
              "internalType": "uint256",
              "name": "bookId",
              "type": "uint256"
            },
            {
              "internalType": "uint8",
              "name": "price",
              "type": "uint8"
            },
            {
              "internalType": "bytes",
              "name": "title",
              "type": "bytes"
            },
            {
              "internalType": "bytes",
              "name": "author_name",
              "type": "bytes"
            },
            {
              "internalType": "bytes",
              "name": "published_date",
              "type": "bytes"
            },
            {
              "internalType": "bytes",
              "name": "content",
              "type": "bytes"
            },
            {
              "internalType": "enum BookShelf.BookStatus",
              "name": "status",
              "type": "uint8"
            },
            {
              "internalType": "uint256",
              "name": "purchase_counter",
              "type": "uint256"
            }
          ],
          "internalType": "struct BookShelf.BookMetadata[]",
          "name": "",
          "type": "tuple[]"
        }
      ],
      "stateMutability": "view",
      "type": "function"
    },
    {
      "inputs": [
        {
          "internalType": "string",
          "name": "title_",
          "type": "string"
        },
        {
          "internalType": "string",
          "name": "content_",
          "type": "string"
        },
        {
          "internalType": "string",
          "name": "authorname_",
          "type": "string"
        },
        {
          "internalType": "string",
          "name": "date_",
          "type": "string"
        },
        {
          "internalType": "uint256",
          "name": "purchase_counter_",
          "type": "uint256"
        },
        {
          "internalType": "uint8",
          "name": "price_",
          "type": "uint8"
        },
        {
          "internalType": "enum BookShelf.BookStatus",
          "name": "bookstatus_",
          "type": "uint8"
        }
      ],
      "name": "publishBook",
      "outputs": [],
      "stateMutability": "nonpayable",
      "type": "function"
    }
  ],
  "bytecode": "0x608060405233600160006101000a81548173ffffffffffffffffffffffffffffffffffffffff021916908373ffffffffffffffffffffffffffffffffffffffff160217905550611212806100546000396000f3fe608060405234801561001057600080fd5b50600436106100415760003560e01c806316d1d94114610046578063a6c3e6b914610064578063c8b237c214610082575b600080fd5b61004e61009e565b60405161005b9190610ae8565b60405180910390f35b61006c610466565b6040516100799190610b2b565b60405180910390f35b61009c60048036038101906100979190610d0c565b61048c565b005b6060600080600160009054906101000a900473ffffffffffffffffffffffffffffffffffffffff1673ffffffffffffffffffffffffffffffffffffffff1673ffffffffffffffffffffffffffffffffffffffff168152602001908152602001600020805480602002602001604051908101604052809291908181526020016000905b8282101561045d5783829060005260206000209060090201604051806101200160405290816000820160009054906101000a900473ffffffffffffffffffffffffffffffffffffffff1673ffffffffffffffffffffffffffffffffffffffff1673ffffffffffffffffffffffffffffffffffffffff168152602001600182015481526020016002820160009054906101000a900460ff1660ff1660ff1681526020016003820180546101d190610e4d565b80601f01602080910402602001604051908101604052809291908181526020018280546101fd90610e4d565b801561024a5780601f1061021f5761010080835404028352916020019161024a565b820191906000526020600020905b81548152906001019060200180831161022d57829003601f168201915b5050505050815260200160048201805461026390610e4d565b80601f016020809104026020016040519081016040528092919081815260200182805461028f90610e4d565b80156102dc5780601f106102b1576101008083540402835291602001916102dc565b820191906000526020600020905b8154815290600101906020018083116102bf57829003601f168201915b505050505081526020016005820180546102f590610e4d565b80601f016020809104026020016040519081016040528092919081815260200182805461032190610e4d565b801561036e5780601f106103435761010080835404028352916020019161036e565b820191906000526020600020905b81548152906001019060200180831161035157829003601f168201915b5050505050815260200160068201805461038790610e4d565b80601f01602080910402602001604051908101604052809291908181526020018280546103b390610e4d565b80156104005780601f106103d557610100808354040283529160200191610400565b820191906000526020600020905b8154815290600101906020018083116103e357829003601f168201915b505050505081526020016007820160009054906101000a900460ff16600181111561042e5761042d610901565b5b60018111156104405761043f610901565b5b815260200160088201548152505081526020019060010190610120565b50505050905090565b600160009054906101000a900473ffffffffffffffffffffffffffffffffffffffff1681565b600160009054906101000a900473ffffffffffffffffffffffffffffffffffffffff1673ffffffffffffffffffffffffffffffffffffffff163373ffffffffffffffffffffffffffffffffffffffff161461051c576040517f08c379a000000000000000000000000000000000000000000000000000000000815260040161051390610edb565b60405180910390fd5b600080806000600160009054906101000a900473ffffffffffffffffffffffffffffffffffffffff1673ffffffffffffffffffffffffffffffffffffffff1673ffffffffffffffffffffffffffffffffffffffff1681526020019081526020016000208054905090506001816105929190610f2a565b9150600085036105a157600092505b6000604051806101200160405280600160009054906101000a900473ffffffffffffffffffffffffffffffffffffffff1673ffffffffffffffffffffffffffffffffffffffff1681526020018481526020018660ff1681526020018b81526020018981526020018881526020018a815260200185600181111561062757610626610901565b5b8152602001878152509050600080600160009054906101000a900473ffffffffffffffffffffffffffffffffffffffff1673ffffffffffffffffffffffffffffffffffffffff1673ffffffffffffffffffffffffffffffffffffffff16815260200190815260200160002081908060018154018082558091505060019003906000526020600020906009020160009091909190915060008201518160000160006101000a81548173ffffffffffffffffffffffffffffffffffffffff021916908373ffffffffffffffffffffffffffffffffffffffff1602179055506020820151816001015560408201518160020160006101000a81548160ff021916908360ff1602179055506060820151816003019081610743919061110a565b506080820151816004019081610759919061110a565b5060a082015181600501908161076f919061110a565b5060c0820151816006019081610785919061110a565b5060e08201518160070160006101000a81548160ff021916908360018111156107b1576107b0610901565b5b02179055506101008201518160080155505050505050505050505050565b600081519050919050565b600082825260208201905092915050565b6000819050602082019050919050565b600073ffffffffffffffffffffffffffffffffffffffff82169050919050565b6000610826826107fb565b9050919050565b6108368161081b565b82525050565b6000819050919050565b61084f8161083c565b82525050565b600060ff82169050919050565b61086b81610855565b82525050565b600081519050919050565b600082825260208201905092915050565b60005b838110156108ab578082015181840152602081019050610890565b60008484015250505050565b6000601f19601f8301169050919050565b60006108d382610871565b6108dd818561087c565b93506108ed81856020860161088d565b6108f6816108b7565b840191505092915050565b7f4e487b7100000000000000000000000000000000000000000000000000000000600052602160045260246000fd5b6002811061094157610940610901565b5b50565b600081905061095282610930565b919050565b600061096282610944565b9050919050565b61097281610957565b82525050565b600061012083016000830151610991600086018261082d565b5060208301516109a46020860182610846565b5060408301516109b76040860182610862565b50606083015184820360608601526109cf82826108c8565b915050608083015184820360808601526109e982826108c8565b91505060a083015184820360a0860152610a0382826108c8565b91505060c083015184820360c0860152610a1d82826108c8565b91505060e0830151610a3260e0860182610969565b50610100830151610a47610100860182610846565b508091505092915050565b6000610a5e8383610978565b905092915050565b6000602082019050919050565b6000610a7e826107cf565b610a8881856107da565b935083602082028501610a9a856107eb565b8060005b85811015610ad65784840389528151610ab78582610a52565b9450610ac283610a66565b925060208a01995050600181019050610a9e565b50829750879550505050505092915050565b60006020820190508181036000830152610b028184610a73565b905092915050565b6000610b15826107fb565b9050919050565b610b2581610b0a565b82525050565b6000602082019050610b406000830184610b1c565b92915050565b6000604051905090565b600080fd5b600080fd5b600080fd5b600080fd5b7f4e487b7100000000000000000000000000000000000000000000000000000000600052604160045260246000fd5b610b9c826108b7565b810181811067ffffffffffffffff82111715610bbb57610bba610b64565b5b80604052505050565b6000610bce610b46565b9050610bda8282610b93565b919050565b600067ffffffffffffffff821115610bfa57610bf9610b64565b5b610c03826108b7565b9050602081019050919050565b82818337600083830152505050565b6000610c32610c2d84610bdf565b610bc4565b905082815260208101848484011115610c4e57610c4d610b5f565b5b610c59848285610c10565b509392505050565b600082601f830112610c7657610c75610b5a565b5b8135610c86848260208601610c1f565b91505092915050565b610c988161083c565b8114610ca357600080fd5b50565b600081359050610cb581610c8f565b92915050565b610cc481610855565b8114610ccf57600080fd5b50565b600081359050610ce181610cbb565b92915050565b60028110610cf457600080fd5b50565b600081359050610d0681610ce7565b92915050565b600080600080600080600060e0888a031215610d2b57610d2a610b50565b5b600088013567ffffffffffffffff811115610d4957610d48610b55565b5b610d558a828b01610c61565b975050602088013567ffffffffffffffff811115610d7657610d75610b55565b5b610d828a828b01610c61565b965050604088013567ffffffffffffffff811115610da357610da2610b55565b5b610daf8a828b01610c61565b955050606088013567ffffffffffffffff811115610dd057610dcf610b55565b5b610ddc8a828b01610c61565b9450506080610ded8a828b01610ca6565b93505060a0610dfe8a828b01610cd2565b92505060c0610e0f8a828b01610cf7565b91505092959891949750929550565b7f4e487b7100000000000000000000000000000000000000000000000000000000600052602260045260246000fd5b60006002820490506001821680610e6557607f821691505b602082108103610e7857610e77610e1e565b5b50919050565b600082825260208201905092915050565b7f4f6e6c7920617574686f722063616e207075626c69736820626f6f6b73000000600082015250565b6000610ec5601d83610e7e565b9150610ed082610e8f565b602082019050919050565b60006020820190508181036000830152610ef481610eb8565b9050919050565b7f4e487b7100000000000000000000000000000000000000000000000000000000600052601160045260246000fd5b6000610f358261083c565b9150610f408361083c565b9250828201905080821115610f5857610f57610efb565b5b92915050565b60008190508160005260206000209050919050565b60006020601f8301049050919050565b600082821b905092915050565b600060088302610fc07fffffffffffffffffffffffffffffffffffffffffffffffffffffffffffffffff82610f83565b610fca8683610f83565b95508019841693508086168417925050509392505050565b6000819050919050565b6000611007611002610ffd8461083c565b610fe2565b61083c565b9050919050565b6000819050919050565b61102183610fec565b61103561102d8261100e565b848454610f90565b825550505050565b600090565b61104a61103d565b611055818484611018565b505050565b5b818110156110795761106e600082611042565b60018101905061105b565b5050565b601f8211156110be5761108f81610f5e565b61109884610f73565b810160208510156110a7578190505b6110bb6110b385610f73565b83018261105a565b50505b505050565b600082821c905092915050565b60006110e1600019846008026110c3565b1980831691505092915050565b60006110fa83836110d0565b9150826002028217905092915050565b61111382610871565b67ffffffffffffffff81111561112c5761112b610b64565b5b6111368254610e4d565b61114182828561107d565b600060209050601f8311600181146111745760008415611162578287015190505b61116c85826110ee565b8655506111d4565b601f19841661118286610f5e565b60005b828110156111aa57848901518255600182019150602085019450602081019050611185565b868310156111c757848901516111c3601f8916826110d0565b8355505b6001600288020188555050505b50505050505056fea2646970667358221220d5858325149664d5cdf10f16aca479f3e553a40fb005f79c24c49d3cd77dc25f64736f6c63430008180033",
  "linkReferences": {},
  "deployedLinkReferences": {}
}