{"abi":[{"type":"constructor","inputs":[{"name":"_proxy","type":"address","internalType":"address"}],"stateMutability":"nonpayable"},{"type":"function","name":"assignSecret","inputs":[{"name":"_proof","type":"tuple","internalType":"struct Proof","components":[{"name":"taskId","type":"bytes32","internalType":"bytes32"},{"name":"schemaId","type":"bytes32","internalType":"bytes32"},{"name":"uHash","type":"bytes32","internalType":"bytes32"},{"name":"recipient","type":"address","internalType":"address"},{"name":"publicFieldsHash","type":"bytes32","internalType":"bytes32"},{"name":"validator","type":"address","internalType":"address"},{"name":"allocatorSignature","type":"bytes","internalType":"bytes"},{"name":"validatorSignature","type":"bytes","internalType":"bytes"}]}],"outputs":[{"name":"","type":"string","internalType":"string"}],"stateMutability":"nonpayable"},{"type":"function","name":"getSecret","inputs":[],"outputs":[{"name":"","type":"string","internalType":"string"}],"stateMutability":"view"},{"type":"function","name":"proxy","inputs":[],"outputs":[{"name":"","type":"address","internalType":"address"}],"stateMutability":"view"},{"type":"event","name":"Response","inputs":[{"name":"success","type":"bool","indexed":false,"internalType":"bool"},{"name":"secret","type":"string","indexed":false,"internalType":"string"},{"name":"recipient","type":"address","indexed":false,"internalType":"address"}],"anonymous":false}],"bytecode":{"object":"0x60c0604052600a6080908152691898590814d958dc995d60b21b60a0526001906100299082610119565b5034801561003657600080fd5b50604051610ac1380380610ac1833981016040819052610055916101d8565b600080546001600160a01b0319166001600160a01b0392909216919091179055610208565b634e487b7160e01b600052604160045260246000fd5b600181811c908216806100a457607f821691505b6020821081036100c457634e487b7160e01b600052602260045260246000fd5b50919050565b601f82111561011457600081815260208120601f850160051c810160208610156100f15750805b601f850160051c820191505b81811015610110578281556001016100fd565b5050505b505050565b81516001600160401b038111156101325761013261007a565b610146816101408454610090565b846100ca565b602080601f83116001811461017b57600084156101635750858301515b600019600386901b1c1916600185901b178555610110565b600085815260208120601f198616915b828110156101aa5788860151825594840194600190910190840161018b565b50858210156101c85787850151600019600388901b60f8161c191681555b5050505050600190811b01905550565b6000602082840312156101ea57600080fd5b81516001600160a01b038116811461020157600080fd5b9392505050565b6108aa806102176000396000f3fe608060405234801561001057600080fd5b50600436106100415760003560e01c80635b9fdc3014610046578063e30f7a5b14610064578063ec55688914610077575b600080fd5b61004e6100a2565b60405161005b91906103f2565b60405180910390f35b61004e61007236600461040c565b610134565b60005461008a906001600160a01b031681565b6040516001600160a01b03909116815260200161005b565b6060600180546100b190610448565b80601f01602080910402602001604051908101604052809291908181526020018280546100dd90610448565b801561012a5780601f106100ff5761010080835404028352916020019161012a565b820191906000526020600020905b81548152906001019060200180831161010d57829003601f168201915b5050505050905090565b60606101456080830183830161049e565b6001600160a01b0316336001600160a01b0316146101be5760405162461bcd60e51b815260206004820152602b60248201527f53656e646572206164647265737320646f206e6f74206d61746368207769746860448201526a20726563697069656e742160a81b60648201526084015b60405180910390fd5b6000805460405182916001600160a01b0316906101df90869060200161052f565b60408051601f19818403018152908290526101fc916024016103f2565b60408051601f198184030181529181526020820180516001600160e01b031663430768ab60e01b1790525161023191906105e6565b6000604051808303816000865af19150503d806000811461026e576040519150601f19603f3d011682016040523d82523d6000602084013e610273565b606091505b5091509150811561037057808060200190518101906102929190610618565b60019061029f9082610709565b507f7167f058227928a5b4eb5e36f045565434d3702c8ed2f33a03b601c2c002a6d7600180336040516102d4939291906107c9565b60405180910390a1600180546102e990610448565b80601f016020809104026020016040519081016040528092919081815260200182805461031590610448565b80156103625780601f1061033757610100808354040283529160200191610362565b820191906000526020600020905b81548152906001019060200180831161034557829003601f168201915b505050505092505050919050565b60405162461bcd60e51b81526020600482015260076024820152664e75682075682160c81b60448201526064016101b5565b60005b838110156103bd5781810151838201526020016103a5565b50506000910152565b600081518084526103de8160208601602086016103a2565b601f01601f19169290920160200192915050565b60208152600061040560208301846103c6565b9392505050565b60006020828403121561041e57600080fd5b813567ffffffffffffffff81111561043557600080fd5b8201610100818503121561040557600080fd5b600181811c9082168061045c57607f821691505b60208210810361047c57634e487b7160e01b600052602260045260246000fd5b50919050565b80356001600160a01b038116811461049957600080fd5b919050565b6000602082840312156104b057600080fd5b61040582610482565b6000808335601e198436030181126104d057600080fd5b830160208101925035905067ffffffffffffffff8111156104f057600080fd5b8036038213156104ff57600080fd5b9250929050565b81835281816020850137506000828201602090810191909152601f909101601f19169091010190565b6020815281356020820152602082013560408201526040820135606082015260018060a01b0361056160608401610482565b166080820152608082013560a0820152600061057f60a08401610482565b6001600160a01b03811660c08401525061059c60c08401846104b9565b6101008060e08601526105b461012086018385610506565b92506105c360e08701876104b9565b868503601f19018388015292506105db848483610506565b979650505050505050565b600082516105f88184602087016103a2565b9190910192915050565b634e487b7160e01b600052604160045260246000fd5b60006020828403121561062a57600080fd5b815167ffffffffffffffff8082111561064257600080fd5b818401915084601f83011261065657600080fd5b81518181111561066857610668610602565b604051601f8201601f19908116603f0116810190838211818310171561069057610690610602565b816040528281528760208487010111156106a957600080fd5b6105db8360208301602088016103a2565b601f82111561070457600081815260208120601f850160051c810160208610156106e15750805b601f850160051c820191505b81811015610700578281556001016106ed565b5050505b505050565b815167ffffffffffffffff81111561072357610723610602565b610737816107318454610448565b846106ba565b602080601f83116001811461076c57600084156107545750858301515b600019600386901b1c1916600185901b178555610700565b600085815260208120601f198616915b8281101561079b5788860151825594840194600190910190840161077c565b50858210156107b95787850151600019600388901b60f8161c191681555b5050505050600190811b01905550565b831515815260006020606081840152600085546107e581610448565b806060870152608060018084166000811461080757600181146108215761084f565b60ff1985168984015283151560051b89018301955061084f565b8a6000528660002060005b858110156108475781548b820186015290830190880161082c565b8a0184019650505b505050506001600160a01b038616604086015250915061086c9050565b94935050505056fea2646970667358221220481fc04f7cdf0a38759d268dffd9a35cc93ef51126ec2e2d1d6ba7fda7961cdf64736f6c63430008140033","linkReferences":{}},"methodIdentifiers":{"assignSecret((bytes32,bytes32,bytes32,address,bytes32,address,bytes,bytes))":"e30f7a5b","getSecret()":"5b9fdc30","proxy()":"ec556889"},"id":24}